:1000000062C0F0C17BC07AC079C078C077C076C0CA
:1000100075C0D4C473C072C071C070C06FC06EC0F0
:100020006DC06CC06BC006C51DC528C54FC50CC6CC
:100030009CC70DC9A6CCA5CCA4CC59CAA2CCA1CC36
:10004000A0CC9FCC9ECC9DCC9CCC9BCC9ACCE3CA24
:1000500092CC0403090412036F006200640065007F
:1000600076002E00610074001403440061007400E7
:100070006100530074006F007200650012011001EE
:100080000000000834126824000101020001090286
:100090002200010100800A090400000103000000A1
:1000A00009210101000122160007058103080064EF
:1000B0000600FF0901A101150026FF0075089580C3
:1000C0000900B20201C011241FBECFE5D4E0DEBF9B
:1000D000CDBF11E0A0E6B0E0E4E4FBE102C0059092
:1000E0000D92AE31B107D9F711E0AEE1B1E001C038
:1000F0001D92A23AB107E1F76ADC22CD81CF85B724
:10010000826085BF8BB780648BBF8BE48093760160
:100110008AE58093750108951F93DC01162F809165
:10012000750184FF07C08091760198E88927809344
:10013000760103C08AE580937501912FE7E7F1E02E
:100140008D91819391501916DCF387E791E0612F2F
:1001500045D11C5F109375011F9108951F93CF9394
:10016000DF9360918601635067FDBDC0809183017C
:10017000CCE0D0E0C81BD109C657DE4F8091820188
:100180008D3209F09EC0683009F0ABC083EC8093DB
:100190006A018AE58093600010921E018881807652
:1001A00039F0CE01F8D3282F8F3F09F479C07FC0F2
:1001B0009A81109273018981882321F4109274012D
:1001C00022E067C0853019F49093870161C08630C2
:1001D00009F04AC08B81813019F48CE790E01BC094
:1001E000823041F48EE890E0909385018093840101
:1001F00022E236C08330F9F48A81882341F482E513
:1002000090E0909385018093840124E029C081309F
:1002100041F486E590E0909385018093840122E18A
:100220001FC08230E1F488E690E0909385018093CE
:10023000840124E115C0813241F480EA90E090937A
:1002400085018093840129E00BC0823241F480EB68
:1002500090E0909385018093840126E101C020E025
:1002600080E480931E0123C0883021F421E089E8D6
:1002700091E011C0893019F49093890109C08A3046
:1002800011F421E006C08B3019F48BE480937601E1
:1002900020E083E791E0909385018093840107C07B
:1002A000888187FD2E8180E880931E0106C08F81A2
:1002B000882319F48E81821708F0822F80936100C1
:1002C00010C080911E0187FF0CC0CE0123D38F3F49
:1002D00021F48EE18093600004C0882311F0109215
:1002E0006100109286018091600084FF54C080916B
:1002F00061008F3F09F44FC0182F893008F018E0D3
:10030000811B8093610080916A0198E8892780931E
:100310006A01112371F180911E0187FF08C08BE6ED
:1003200091E0612FD9D2182F893078F522C0209121
:1003300084013091850186FF0AC0912FF901ABE657
:10034000B1E084918D9331969150D9F708C0912FE7
:10035000D901EBE6F1E08D9181939150E1F7C9016C
:1003600001961150810F911D1F5F9093850180931D
:1003700084018BE691E0612F31D0612F6C5F6C308E
:1003800041F08FEF8093610004C08FEF8093610094
:100390006EE16093600094E180B3847131F4915018
:1003A000D9F71092870110928101DF91CF911F91AF
:1003B0000895A82FB92F80E090E041E050EA6095C1
:1003C00030E009C02D9182279795879510F08427FA
:1003D0009527305EC8F36F5FA8F30895EADF8D9329
:1003E0009D930895CF93CFB7CF93C395849BE9F79F
:1003F000849B09C0849B07C0849B05C0849B03C069
:10040000849B01C0A3C0DF93C0918301DD27C65741
:10041000DE4F849B02C0DF91EBCF2F930F931F938E
:1004200000B32FEF04FB20F94F933F9310B34FEF2E
:10043000012704FB21F93BE031C04E7F012F10B3AF
:10044000216028C0102F4D7F2260000000B329C01A
:100450004B7F2460012F000010B32BC010B3477FE7
:1004600028602AC04F7E00B320612CC04F7D10B39E
:1004700020622FC04F7B00B3206432C0422700B3FC
:1004800049934FEF0000102714FB20F910B31471AB
:10049000C9F1297F91F2012704FB21F900B3237FE1
:1004A00089F2315058F1102714FB22F910B3277E3E
:1004B00079F2012704FB23F92F7C81F200B3102786
:1004C00014FB24F92F7971F200C010B3012704FB4B
:1004D00025F92F7359F200C000B3102714FB26F939
:1004E000223040F200C010B3012704FB27F924306A
:1004F00028F64F77206810B30000F9CF10E41ABF38
:10050000002719C03B503195C31BD04010E41ABFDF
:100510000881033CF9F00B34E9F020918101198145
:10052000110F1213EDCF4A81441F093641F10D32EC
:1005300011F0013E29F7009388013F914F911F91DF
:100540000F912F91DF91CAB7C6FD4FCFCF91CFBF8B
:10055000CF91189520918801222379F3109186017B
:10056000112369F534306AF13093860120938201BA
:10057000109183013BE0311B3093830122C0009135
:1005800086010130E4F40AE54F7049F430916000CF
:1005900034FD19C000936000CAE6D1E018C0309164
:1005A000750134FD10C000937501C6E7D1E00FC09E
:1005B0002795A8F45150A9F4220F0000F9CF4AE57D
:1005C00003C042ED01C0432FC4E1D0E032E011B3DB
:1005D0001461949A11BB02B320E414E15F930127E4
:1005E00056E002BB279520F4515021F4220FF9CF99
:1005F000012756E000003B5A02BBD0F2279528F4B1
:10060000515029F4220F0000F9CF012756E0279519
:1006100002BB20F4515021F4220FF9CF012756E0FC
:100620002991332302BB21F60B7E10918701110F14
:10063000C651D04002BB11F01093810110E41ABFE3
:10064000006111B31B7E402F4B7E5F9100C000C044
:1006500002BB11BB42BB71CF92B39C7F982B660F3C
:10066000962B92BB939828EB3BE0C9010197F1F7D9
:10067000939AC9010197F1F788B3942F9F73807CF7
:10068000982B98BB82B3407C8F73842B82BBC901AB
:100690000197F1F79398C9010197F1F7939884E0D6
:1006A0008A95F1F7089580E060E041E0D5DF089594
:1006B000942F482F440F440F4860660F462B492B58
:1006C00080E060E0C9DF089588EC9FEA0197F1F7C8
:1006D00080E060E040E3C0DF88E99AE30197F1F74A
:1006E00080E060E04CE3B8DF80E060E048E0B4DF49
:1006F000DADF80E060E046E0AFDF81E060E040E02C
:10070000D7DF0895482F440F440F440F4061660F10
:10071000660F462B80E060E09FDF0895482F406819
:1007200080E060E099DF0895482F406480E060E059
:1007300093DF0895482F81E060E08EDF0895482F11
:1007400081E061E089DF0895EF92FF921F93CF93DC
:10075000DF93C5E1D1E010E088EBE82E8BE0F82EC6
:10076000812FE2DF8991E6DFC7010197F1F71F5F73
:100770001830B1F7DF91CF911F91FF90EF9008955E
:100780001F93162FCBDF812FD5DF1F910895959AE8
:10079000959808956F927F928F929F92AF92BF9299
:1007A000CF92DF92EF92FF920F931F93CF93DF933D
:1007B00087EF85BB2091290130912A01E8E058E0BC
:1007C00060E070E0F4E110E3612E15E7712EB4E013
:1007D0008B2E912CA2E0AA2EB12C43E0C42ED12C5A
:1007E00091E0E92EF12C06E010E0C7E0D0E0A5E0B2
:1007F000B0E084B354BB8F2F8A95F1F743B34770B1
:10080000C3010197F1F7473021F1433089F04430BB
:1008100028F4413099F0423078F412C0453031F07C
:10082000453040F04630A9F4C7010BC0C50109C0EE
:10083000C40107C0C60105C0CD0103C0C80101C085
:10084000CE01062E02C0880F991F0A94E2F7282BCA
:10085000392BEE0F8E2F809585BB550F6D5F7F4F27
:100860006C30710531F62093290130932A01E09311
:100870001F015093200184B3886784BB80912701B6
:10088000909128012817390729F0309328012093E7
:10089000270106C080E090E190932A01809329010E
:1008A000DF91CF911F910F91FF90EF90DF90CF904C
:1008B000BF90AF909F908F907F906F900895CF934F
:1008C000DF93EB012BDF02C0219634DF8881882380
:1008D000D9F7DF91CF910895FC018091A10186178E
:1008E00008F4682F8091A001882341F410821182BE
:1008F0001282138214821582168217828091A001BF
:10090000860F8093A0018091A101861B8093A10195
:10091000862F08950F931F93FC01062F1091A101BC
:100920001123A1F18091A001882379F58181843080
:1009300019F08630C1F416C082818093380183811A
:1009400080933901848180933A01858180933B01B2
:10095000868180933C01878180933D0181E0809373
:10096000210101C0A0DE602F101708F4612F8091D3
:10097000A001860F8093A0018091A101861B809326
:10098000A10190E0882319F401C002C091E0892FF1
:100990001F910F910895FC0180818076803261F46F
:1009A0008181813011F0893039F488E08093A10190
:1009B0001092A0018FEF089580E008951F920F928A
:1009C0000FB60F9211248F939F93AF93BF93EF9322
:1009D000FF9385E182BFEEE3F1E080819181A28106
:1009E000B3810097A105B10539F00197A109B109BB
:1009F00080839183A283B383349681E0EA36F8073B
:100A000061F7FF91EF91BF91AF919F918F910F90FF
:100A10000FBE0F901F901895CF93DF93EC0180913C
:100A20002201E82FF0E0E631F10508F0AAC7ED5EFB
:100A3000FF4F099480912101882321F0813009F032
:100A4000A0C70AC086E862E670E039DF87EC68E696
:100A500070E035DF81E093C786E86CE670E02FDF59
:100A600082E38DC782E0C030D80709F4E4C0C050EB
:100A7000D84009F086C71092220183C7C230D10541
:100A800049F088E0C030D80709F4F0C4219709F094
:100A900078C732C208DE80E861E970E010DF80ECE0
:100AA00062EA70E00CDF84E1809322018EE18093A2
:100AB000250188EC90E0A0E0B0E080936201909383
:100AC0006301A0936401B09365015BC782E0C0300D
:100AD000D80709F44FC088E0C030D80709F4AAC08D
:100AE000219709F04EC7DFDD80912D016AE01CD807
:100AF000682F606386E844DE80912D016AE014D897
:100B0000906387E8692F3CDE88E86AE339DE8091EC
:100B10002E016AE009D8682F606389E831DE809190
:100B20002E016AE001D890638AE8692F29DE8BE8FC
:100B30006AE326DE80912F016AE0F6D7682F6063B2
:100B40008CE81EDE80912F016AE0EED790638DE87D
:100B5000692F16DE8AE08093220188EC90E0A0E005
:100B6000B0E080935E0190935F01A0936001B09329
:100B7000610107C798DD80912D016AE0D5D7682F04
:100B8000606386E8FDDD80912D016AE0CDD790633A
:100B900087E8692FF5DD88E86AE3F2DD80912E01B0
:100BA0006AE0C2D7682F606389E8EADD80912E0190
:100BB0006AE0BAD790638AE8692FE2DD8BE86AE3DE
:100BC000DFDD80912F016AE0AFD7682F60638CE88A
:100BD000D7DD80912F016AE0A7D790638DE8692F58
:100BE000CFDD80EC63EB70E06ADE80E09AECAAE98E
:100BF000BBE380934E0190934F01A0935001B093BB
:100C000051018093520190935301A0935401B093EA
:100C100055018093560190935701A0935801B093CA
:100C2000590180935A0190935B01A0935C01B093AA
:100C30005D010BC338DD86E86BE770E040DE80ECD9
:100C400060E870E03CDE9AC6C230D105D1F1C33015
:100C5000D10538F4209709F4E4C3219709F091C62F
:100C60000FC088E0C030D80709F446C180E1C03029
:100C7000D80709F456C0C050D24009F082C6DCC083
:100C800088EC90E0A0E0B0E080934E0190934F019B
:100C9000A0935001B093510188E592E0A0E0B0E04C
:100CA0008093520190935301A0935401B093550146
:100CB00080912D01873110F48F5F22C010922D0199
:100CC00021C088EC90E0A0E0B0E0809356019093C2
:100CD0005701A0935801B093590188E592E0A0E034
:100CE000B0E080935A0190935B01A0935C01B093B4
:100CF0005D0180912D01882311F0815001C087E1B1
:100D000080932D0180912D016AE00ED7682F6063DA
:100D100086E836DD80912D016AE006D7906387E88A
:100D200077C480914E0190914F01A0915001B091F4
:100D300051010097A105B10549F480912D0187313A
:100D400010F48F5F3FC010922D013EC08091520180
:100D500090915301A0915401B09155010097A105C4
:100D6000B105E9F480912D01873168F48F5F80939C
:100D70002D0184EF91E02CE231E0F9013197F1F798
:100D80000197D9F7BFCF10922D0184EF91E02CE2AB
:100D900031E0F9013197F1F70197D9F7B3CF80919D
:100DA000560190915701A0915801B09159010097B7
:100DB000A105B105B1F480912D01882311F0815076
:100DC00001C087E180932D0180E09AECAAE9BBE3A2
:100DD00080934E0190934F01A0935001B093510125
:100DE00091CF80915A0190915B01A0915C01B091EB
:100DF0005D010097A105B10509F084CF80912D0117
:100E0000882369F0815080932D0184EF91E02CE2DA
:100E100031E0F9013197F1F70197D9F773CF87E105
:100E200080932D0184EF91E02CE231E0F9013197BC
:100E3000F1F70197D9F766CF36DC80912D016AE092
:100E400073D6682F606386E89BDC80912D016AE091
:100E50006BD6906387E8692F93DC88E86AE390DCBF
:100E600080912E016AE060D6682F606389E888DC93
:100E700080912E016AE058D690638AE8692F80DC61
:100E80008BE86AE37DDC80912F016AE04DD6682F04
:100E900060638CE875DC80912F016AE045D6906331
:100EA0008DE8692F6DDC80EC6EEB70E008DD80E092
:100EB0009AECAAE9BBE380934E0190934F01A09373
:100EC0005001B09351018093520190935301A0932C
:100ED0005401B09355018093560190935701A0930C
:100EE0005801B093590180935A0190935B01A093EC
:100EF0005C01B0935D01F9C2D6DB80912D016AE0FF
:100F000013D6682F606386E83BDC80912D016AE090
:100F10000BD6906387E8692F33DC88E86AE330DC1E
:100F200080912E016AE000D6682F606389E828DC92
:100F300080912E016AE0F8D590638AE8692F20DC61
:100F40008BE86AE31DDC80912F016AE0EDD5682F04
:100F500060638CE815DC80912F016AE0E5D5906331
:100F60008DE8692F0DDC83E00AC5C230D105D1F1CF
:100F7000C330D10538F4209709F453C2219709F002
:100F800000C50FC088E0C030D80709F423C180E154
:100F9000C030D80709F456C0C050D24009F0F1C49F
:100FA000DCC088EC90E0A0E0B0E080934E0190932C
:100FB0004F01A0935001B093510188E592E0A0E069
:100FC000B0E08093520190935301A0935401B093E9
:100FD000550180912E018B3310F48F5F22C0109247
:100FE0002E0121C088EC90E0A0E0B0E08093560193
:100FF00090935701A0935801B093590188E592E06E
:10100000A0E0B0E080935A0190935B01A0935C0153
:10101000B0935D0180912E01882311F0815001C0B1
:101020008BE380932E0180912E016AE07DD5682F9D
:10103000606389E8A5DB80912E016AE075D5906335
:101040008AE8E6C280914E0190914F01A091500133
:10105000B09151010097A105B10549F480912E018D
:101060008B3310F48F5F3FC010922E013EC08091F1
:10107000520190915301A0915401B09155010097F4
:10108000A105B105E9F480912E018B3368F48F5FDF
:1010900080932E0184EF91E02CE231E0F901319749
:1010A000F1F70197D9F7BFCF10922E0184EF91E0AD
:1010B0002CE231E0F9013197F1F70197D9F7B3CF7D
:1010C0008091560190915701A0915801B09159011A
:1010D0000097A105B105B1F480912E01882311F08C
:1010E000815001C08BE380932E0180E09AECAAE945
:1010F000BBE380934E0190934F01A0935001B093B6
:10110000510191CF80915A0190915B01A0915C01B6
:10111000B0915D010097A105B10509F084CF8091E0
:101120002E01882369F0815080932E0184EF91E095
:101130002CE231E0F9013197F1F70197D9F773CF3C
:101140008BE380932E0184EF91E02CE231E0F901F2
:101150003197F1F70197D9F766CFA5DA80912D0184
:101160006AE0E2D4682F606386E80ADB80912D0193
:101170006AE0DAD4906387E8692F02DB88E86AE3E3
:10118000FFDA80912E016AE0CFD4682F606389E88E
:10119000F7DA80912E016AE0C7D490638AE8692F5C
:1011A000EFDA8BE86AE3ECDA80912F016AE0BCD4D5
:1011B000682F60638CE8E4DA80912F016AE0B4D490
:1011C00090638DE8692FDCDA80EC6BEC70E077DB04
:1011D00086E0D5C368DA80912D016AE0A5D4682F36
:1011E000606386E8CDDA80912D016AE09DD490633A
:1011F00087E8692FC5DA88E86AE3C2DA80912E01B0
:101200006AE092D4682F606389E8BADA80912E018F
:101210006AE08AD490638AE8692FB2DA8BE86AE3DD
:10122000AFDA80912F016AE07FD4682F60638CE889
:10123000A7DA80912F016AE077D490638DE8692F57
:101240009FDA80EC63EB70E03ADB84E098C3C23055
:10125000D105D1F1C330D10538F4209709F4E1C0AC
:10126000219709F08EC30FC088E0C030D80709F479
:1012700001C180E1C030D80709F448C0C050D24055
:1012800009F07FC3F3C088EC90E0A0E0B0E0809369
:101290004E0190934F01A0935001B093510188E506
:1012A00092E0A0E0B0E08093520190935301A093AC
:1012B0005401B093550180912F018B3310F48F5F4F
:1012C00022C010922F0196C188EC90E0A0E0B0E01F
:1012D0008093560190935701A0935801B093590100
:1012E00088E592E0A0E0B0E080935A0190935B0122
:1012F000A0935C01B0935D0180912F01882311F0D0
:10130000815001C08BE380932F0174C180914E0105
:1013100090914F01A0915001B09151010097A1050A
:10132000B10549F480912F018B3310F48F5F3FC0DA
:1013300010922F013EC08091520190915301A091D3
:101340005401B09155010097A105B105E9F48091D0
:101350002F018B3368F48F5F80932F0184EF91E02E
:101360002CE231E0F9013197F1F70197D9F742C149
:1013700010922F0184EF91E02CE231E0F9013197D6
:10138000F1F70197D9F736C1809156019091570135
:10139000A0915801B09159010097A105B105B1F490
:1013A00080912F01882311F0815001C08BE380933D
:1013B0002F0180E09AECAAE9BBE380934E01909361
:1013C0004F01A0935001B093510114C180915A0173
:1013D00090915B01A0915C01B0915D010097A10526
:1013E000B10509F007C180912F01882369F0815070
:1013F00080932F0184EF91E02CE231E0F9013197E5
:10140000F1F70197D9F7F6C08BE380932F0184EFB2
:1014100091E02CE231E0F9013197F1F70197D9F72A
:10142000E9C080E09AECAAE9BBE380934E01909377
:101430004F01A0935001B0935101809352019093BA
:101440005301A0935401B09355018093560190939A
:101450005701A0935801B093590180935A0190937A
:101460005B01A0935C01B0935D018BC210922201DD
:101470001AD987C218D980912D016AE055D3682FF7
:10148000606386E87DD980912D016AE04DD3906339
:1014900087E8692F75D988E86AE372D980912E01AF
:1014A0006AE042D3682F606389E86AD980912E018F
:1014B0006AE03AD390638AE8692F62D98BE86AE3DD
:1014C0005FD980912F016AE02FD3682F60638CE889
:1014D00057D980912F016AE027D390638DE8692F57
:1014E0004FD980EC6EEB70E0EAD985E048C2C0507D
:1014F000D84019F483E08093220180915E0190919D
:101500005F01A0916001B09161010097A105B10553
:1015100009F037C288EC90E0A0E0B0E080935E0173
:1015200090935F01A0936001B093610120912D0120
:10153000273148F480912E018B33A1F480912F0143
:101540008B3381F41EC0273169F480912E018B33D7
:1015500049F480912F018B3329F410922D011092C0
:101560002E0120C090912E019B3328F480912F01F1
:101570008B3359F414C09B3341F480912F018B338A
:1015800021F42F5F20932D01EACF80912F018B331F
:1015900020F48F5F80932F0107C08B3329F49F5F66
:1015A00090932E0110922F0180912D016AE0BCD200
:1015B000682F606386E8E4D880912D016AE0B4D298
:1015C000906387E8692FDCD888E86AE3D9D88091EE
:1015D0002E016AE0A9D2682F606389E8D1D8809192
:1015E0002E016AE0A1D290638AE8692FC9D88BE8FE
:1015F0006AE3C6D880912F016AE096D2682F6063B3
:101600008CE8BED880912F016AE08ED290638DE87D
:10161000692FB6D8B6C18091620190916301A09103
:101620006401B09165010097A105B10589F488ECCA
:1016300090E0A0E0B0E08093620190936301A093FA
:101640006401B0936501809125018150809325014B
:1016500090912501892F8A508A3598F48BEC60E2AD
:101660008FD8809125016AE05FD2682F60638CEC8F
:1016700087D8809125016AE057D290638DEC692F5D
:101680000CC09A3058F48BEC60E27AD88CEC60E2B3
:1016900077D86091250160638DEC72D88091250127
:1016A000882381F400D886E86BE770E008D980ECE5
:1016B00060E870E004D910922C0110922B0182E0B6
:1016C00080932201C032D10509F497C0C132D105FF
:1016D000B8F4C430D10509F466C0C530D10540F472
:1016E000C130D10509F43DC0229709F039C147C086
:1016F000C830D10509F465C0609709F031C16FC0E9
:1017000081E0C030D80709F4A2C081E0C130D80719
:1017100048F4C034D10509F47EC0C038D10509F0C1
:101720001FC187C084E0C030D80709F49EC088E09C
:10173000C030D80729F0C050D24009F011C1A3C071
:10174000B2D786E86BE770E0BAD880EC60E870E06A
:10175000B6D810922C0110922B0182E080932201C6
:10176000FFC080912B01855761E30AD880912B013E
:1017700090912C01FC01EC5CFE4F21E00DC08091AA
:101780002B01855762E3FCD780912B0190912C01AE
:10179000FC01EC5CFE4F22E02083019690932C012B
:1017A00080932B01DDC080912B01855763E3E8D73F
:1017B00080912B0190912C01FC01EC5CFE4F23E009
:1017C000EBCF80912B01855764E3DAD780912B0111
:1017D00090912C01FC01EC5CFE4F24E0DDCF809168
:1017E0002B01855765E3CCD780912B0190912C017B
:1017F000FC01EC5CFE4F25E0CFCF80912B0185579B
:1018000066E3BED780912B0190912C01FC01EC5C2A
:10181000FE4F26E0C1CF80912B01855767E3B0D7FB
:1018200080912B0190912C01FC01EC5CFE4F27E094
:10183000B3CF80912B01855768E3A2D780912B010C
:1018400090912C01FC01EC5CFE4F28E0A5CF80912B
:101850002B01855769E394D780912B0190912C013E
:10186000FC01EC5CFE4F29E097CF80912B0185575E
:1018700060E386D780912B0190912C01FC01EC5CF8
:10188000FE4F10828ACF90913401809130019817D9
:10189000D9F590913501809131019817A9F5909172
:1018A000360180913201981779F590913701809136
:1018B0003301981749F580EC68ED70E000D888E8AE
:1018C00093E12CE231E0F9013197F1F70197D9F773
:1018D0001092260108C0E82FF0E0EC5CFE4F108269
:1018E0008F5F80932601809126018430A0F3DBD6A0
:1018F00080E86AEE70E0E3D780EC6BEF70E0DFD752
:1019000085E18093220128C080EC63E071E0D7D7A5
:1019100088E893E12CE231E0F9013197F1F7019782
:10192000D9F7C1D686E86BE770E0C9D780EC60E8EC
:1019300070E0C5D782E0809322011092260108C092
:10194000E82FF0E0EC5CFE4F10828F5F8093260161
:10195000809126018430A0F310922C0110922B016B
:1019600080912B0190912C01049759F410922C0135
:1019700010922B0106C0C050D84019F482E0809329
:101980002201DF91CF910895809122018233F1F4F9
:1019900060913801606386E8F3D660913901606335
:1019A00087E8EED660913A01606389E8E9D66091F4
:1019B0003B0160638AE8E4D660913C0160638CE897
:1019C000DFD660913D0160638DE8DAD60895AF926D
:1019D000BF92CF92DF92EF92FF920F931F932EE070
:1019E00088E190E00FB6F894A89581BD0FBE21BDA7
:1019F0008FE387BB18BA88E784BB8FE785BB8BEE84
:101A000081BB12BA7CD38C9A20E04CE251E004C036
:101A1000A895CA010197F1F72150D1F78C987894D5
:101A200084EC99E02CE231E0F9013197F1F701976C
:101A3000D9F789B7816089BF83B7846083BF80E8A5
:101A400082BF42D681D685E2809324011092230181
:101A500010922201EEE3F1E0119211921192119293
:101A600081E0EA36F807C1F789E08093300185E02C
:101A70008093310181E08093320182E080933301D1
:101A800010923401109235011092360110923701F4
:101A90001092210110922D0110922E0110922F010F
:101AA00010922C0110922B0196E0A92EB12CC12C82
:101AB000D12C88E2E82EF12C012D112DA8954ED3C2
:101AC00080913E0190913F01A0914001B091410170
:101AD0000097A105B10591F4A0923E01B0923F019B
:101AE000C0924001D092410110922A011092290126
:101AF00051D68091290190912A018ED780914A0177
:101B000090914B01A0914C01B0914D010097A1051E
:101B1000B105A1F6E0924A01F0924B0100934C010D
:101B200010934D0131DFCACF991B79E004C0991F92
:101B3000961708F0961B881F7A95C9F78095089527
:041B4000F894FFCF47
:101B44005AFF4E5456532E004F46460020203A204A
:101B5400203A2020202020202020004D4F44450002
:101B6400312E54696D652020322E70617373776451
:101B740000496E70757420436F64653A20202020FC
:101B8400200054696D65206C6566743A202020201D
:101B9400202000205345542020686F757200205384
:101BA400455420206D696E7574650020534554209A
:101BB400207365636F6E64004C6F67696E205375A4
:101BC400636365737366756C2000312E537461749E
:101BD400696F6E5F6E756D62657200322E416C7452
:101BE4006572004C6F67696E204661696C6564209C
:0E1BF400202020200011151511040E1F0000E6
:00000001FF
