:1000000051C0E9C16AC069C068C067C066C065C048
:1000100064C063C062C061C060C05FC05EC05DC0DC
:100020005CC05BC05AC004030904120343006F00A4
:100030006D007000750074006500720014035500B7
:1000400053004200670072004C00450044007300FA
:100050000A033200300031003300120110010000A9
:100060000008341268240001010203010902220081
:10007000010100800A0904000001030000000921B9
:100080000101000122160007058103080064060033
:10009000FF0901A101150026FF00750895800900E0
:1000A000B20201C011241FBECFE5D4E0DEBFCDBF38
:1000B00010E0A0E6B0E0ECEEFBE002C005900D928F
:1000C000A43FB107D9F711E0A4EFB0E001C01D9241
:1000D000A334B107E1F742D387C592CF85B78260D9
:1000E00085BF8BB780648BBF8BE4809319018AE551
:1000F0008093180108951F93DC01162F8091180139
:1001000084FF07C08091190198E88927809319011D
:1001100003C08AE580931801912FEAE1F1E08D9107
:10012000819391501916DCF38AE191E0612F4FD150
:100130001C5F109318011F9108951F93CF93DF93B5
:1001400060912901635067FDC7C080912601CCE012
:10015000D0E0C81BD109C35DDE4F809125018D32EF
:1001600009F0A8C0683009F0B5C083EC80930D0198
:100170008AE5809360001092F4008881807639F0DF
:10018000CE01D9D2282F8F3F09F483C089C09A812C
:10019000109216018981882321F41092170122E020
:1001A00071C0853019F490932A016BC0863009F034
:1001B00054C08B81813019F48AE590E01BC08230F5
:1001C00041F48CE690E0909328018093270122E28D
:1001D00040C0833049F58A81882341F486E290E06B
:1001E000909328018093270124E033C0813041F4AB
:1001F0008AE290E0909328018093270122E129C0B0
:10020000823041F48CE390E09093280180932701A1
:1002100024E11FC08330E1F480E590E09093280151
:10022000809327012AE015C0813241F48EE790E0E7
:10023000909328018093270129E00BC0823241F47A
:100240008EE890E0909328018093270126E101C079
:1002500020E080E48093F40023C0883021F421E082
:100260008CE291E011C0893019F490932C0109C0FF
:100270008A3011F421E006C08B3019F48BE48093AE
:10028000190120E086E191E09093280180932701F5
:1002900007C0888187FD2E8180E88093F40006C026
:1002A0008F81882319F48E81821708F0822F809322
:1002B000610010C08091F40087FF0CC0CE01EDD129
:1002C0008F3F21F48EE18093600004C0882311F0F9
:1002D00010926100109229018091600084FF54C047
:1002E000809161008F3F09F44FC0182F893008F0CA
:1002F00018E0811B8093610080910D0198E88927A7
:1003000080930D01112371F18091F40087FF08C0E3
:100310008EE091E0612FA5D1182F893078F522C0A9
:10032000209127013091280186FF0AC0F901912F01
:10033000AEE0B1E084918D9331969150D9F708C029
:10034000D901912FEEE0F1E08D9181939150E1F789
:10035000C90101961150810F911D1F5F90932801D3
:10036000809327018EE091E0612F31D0612F6C5F87
:100370006C3041F08FEF8093610004C08FEF809369
:1003800061006EE16093600094E180B3847131F4A8
:100390009150D9F710922A0110922401DF91CF9148
:1003A0001F910895A82FB92F80E090E041E050EA16
:1003B000609530E009C02D9182279795879510F0C0
:1003C00084279527305EC8F36F5FA8F30895EADFAE
:1003D0008D939D930895CF93CFB7CF93C395849B6F
:1003E000E9F7849B09C0849B07C0849B05C0849B5C
:1003F00003C0849B01C0A3C0DF93C0912601DD2709
:10040000C35DDE4F849B02C0DF91EBCF2F930F9330
:100410001F9300B32FEF04FB20F94F933F9310B3CA
:100420004FEF012704FB21F93BE031C04E7F012F44
:1004300010B3216028C0102F4D7F2260000000B350
:1004400029C04B7F2460012F000010B32BC010B3D4
:10045000477F28602AC04F7E00B320612CC04F7DAB
:1004600010B320622FC04F7B00B3206432C04227FC
:1004700000B349934FEF0000102714FB20F910B38D
:100480001471C9F1297F91F2012704FB21F900B30E
:10049000237F89F2315058F1102714FB22F910B351
:1004A000277E79F2012704FB23F92F7C81F200B328
:1004B000102714FB24F92F7971F200C010B3012723
:1004C00004FB25F92F7359F200C000B3102714FB69
:1004D00026F9223040F200C010B3012704FB27F9AF
:1004E000243028F64F77206810B30000F9CF10E4CD
:1004F0001ABF002719C03B503195C31BD04010E4F0
:100500001ABF0881033CF9F00B34E9F02091240173
:100510001981110F1213EDCF4A81441F093641F1A1
:100520000D3211F0013E29F700932B013F914F91BD
:100530001F910F912F91DF91CAB7C6FD4FCFCF9179
:10054000CFBFCF91189520912B01222379F31091E1
:100550002901112369F534306AF130932901209380
:100560002501109126013BE0311B3093260122C06A
:10057000009129010130E4F40AE54F7049F430910B
:10058000600034FD19C000936000CDE0D1E018C0D8
:100590003091180134FD10C000931801C9E1D1E079
:1005A0000FC02795A8F45150A9F4220F0000F9CFED
:1005B0004AE503C042ED01C0432FC4E1D0E032E080
:1005C00011B31461949A11BB02B320E414E15F9358
:1005D000012756E002BB279520F4515021F4220F49
:1005E000F9CF012756E000003B5A02BBD0F2279515
:1005F00028F4515029F4220F0000F9CF012756E0CA
:10060000279502BB20F4515021F4220FF9CF012786
:1006100056E02991332302BB21F60B7E10912A016B
:10062000110FC651D04002BB11F01093240110E409
:100630001ABF006111B31B7E402F4B7E5F9100C03B
:1006400000C002BB11BB42BB71CF98B3282F2F73E0
:10065000907C292B28BB92B3807C9F73982B92BBF4
:100660000895FC0120910C01261708F4622F909147
:100670000B01992351F480910A0180831182128227
:1006800013821482158216821782960F90930B01A3
:10069000261B20930C01862F0895DF92EF92FF9284
:1006A0000F931F93CF93DF93EC01F0900C01FF2089
:1006B000C1F1062FF61608F40F2D10910B0111232E
:1006C00031F5D8B2D092F600E2B2E092F50085B3EF
:1006D000807885BB80E0B9DF8881B7DF898185FDBF
:1006E000959A95988A818093F8008B818093F90080
:1006F0008C818093FA008D818093FB00D8BAE2BA96
:1007000095B38091F7008F779078892B85BB100F78
:1007100010930B018F2D801B80930C0190E0882398
:1007200009F491E0892FDF91CF911F910F91FF90F4
:10073000EF90DF900895FC0180818076803261F433
:100740008181813011F0893039F488E080930C0187
:1007500010920B018FEF089580E00895BF92CF9221
:10076000DF92EF92FF920F931F932EE088E190E0CB
:100770000FB6F894A89581BD0FBE21BD8FE387BB4E
:1007800018BA8FE784BB15BA80EE81BB12BAA6DC1B
:100790008C9A20E048EB5BE004C0A895CA01019761
:1007A000F1F72150D1F78C9878941092F70087E1F7
:1007B0008093F8008BE38093F9008FE28093FA0036
:1007C00082E68093FB001092FD00109200011092CF
:1007D00001011092020110920301DD24D39403E081
:1007E000C02E12E0B12EA895A8DC809101018F5F88
:1007F00080930101883C38F0109201018091020140
:100800008F5F80930201809102018436D0F01092B4
:1008100002019091000180910301992331F48F5FCF
:1008200080930301803269F40AC0815080930301F0
:10083000882339F4913019F41092000102C0D0924B
:10084000000100B3037000930A0185B3807885BB73
:1008500080E0FBDE0130F9F0013040F01091F7004C
:10086000F090FA00023009F0D2C062C080E0EDDE04
:10087000E091F700F0E095B3DF01AE59BF4F8C91E6
:100880008F779078892B85BB80910301EE57FF4FBE
:10089000E80FF11D39C00091F7001091FB00033102
:1008A00008F486C1802F8851823008F481C10F314D
:1008B00009F47EC1BDEEFB2EF00E84E08F1538F1F9
:1008C000143608F075C11A3010F410E004C0812FFE
:1008D0006AE07ED1182F80E0B8DE95B3E02FF0E01B
:1008E000EE59FF4F80818F779078892B85BB812FC0
:1008F00090E0FC01EE0FFF1FEE0FFF1FE80FF91F46
:10090000EF0DF11DEE53FF4F80819FDE56C176EE55
:10091000F72EF00E84E08F1508F44FC1143608F05E
:1009200047C11A30C0F2812F6AE052D1192FD3CFBC
:100930001F3008F43DC1812F8151823008F438C145
:100940008750823008F434C11F3109F431C1812F3E
:100950008F50823068F480E078DE85B3E12FF0E0DC
:10096000EE59FF4F90819F778078982B95BBC9C037
:100970006DEEE62EE10E84E08E1528F18BE38F15E7
:1009800008F416C189E08F1510F000E004C08F2D27
:100990006AE01ED1082F80E058DE95B3E12FF0E029
:1009A000EE59FF4F80818F779078892B85BB802F00
:1009B00090E0FC01EE0FFF1FEE0FFF1FE80FF91F85
:1009C000EE0DF11D9FCF012F0A51053008F0F5C043
:1009D0008BE38F1508F4ECC080E037DE95B3E12F90
:1009E000F0E0EE59FF4F80818F779078892B85BB9F
:1009F0008F2D6AE0EDD0892F90E0FC01EE0FFF1FF4
:100A0000EE0FFF1FE80FF91FE00FF11D7BCF909154
:100A1000F8008091F90010930401909305018093F0
:100A20000601F0920701212F2150253040F4983122
:100A300008F0BEC09A3008F48FC0892F88C01123F7
:100A400009F4B6C0163009F4B3C0173009F4B0C0C9
:100A50001D3009F4ADC01E3009F4AAC0113109F4EB
:100A6000A7C0123109F4A4C0183109F4A1C019318A
:100A700009F49EC01F3109F49BC0212F2850253056
:100A800030F480910501883108F092C070C0812F48
:100A90008F50823008F051C080E0D7DD95B3E12F50
:100AA000F0E0EE59FF4F80818F779078892B85BBDE
:100AB0009091FA008091FC00981729F0D092FD00E7
:100AC0009093FC0006C08091FD00833011F486E60F
:100AD000BCDD8091FD008130B1F48091FE008F5F1C
:100AE0008093FE00883C68F01092FE008091FF0029
:100AF0008F5F8093FF00883020F01092FF00B0924B
:100B0000FD0086E602CF823009F057C08091FE00DA
:100B10008F5F8093FE00883C08F44FC01092FE0067
:100B20008091FF008F5F8093FF00863008F445C0FE
:100B30001092FF00C092FD0040C0212F23512530AC
:100B400070F4809106018C3398F58A3028F06AE0C1
:100B50003FD0809308010FC0109208010CC0212FD4
:100B60002A51253050F5809106018C3308F56AE052
:100B70002FD0909308012093090180E066DD95B3A2
:100B8000E12FF0E0EE59FF4F80818F779078892B2D
:100B900085BB209109018091080190E0FC01EE0FD6
:100BA000FF1FEE0FFF1FE80FF91FE20FF11DAACE86
:100BB00080E04BDD85B3807885BB8091F7008F3175
:100BC00019F41092F7000FCE8F5F8093F7000BCED1
:100BD000991B79E004C0991F961708F0961B881F8F
:0C0BE0007A95C9F780950895F894FFCF2E
:100BEC005AFF08090A0B0C0D0E0F101112131415D5
:100BFC001617202122232425262740414243444511
:100C0C0046473FA1E1E1E1E1A13F0006050991E181
:100C1C00E19109050600C0C0F8888F818F88F8C063
:100C2C00C0003FA1E1E1E1E1A13F0006050991E12E
:100C3C00E19109050600C0C0F8888F818F88F8C043
:100C4C00C0007E8181817E0082FF8000C2A19189DB
:100C5C00864181899563382422FF204F89898971C7
:100C6C007C929191600101F9050366999199660650
:040C7C008989493EDB
:00000001FF
