:100000004CC0DAC165C064C063C062C061C060C07A
:100010005FC05EC05DC05CC05BC05AC059C058C004
:1000200057C056C055C00403090412036F00620094
:100030006400650076002E00610074001403440023
:10004000610074006100530074006F00720065006D
:10005000120110010000000834126824000101029E
:10006000000109022200010100800A0904000001C8
:10007000030000000921010100012216000705818B
:10008000030800640600FF0901A101150026FF0016
:10009000750895800900B20201C011241FBECFE58A
:1000A000D4E0DEBFCDBF10E0A0E6B0E0EAECF7E0C0
:1000B00002C005900D92A236B107D9F710E0A2E672
:1000C000B0E001C01D92AD39B107E1F74CD37BC35D
:1000D00097CF85B7826085BF8BB780648BBF8BE479
:1000E000809373008AE58093720008951F93DC016A
:1000F000162F8091720084FF07C08091730098E8EA
:1001000089278093730003C08AE580937200912F42
:10011000E4E7F0E08D91819391501916DCF384E7C8
:1001200090E0612F45D11C5F109372001F910895DC
:100130001F93CF93DF9360918300635067FDBDC031
:1001400080918000CCE0D0E0C81BD109C957DF4FB7
:1001500080917F008D3209F09EC0683009F0ABC0FD
:1001600083EC809367008AE58093600010926200C0
:100170008881807639F0CE01D0D2282F8F3F09F4C4
:1001800079C07FC09A81109270008981882321F400
:100190001092710022E067C0853019F490938400BA
:1001A00061C0863009F04AC08B81813019F480E546
:1001B00090E01BC0823041F482E690E09093820090
:1001C0008093810022E236C08330F9F48A8188234B
:1001D00041F486E290E0909382008093810024E0D5
:1001E00029C0813041F48AE290E0909382008093AC
:1001F000810022E11FC08230E1F48CE390E0909313
:1002000082008093810024E115C0813241F484E7AB
:1002100090E0909382008093810029E00BC08232AD
:1002200041F484E890E0909382008093810026E17D
:1002300001C020E080E48093620023C0883021F474
:1002400021E086E890E011C0893019F4909386008F
:1002500009C08A3011F421E006C08B3019F48BE418
:100260008093730020E080E790E090938200809379
:10027000810007C0888187FD2E8180E8809362001D
:1002800006C08F81882319F48E81821708F0822F8F
:100290008093610010C08091620087FF0CC0CE0186
:1002A000EED18F3F21F48EE18093600004C088235B
:1002B00011F010926100109283008091600084FF21
:1002C00054C0809161008F3F09F44FC0182F8930CE
:1002D00008F018E0811B809361008091670098E826
:1002E000892780936700112371F18091620087FF55
:1002F00008C088E690E0612FA6D1182F893078F5E4
:1003000022C0209181003091820086FF0AC0912F87
:10031000F901A8E6B0E084918D9331969150D9F718
:1003200008C0912FD901E8E6F0E08D9181939150BA
:10033000E1F7C90101961150810F911D1F5F909344
:1003400082008093810088E690E0612F31D0612F98
:100350006C5F6C3041F08FEF8093610004C08FEFD1
:10036000809361006EE16093600094E180B38471DA
:1003700031F49150D9F71092840010927E00DF91F1
:10038000CF911F910895A82FB92F80E090E041E010
:1003900050EA609530E009C02D91822797958795A6
:1003A00010F084279527305EC8F36F5FA8F3089597
:1003B000EADF8D939D930895CF93CFB7CF93C395E5
:1003C000849BE9F7849B09C0849B07C0849B05C07C
:1003D000849B03C0849B01C0A3C0DF93C0918000B5
:1003E000DD27C957DF4F849B02C0DF91EBCF2F93EE
:1003F0000F931F9300B32FEF04FB20F94F933F930C
:1004000010B34FEF012704FB21F93BE031C04E7FD1
:10041000012F10B3216028C0102F4D7F22600000F3
:1004200000B329C04B7F2460012F000010B32BC004
:1004300010B3477F28602AC04F7E00B320612CC0D4
:100440004F7D10B320622FC04F7B00B3206432C0B9
:10045000422700B349934FEF0000102714FB20F907
:1004600010B31471C9F1297F91F2012704FB21F91E
:1004700000B3237F89F2315058F1102714FB22F981
:1004800010B3277E79F2012704FB23F92F7C81F238
:1004900000B3102714FB24F92F7971F200C010B3B8
:1004A000012704FB25F92F7359F200C000B3102770
:1004B00014FB26F9223040F200C010B3012704FBE0
:1004C00027F9243028F64F77206810B30000F9CFC1
:1004D00010E41ABF002719C03B503195C31BD04010
:1004E00010E41ABF0881033CF9F00B34E9F02091C5
:1004F0007E001981110F1213EDCF4A81441F093676
:1005000041F10D3211F0013E29F7009385003F9132
:100510004F911F910F912F91DF91CAB7C6FD4FCF19
:10052000CF91CFBFCF91189520918500222379F3E9
:1005300010918300112369F534306AF13093830000
:1005400020937F00109180003BE0311B30938000AE
:1005500022C0009183000130E4F40AE54F7049F4B1
:100560003091600034FD19C000936000C7E6D0E010
:1005700018C03091720034FD10C000937200C3E7C0
:10058000D0E00FC02795A8F45150A9F4220F000025
:10059000F9CF4AE503C042ED01C0432FC4E1D0E0EA
:1005A00032E011B31461949A11BB02B320E414E158
:1005B0005F93012756E002BB279520F4515021F4A8
:1005C000220FF9CF012756E000003B5A02BBD0F2C0
:1005D000279528F4515029F4220F0000F9CF012764
:1005E00056E0279502BB20F4515021F4220FF9CF99
:1005F000012756E02991332302BB21F60B7E10918F
:100600008400110FC651D04002BB11F010937E0040
:1006100010E41ABF006111B31B7E402F4B7E5F9127
:1006200000C000C002BB11BB42BB71CF90BD89B9F5
:1006300088E18AB986E880BD089501C0A8955D9BD0
:10064000FDCF8CB90895FC0120916600261708F4AF
:10065000622F90916500992351F48091630080830B
:100660001182128213821482158216821782960FCB
:1006700090936500261B20936600862F0895FC0149
:1006800020916600222309F445C0261708F4622F42
:10069000909165009923A1F58081803289F582814E
:1006A0008330C1F0843028F4813071F0823078F4E6
:1006B00007C08530A9F0853080F08630D9F413C0AA
:1006C00082E080BD80E711C080BD87E30EC010BC12
:1006D0008BE90BC010BC8DE408C010BC86E205C0DD
:1006E00010BC82E102C010BC8CE089B988E18AB9F3
:1006F00086E880BD818101C0A8955D9BFDCF8CB946
:10070000960F90936500822F861B8093660090E081
:10071000882309F491E0892F0895FC018081807677
:100720008032C1F48181813061F48091640088233A
:1007300089F088E080936600109265001092640052
:1007400007C0893039F488E0809366001092650014
:100750008FEF089580E0089502C0A895E9DC5F9BC3
:10076000FCCF8CB108951F932EE088E190E00FB686
:10077000F894A89581BD0FBE21BD8FE387BB18BA41
:1007800014BA15BA8AEE81BB12BAA3DC8C9A20E0A7
:1007900048EB5BE004C0A895CA010197F1F721502E
:1007A000D1F78C98789410BC8DE489B988E18AB926
:1007B00086E880BD11E0A895BBDCCEDF80936300A6
:0A07C00010936400F8CFF894FFCF07
:0207CA005AFFD4
:00000001FF
