:100000004CC0DAC165C064C063C062C061C060C07A
:100010005FC05EC05DC05CC05BC05AC059C058C004
:1000200057C056C055C00403090412036F00620094
:100030006400650076002E00610074001403440023
:10004000610074006100530074006F00720065006D
:10005000120110010000000834126824000101029E
:10006000000109022200010100800A0904000001C8
:10007000030000000921010100012216000705818B
:10008000030800640600FF0901A101150026FF0016
:10009000750895800900B20201C011241FBECFE58A
:1000A000D4E0DEBFCDBF10E0A0E6B0E0EAEFFDE0B7
:1000B00002C005900D92A636B107D9F710E0A6E66A
:1000C000B0E001C01D92A83BB107E1F753D493C63D
:1000D00097CF85B7826085BF8BB780648BBF8BE479
:1000E00080938C008AE580938B0008951F93DC0138
:1000F000162F80918B0084FF07C080918C0098E8B8
:10010000892780938C0003C08AE580938B00912F10
:10011000EDE8F0E08D91819391501916DCF38DE8B4
:1001200090E0612F45D11C5F10938B001F910895C3
:100130001F93CF93DF9360919C00635067FDBDC018
:1001400080919900CCE0D0E0C81BD109C056DF4FA8
:10015000809198008D3209F09EC0683009F0ABC0E4
:1001600083EC809380008AE58093600010926600A3
:100170008881807639F0CE01EAD3282F8F3F09F4A9
:1001800079C07FC09A81109289008981882321F4E7
:1001900010928A0022E067C0853019F490939D0088
:1001A00061C0863009F04AC08B81813019F480E546
:1001B00090E01BC0823041F482E690E090939B0077
:1001C00080939A0022E236C08330F9F48A81882332
:1001D00041F486E290E090939B0080939A0024E0A3
:1001E00029C0813041F48AE290E090939B00809393
:1001F0009A0022E11FC08230E1F48CE390E09093FA
:100200009B0080939A0024E115C0813241F484E779
:1002100090E090939B0080939A0029E00BC082327B
:1002200041F484E890E090939B0080939A0026E14B
:1002300001C020E080E48093660023C0883021F470
:1002400021E08FE990E011C0893019F490939F006C
:1002500009C08A3011F421E006C08B3019F48BE418
:1002600080938C0020E089E890E090939B0080933D
:100270009A0007C0888187FD2E8180E88093660000
:1002800006C08F81882319F48E81821708F0822F8F
:100290008093610010C08091660087FF0CC0CE0182
:1002A0003DD38F3F21F48EE18093600004C088230A
:1002B00011F01092610010929C008091600084FF08
:1002C00054C0809161008F3F09F44FC0182F8930CE
:1002D00008F018E0811B809361008091800098E80D
:1002E000892780938000112371F18091660087FF38
:1002F00008C081E890E0612FF1D2182F893078F59D
:1003000022C020919A0030919B0086FF0AC0912F55
:10031000F901A1E8B0E084918D9331969150D9F71D
:1003200008C0912FD901E1E8F0E08D9181939150BF
:10033000E1F7C90101961150810F911D1F5F909344
:100340009B0080939A0081E890E0612F31D0612F6B
:100350006C5F6C3041F08FEF8093610004C08FEFD1
:10036000809361006EE16093600094E180B38471DA
:1003700031F49150D9F710929D0010929700DF91BF
:10038000CF911F910895A82FB92F80E090E041E010
:1003900050EA609530E009C02D91822797958795A6
:1003A00010F084279527305EC8F36F5FA8F3089597
:1003B000EADF8D939D930895CF93CFB7CF93C395E5
:1003C000849BE9F7849B09C0849B07C0849B05C07C
:1003D000849B03C0849B01C0A3C0DF93C09199009C
:1003E000DD27C056DF4F849B02C0DF91EBCF2F93F8
:1003F0000F931F9300B32FEF04FB20F94F933F930C
:1004000010B34FEF012704FB21F93BE031C04E7FD1
:10041000012F10B3216028C0102F4D7F22600000F3
:1004200000B329C04B7F2460012F000010B32BC004
:1004300010B3477F28602AC04F7E00B320612CC0D4
:100440004F7D10B320622FC04F7B00B3206432C0B9
:10045000422700B349934FEF0000102714FB20F907
:1004600010B31471C9F1297F91F2012704FB21F91E
:1004700000B3237F89F2315058F1102714FB22F981
:1004800010B3277E79F2012704FB23F92F7C81F238
:1004900000B3102714FB24F92F7971F200C010B3B8
:1004A000012704FB25F92F7359F200C000B3102770
:1004B00014FB26F9223040F200C010B3012704FBE0
:1004C00027F9243028F64F77206810B30000F9CFC1
:1004D00010E41ABF002719C03B503195C31BD04010
:1004E00010E41ABF0881033CF9F00B34E9F02091C5
:1004F00097001981110F1213EDCF4A81441F09365D
:1005000041F10D3211F0013E29F700939E003F9119
:100510004F911F910F912F91DF91CAB7C6FD4FCF19
:10052000CF91CFBFCF91189520919E00222379F3D0
:1005300010919C00112369F534306AF130939C00CE
:1005400020939800109199003BE0311B3093990063
:1005500022C000919C000130E4F40AE54F7049F498
:100560003091600034FD19C000936000C0E8D0E015
:1005700018C030918B0034FD10C000938B00CCE884
:10058000D0E00FC02795A8F45150A9F4220F000025
:10059000F9CF4AE503C042ED01C0432FC4E1D0E0EA
:1005A00032E011B31461949A11BB02B320E414E158
:1005B0005F93012756E002BB279520F4515021F4A8
:1005C000220FF9CF012756E000003B5A02BBD0F2C0
:1005D000279528F4515029F4220F0000F9CF012764
:1005E00056E0279502BB20F4515021F4220FF9CF99
:1005F000012756E02991332302BB21F60B7E10918F
:100600009D00110FC651D04002BB11F0109397000E
:1006100010E41ABF006111B31B7E402F4B7E5F9127
:1006200000C000C002BB11BB42BB71CF92B39C7F24
:10063000982B660F962B92BB28EB3BE0C9010197E4
:10064000F1F7939AC9010197F1F788B3942F9F733B
:10065000807C982B98BB82B3407C8F73842B82BBA9
:10066000C9010197F1F79398C9010197F1F708952E
:1006700080E060E041E0DADF0895942F482F440FD6
:10068000440F4860660F462B492B80E060E0CEDFC8
:1006900008950F931F9388EC9FEA0197F1F780E08C
:1006A00060E040E3C3DF88E99AE30197F1F780E077
:1006B00060E040E3BBDF08EB1BE0C8010197F1F706
:1006C00080E060E040E3B2DFC8010197F1F780E02D
:1006D00060E04CE3ABDF80E060E048E0A7DFC8DF2C
:1006E00080E060E046E0A2DF81E060E040E0C5DF5E
:1006F0001F910F910895482F440F440F440F4061FC
:10070000660F660F462B80E060E090DF0895109240
:10071000670010926800109269008CE180936A0073
:100720009FE190936B0010926C0010926D001092FC
:100730006E0030E130936F002CE02093700086E073
:100740008093710090937200909373008093740073
:10075000209375003093760088E180937700809332
:1007600078008093790090937A0090937B001092A8
:100770007C0010927D0010927E000895482F406802
:1007800080E060E053DF0895482F406480E060E03F
:100790004DDF0895482F81E060E048DF0895482F3D
:1007A00081E061E043DF0895EF92FF921F93CF93C2
:1007B000DF93ADDFC7E6D0E010E088EBE82E8BE0FA
:1007C000F82E812FE1DF8991E5DFC7010197F1F76D
:1007D0001F5F1731B1F7DF91CF911F91FF90EF901D
:1007E0000895959A9598089583B3807708956F92A8
:1007F0007F928F929F92AF92BF92CF92DF92EF92B1
:10080000FF920F931F93CF93DF9320917E0030913F
:100810007F00E2E6F0E060E070E0A0E6BAEE07E01C
:10082000602E712C16E0812E912C55E0A52EB12C56
:1008300043E0C42ED12C94E0E92EF12C02E010E02C
:10084000C1E0D0E0808185BB43B34077403749F1B8
:10085000CD010197F1F7403611F4CE0117C04035B4
:1008600011F4C80113C0403311F4C7010FC0403464
:1008700011F4C6010BC0403211F4C50107C040316C
:1008800011F4C40103C0442349F4C301062E02C07D
:10089000880F991F0A94E2F7282B392BCD01019775
:1008A000F1F7CD010197F1F731966D5F7F4F80E051
:1008B000E636F80739F630937F0020937E00DF910B
:1008C000CF911F910F91FF90EF90DF90CF90BF904D
:1008D000AF909F908F907F906F900895FC018091D2
:1008E000B700861708F4682F8091B600882351F46A
:1008F00083B38077808311821282138214821582DF
:10090000168217828091B600860F8093B600809180
:10091000B700861B8093B700862F08959091B7008B
:10092000992391F08091B600882369F4961708F412
:10093000692F6093B600892F861B8093B70090E0E3
:10094000882319F401C0089591E0892F0895FC01CE
:1009500080818076803261F48181813011F089302C
:1009600039F488E08093B7001092B6008FEF0895B5
:1009700080E00895CF93DF932EE088E190E00FB6FA
:10098000F894A89581BD0FBE21BD8FE387BB18BA2F
:100990008FE084BB8FE785BB8BEE81BB12BA99DBFE
:1009A0008C9A20E04CE251E004C0A895CA0101975E
:1009B000F1F72150D1F78C98789484EC99E02CE2EF
:1009C00031E0F9013197F1F70197D9F7EDDE61DEFA
:1009D000CCE2D1E010927F0010927E00A895A8DBB7
:1009E00088EE93E0FE013197F1F70197D9F7FFDE2A
:1009F00080917E0090917F008034910509F438C188
:100A00008134910508F03CC08730910509F4D6C0C7
:100A100088309105B0F48330910509F4ABC084307F
:100A2000910538F48130910509F480C0029791F660
:100A300089C08530910509F4A9C0069708F0B2C0B5
:100A40008DC08032910509F4DAC08132910560F4DD
:100A50008031910509F4C7C08831910509F4DBC0E4
:100A6000089709F0B7CFB3C08033910509F4EBC004
:100A70008833910509F4F3C0889709F0ABCFD7C04C
:100A800024E08030920709F450C124E081309207BD
:100A900030F521E08034920709F41AC121E0813455
:100AA000920770F4803C910509F406C121E0803082
:100AB000920709F4F5C08038910509F08BCFE4C0A6
:100AC00021E0803C920709F41BC122E080309207AC
:100AD00009F41FC18058914009F07CCF05C128E07E
:100AE0008230920709F47AC128E08330920778F4C3
:100AF00028E08030920709F424C128E08130920771
:100B000008F058C18050964009F064CF26C12CE00F
:100B10008030920709F439C12EE08030920709F441
:100B200040C180509A4009F055CF23C181E060E078
:100B300041E37CDD88EE93E0FE013197F1F7019708
:100B4000D9F748CF81E060E042E370DD88EE93E0C2
:100B5000FE013197F1F70197D9F73CCF81E060E0D2
:100B600043E364DD88EE93E0FE013197F1F70197EE
:100B7000D9F730CF81E060E041E458DD88EE93E0C2
:100B8000FE013197F1F70197D9F724CF81E060E0BA
:100B900042E44CDD88EE93E0FE013197F1F70197D6
:100BA000D9F718CF81E060E043E440DD88EE93E0C0
:100BB000FE013197F1F70197D9F70CCF59DD88EE97
:100BC00093E0FE013197F1F70197D9F703CF81E068
:100BD00060E044E32BDD88EE93E0FE013197F1F70E
:100BE0000197D9F7F7CE81E060E045E31FDD88EE9D
:100BF00093E0FE013197F1F70197D9F7EBCE81E051
:100C000060E046E313DD88EE93E0FE013197F1F7F3
:100C10000197D9F7DFCE81E060E044E407DD88EE9C
:100C200093E0FE013197F1F70197D9F7D3CE81E038
:100C300060E045E4FBDC88EE93E0FE013197F1F7DC
:100C40000197D9F7C7CE81E060E046E4EFDC88EE9B
:100C500093E0FE013197F1F70197D9F7BBCE08DD9C
:100C600088EE93E0FE013197F1F70197D9F7B2CE04
:100C700081E060E047E3DADC88EE93E0FE01319743
:100C8000F1F70197D9F7A6CE81E060E048E3CEDC2A
:100C900088EE93E0FE013197F1F70197D9F79ACEEC
:100CA00081E060E049E3C2DC88EE93E0FE01319729
:100CB000F1F70197D9F78ECE81E060E047E4B6DC2A
:100CC00088EE93E0FE013197F1F70197D9F782CED4
:100CD00081E060E048E4AADC88EE93E0FE01319711
:100CE000F1F70197D9F776CE81E060E049E49EDC28
:100CF00088EE93E0FE013197F1F70197D9F76ACEBC
:100D0000B7DC88EE93E0FE013197F1F70197D9F750
:100D100061CE81E060E04AE289DC88EE93E0FE018A
:100D20003197F1F70197D9F755CE81E060E040E3C4
:100D30007DDC88EE93E0FE013197F1F70197D9F75A
:100D400049CE81E060E043E271DC88EE93E0FE0191
:100D50003197F1F70197D9F73DCE81E060E04AE4A1
:100D600065DC88EE93E0FE013197F1F70197D9F742
:100D700031CE81E060E04BE459DC88EE93E0FE0187
:100D80003197F1F70197D9F725CE81E060E04DE486
:100D90004DDC88EE93E0FE013197F1F70197D9F72A
:100DA00019CE66DC88EE93E0FE013197F1F70197EA
:100DB000D9F710CE81E060E04FE438DC81E060E0FC
:100DC0004EE634DC81E060E045E630DC88EE93E01E
:100DD000FE013197F1F70197D9F7FCCD81E060E092
:100DE00044E524DC81E060E047E720DC81E060E06E
:0A0DF0004FE61CDCEFCDF894FFCFB6
:060DFA005AFFFDFBF7FEAD
:00000001FF
