:100000004CC0DAC165C064C063C062C061C060C07A
:100010005FC092C45DC05CC05BC05AC059C058C0CC
:1000200057C056C055C00403090412036F00620094
:100030006400650076002E00610074001403440023
:10004000610074006100530074006F00720065006D
:10005000120110010000000834126824000101029E
:10006000000109022200010100800A0904000001C8
:10007000030000000921010100012216000705818B
:10008000030800640600FF0901A101150026FF0016
:10009000750895800900B20201C011241FBECFE58A
:1000A000D4E0DEBFCDBF10E0A0E6B0E0EEEBFFE0B5
:1000B00002C005900D92AE3EB107D9F711E0AEEE49
:1000C000B0E001C01D92A834B107E1F78BD675C727
:1000D00097CF85B7826085BF8BB780648BBF8BE479
:1000E0008093FD008AE58093FC0008951F93DC0156
:1000F000162F8091FC0084FF07C08091FD0098E8D6
:1001000089278093FD0003C08AE58093FC00912F2E
:10011000EEEFF0E08D91819391501916DCF38EEFA4
:1001200090E0612F45D11C5F1093FC001F91089552
:100130001F93CF93DF9360910D01635067FDBDC0A6
:1001400080910A01CCE0D0E0C81BD109CF5EDE4F20
:10015000809109018D3209F09EC0683009F0ABC072
:1001600083EC8093F1008AE5809360001092EE00AA
:100170008881807639F0CE01CCD3282F8F3F09F4C7
:1001800079C07FC09A811092FA008981882321F476
:100190001092FB0022E067C0853019F490930E01A5
:1001A00061C0863009F04AC08B81813019F480E546
:1001B00090E01BC0823041F482E690E090930C0105
:1001C00080930B0122E236C08330F9F48A818823C0
:1001D00041F486E290E090930C0180930B0124E0BF
:1001E00029C0813041F48AE290E090930C01809321
:1001F0000B0122E11FC08230E1F48CE390E0909388
:100200000C0180930B0124E115C0813241F484E795
:1002100090E090930C0180930B0129E00BC0823297
:1002200041F484E890E090930C0180930B0126E167
:1002300001C020E080E48093EE0023C0883021F4E8
:1002400021E080E191E011C0893019F49093100110
:1002500009C08A3011F421E006C08B3019F48BE418
:100260008093FD0020E08AEF90E090930C01809352
:100270000B0107C0888187FD2E8180E88093EE0006
:1002800006C08F81882319F48E81821708F0822F8F
:100290008093610010C08091EE0087FF0CC0CE01FA
:1002A000FED28F3F21F48EE18093600004C088234A
:1002B00011F01092610010920D018091600084FF96
:1002C00054C0809161008F3F09F44FC0182F8930CE
:1002D00008F018E0811B809361008091F10098E89C
:1002E00089278093F100112371F18091EE0087FF3F
:1002F00008C082EF90E0612FB8D2182F893078F5CE
:1003000022C020910B0130910C0186FF0AC0912F71
:10031000F901A2EFB0E084918D9331969150D9F715
:1003200008C0912FD901E2EFF0E08D9181939150B7
:10033000E1F7C90101961150810F911D1F5F909344
:100340000C0180930B0182EF90E0612F31D0612F7F
:100350006C5F6C3041F08FEF8093610004C08FEFD1
:10036000809361006EE16093600094E180B38471DA
:1003700031F49150D9F710920E0110920801DF91DB
:10038000CF911F910895A82FB92F80E090E041E010
:1003900050EA609530E009C02D91822797958795A6
:1003A00010F084279527305EC8F36F5FA8F3089597
:1003B000EADF8D939D930895CF93CFB7CF93C395E5
:1003C000849BE9F7849B09C0849B07C0849B05C07C
:1003D000849B03C0849B01C0A3C0DF93C0910A012A
:1003E000DD27CF5EDE4F849B02C0DF91EBCF2F93E2
:1003F0000F931F9300B32FEF04FB20F94F933F930C
:1004000010B34FEF012704FB21F93BE031C04E7FD1
:10041000012F10B3216028C0102F4D7F22600000F3
:1004200000B329C04B7F2460012F000010B32BC004
:1004300010B3477F28602AC04F7E00B320612CC0D4
:100440004F7D10B320622FC04F7B00B3206432C0B9
:10045000422700B349934FEF0000102714FB20F907
:1004600010B31471C9F1297F91F2012704FB21F91E
:1004700000B3237F89F2315058F1102714FB22F981
:1004800010B3277E79F2012704FB23F92F7C81F238
:1004900000B3102714FB24F92F7971F200C010B3B8
:1004A000012704FB25F92F7359F200C000B3102770
:1004B00014FB26F9223040F200C010B3012704FBE0
:1004C00027F9243028F64F77206810B30000F9CFC1
:1004D00010E41ABF002719C03B503195C31BD04010
:1004E00010E41ABF0881033CF9F00B34E9F02091C5
:1004F00008011981110F1213EDCF4A81441F0936EB
:1005000041F10D3211F0013E29F700930F013F91A7
:100510004F911F910F912F91DF91CAB7C6FD4FCF19
:10052000CF91CFBFCF91189520910F01222379F35E
:1005300010910D01112369F534306AF130930D01EA
:100540002093090110910A013BE0311B30930A010D
:1005500022C000910D010130E4F40AE54F7049F426
:100560003091600034FD19C000936000C1EFD0E00D
:1005700018C03091FC0034FD10C00093FC00CDEF9A
:10058000D0E00FC02795A8F45150A9F4220F000025
:10059000F9CF4AE503C042ED01C0432FC4E1D0E0EA
:1005A00032E011B31461949A11BB02B320E414E158
:1005B0005F93012756E002BB279520F4515021F4A8
:1005C000220FF9CF012756E000003B5A02BBD0F2C0
:1005D000279528F4515029F4220F0000F9CF012764
:1005E00056E0279502BB20F4515021F4220FF9CF99
:1005F000012756E02991332302BB21F60B7E10918F
:100600000E01110FC651D04002BB11F0109308012A
:1006100010E41ABF006111B31B7E402F4B7E5F9127
:1006200000C000C002BB11BB42BB71CF919A909831
:10063000939A84E1982F9A95F1F7BB98C39A8A957B
:10064000F1F786B39398BB9A887008951F93182F7B
:10065000EDDF8823E9F7909824E1822F8A95F1F75E
:100660009198822F8A95F1F788B3912F92959F7078
:10067000807F982B98BB822F8A95F1F7939A822FCF
:100680008A95F1F79398822F8A95F1F788B31F70B6
:10069000807F812B88BB822F8A95F1F7939A822FD6
:1006A0008A95F1F793982A95F1F71F9108950F9382
:1006B0001F938CE291E02CE231E0F9013197F1F7E0
:1006C0000197D9F783E3C2DF82E3C0DF88E2BEDFB0
:1006D00008EB1BE0C8010197F1F78CE0B7DFC80118
:1006E0000197F1F781E0B2DFC8010197F1F786E0E9
:1006F000ADDF00E315E7C8010197F1F780E8A6DF59
:10070000C8010197F1F71F910F9108951F93182FBA
:100710008DDF8823E9F7909A24E1822F8A95F1F7FB
:100720009198822F8A95F1F788B3912F92959F70B7
:10073000807F982B98BB822F8A95F1F7939A822F0E
:100740008A95F1F79398822F8A95F1F788B31F70F5
:10075000807F812B88BB822F8A95F1F7939A822F15
:100760008A95F1F793982A95F1F71F910895CF9301
:10077000DF93EB016BDF02C02196C8DF88818823FD
:10078000D9F7DF91CF9108951F93162F5FDF812F47
:10079000BDDF1F910895CF92DF92EF92FF920F93EA
:1007A0001F93C82E7A018B0187E0D82EDC0C8D2D8B
:1007B0004DDFC801B7012AE030E040E050E0C0D38F
:1007C000862F805DA3DFC801B7012AE030E040E05A
:1007D00050E0B6D3C901DA017C018D01E114F104C6
:1007E0000105110519F0DA94DC1409F71F910F9136
:1007F000FF90EF90DF90CF900895EF92FF920F93CC
:100800001F93E82EF62E60E3BFDF8E2D8F5F68E723
:10081000BBDF8F2D82958F7006ED10E0F801E80F99
:10082000F11D8E2D8E5F6081AFDF8FE0F8220F0DFE
:10083000111D8E2D8D5FF8016081A6DF1F910F9134
:10084000FF90EF900895CF93DF93880F880F880F64
:100850008064FCDEC6EED0E0899158DF80E0CE3EB9
:10086000D807D1F7DF91CF910895FC018091F00076
:10087000861708F4682F9091EF00992341F41082B5
:100880001182128213821482158216821782960FA9
:100890009093EF00861B8093F000862F0895FC0153
:1008A0002091F000222391F1261708F4622F9091F5
:1008B000EF00992309F5818185FD1EC0813011F07B
:1008C000823099F482818093320183818093330155
:1008D0008481809334018581809335018681809362
:1008E000360187818093370107C0833029F0843037
:1008F00019F4828180933801960F9093EF00822F34
:10090000861B8093F00090E0882309F491E0892F02
:100910000895FC0180818076803261F4818181308C
:1009200011F0893039F488E08093F0001092EF00E4
:100930008FEF089580E008951F920F920FB60F92E7
:1009400011248F939F93EF93FF9386E182BFE9E297
:10095000F1E080819181009719F001979183808364
:10096000329681E0E133F807A1F7FF91EF919F9173
:100970008F910F900FBE0F901F90189583B38770C3
:1009800080933101873011F49FEF20C080958770EC
:1009900080933101813011F431E009C0823011F4CB
:1009A00032E005C0843011F433E001C03FEF8091A4
:1009B000280123E0829FC0011124932F980F9B30C0
:1009C00011F490E003C09C3009F49BE085B3886784
:1009D00085BB80912801833021F410922801AB98C7
:1009E00014C0882329F481E080932801AC980DC0BD
:1009F000813029F482E080932801AD9806C08230CE
:100A000021F483E080932801AE98892F0895682F00
:100A100080914201882321F46A3009F027C113C173
:100A2000813009F090C06130A1F410923B01109226
:100A30003C0110923D0110923E0110923F01109234
:100A4000400180E863E770E092DE109241018AE0A5
:100A5000FFC0623021F580E864E870E088DE6091D4
:100A60003B01606380E890DE60913C01606381E857
:100A70008BDE60913D01606383E886DE60913E011C
:100A8000606384E881DE60913F01606386E87CDE1C
:100A900060914001606387E877DE84E1D9C063300C
:100AA000B1F480E865E970E062DE809138016AE0C7
:100AB0003BD2682F606389E867DE809138016AE085
:100AC00033D290638AE8692F5FDE8EE1C1C0643063
:100AD00051F480E866EA70E04ADE10922701109235
:100AE000390188E2B5C0653021F580E864E870E03E
:100AF0003EDE60913201606380E846DE6091330142
:100B0000606381E841DE60913401606383E83CDE2C
:100B100060913501606384E837DE6091360160637F
:100B200086E832DE60913701606387E82DDE82E37C
:100B30008FC06B3009F09AC080E867EB70E017DE79
:100B40001092420108958A3009F075C080914101E8
:100B5000882341F4633008F089C060933B016063EF
:100B600080E832C0813099F480913B01823021F4D9
:100B7000643008F07BC006C0823008F077C06A306D
:100B800008F074C060933C01606381E81DC082304E
:100B900041F4663008F06AC060933D01606383E809
:100BA00013C0833041F46A3008F060C060933E01A6
:100BB000606384E809C0843071F4663008F056C080
:100BC00060933F01606386E8DFDD809141018F5FC4
:100BD000809341010895853059F56A3008F046C088
:100BE00060934001606387E8CFDD809141018F5FB2
:100BF0008093410180913B013AE0839FC001112421
:100C000020913C01280F2093440180913D01839F56
:100C1000C001112420913E01280F209345018091AD
:100C20003F012BE0829FC00111248093460108956B
:100C30008630E1F406C0843121F08E3111F0883223
:100C400051F46B3099F480E862E670E090DD81E069
:100C5000809342010895823349F46B3039F480E87F
:100C600062E670E084DD81E0809342010895809126
:100C70004201843109F04EC0809146018B33B8F0B7
:100C800010924601809145018B3368F01092450126
:100C900080914401873118F0109244010BC08F5F9E
:100CA0008093440107C08F5F8093450103C08F5F2D
:100CB00080934601809144016AE036D1682F6063D9
:100CC00080E862DD809144016AE02ED1906381E882
:100CD000692F5ADD809145016AE026D1682F606353
:100CE00083E852DD809145016AE01ED1906384E87B
:100CF000692F4ADD809146016AE016D1682F606352
:100D000086E842DD809146016AE00ED1906387E873
:100D1000692F3ADD0895809142018E3181F48091EE
:100D200038016AE001D1682F606389E82DDD809188
:100D300038016AE0F9D090638AE8692F25DD0895CB
:100D400080914201883251F580912701806860E2EC
:100D50001BDD8091390190912701882339F0992377
:100D600019F4109239010BC0915007C09F3020F048
:100D700081E08093390103C09F5F909327018091A8
:100D8000390190912701882329F0892F806860E03C
:100D9000FBDC0895892F806860E0F6DC089580917F
:100DA00042018233F1F460913201606380E8ECDC4F
:100DB00060913301606381E8E7DC60913401606336
:100DC00083E8E2DC60913501606384E8DDDC6091FA
:100DD0003601606386E8D8DC60913701606387E89C
:100DE000D3DC0895CF92DF92EF92FF920F931F937F
:100DF000CF93DF932EE088E190E00FB6F894A895AA
:100E000081BD0FBE21BD8FE387BB85E088BB88E72E
:100E100084BB87E085BB8BEE81BB12BA5AD98C9A12
:100E200020E048EB5BE004C0A895CA010197F1F708
:100E30002150D1F78C98789489B7816089BF83B7A6
:100E4000846083BF80E882BF32DC80E0FCDC80E825
:100E500068EC70E08CDC109228011092430181E074
:100E600080933A0185E280933801109241011092FB
:100E7000420110923B0110923C0110923D011092F0
:100E80003E0110923F011092400110922A011092EF
:100E9000290110922C0110922B0110922E01109218
:100EA0002D011092300110922F0126E0C22ED12C7C
:100EB00098ECE92EF12C04E110E0C8E2D0E0A8950E
:100EC00037D98091290190912A01892B51F4D09230
:100ED0002A01C092290152DD809347018C3008F429
:100EE00096DD80912B0190912C01892B31F4F092A9
:100EF0002C01E0922B01BBDE0EDF80912D01909141
:100F00002E01892B29F410932E0100932D0118DF57
:100F100080912F0190913001892B89F6D093300177
:100F2000C0932F013CDFCBCF991B79E004C0991F00
:100F3000961708F0961B881F7A95C9F78095089533
:100F400097FB092E05260ED057FD04D014D00AD0E9
:100F5000001C38F450954095309521953F4F4F4FE8
:100F60005F4F0895F6F790958095709561957F4F46
:100F70008F4F9F4F0895A1E21A2EAA1BBB1BFD01A4
:100F80000DC0AA1FBB1FEE1FFF1FA217B307E40768
:100F9000F50720F0A21BB30BE40BF50B661F771FC0
:100FA000881F991F1A9469F76095709580959095A0
:0E0FB0009B01AC01BD01CF010895F894FFCF65
:100FBE005AFF4D4F44452020202020202020202065
:100FCE0020200030303A30303A303020202020209F
:100FDE002020200020203A20203A202020202020EF
:100FEE0020202020006E756D626572203D2020202D
:100FFE002020202020002020202020202020202003
:10100E00202020202020004469676974616C2043F1
:10101E006C6F636B202020004469676974616C20DB
:10102E00436C6F636B0030313233343536373839B9
:0E103E00414243444546000A0A0A00110E00D2
:00000001FF
