:100000004CC0DAC165C064C063C062C061C060C07A
:100010005FC05EC05DC05CC05BC05AC059C058C004
:1000200057C056C055C00403090412036F00620094
:100030006400650076002E00610074001403440023
:10004000610074006100530074006F00720065006D
:10005000120110010000000834126824000101029E
:10006000000109022200010100800A0904000001C8
:10007000030000000921010100012216000705818B
:10008000030800640600FF0901A101150026FF0016
:10009000750895080900B20201C011241FBECFE502
:1000A000D4E0DEBFCDBF10E0A0E6B0E0E8EFF7E0BF
:1000B00002C005900D92A236B107D9F710E0A2E672
:1000C000B0E001C01D92AC3BB107E1F763D392C32E
:1000D00097CF85B7826085BF8BB780648BBF8BE479
:1000E000809392008AE58093910008951F93DC012C
:1000F000162F8091910084FF07C08091920098E8AC
:1001000089278093920003C08AE580939100912F04
:10011000E3E9F0E08D91819391501916DCF383E9C6
:1001200090E0612F45D11C5F109391001F910895BD
:100130001F93CF93DF936091A200635067FDBDC012
:1001400080919F00CCE0D0E0C81BD109CA55DF4F99
:1001500080919E008D3209F09EC0683009F0ABC0DE
:1001600083EC809386008AE58093600010926200A1
:100170008881807639F0CE01CBD2282F8F3F09F4C9
:1001800079C07FC09A8110928F008981882321F4E1
:100190001092900022E067C0853019F49093A3007C
:1001A00061C0863009F04AC08B81813019F480E546
:1001B00090E01BC0823041F482E690E09093A10071
:1001C0008093A00022E236C08330F9F48A8188232C
:1001D00041F486E290E09093A1008093A00024E097
:1001E00029C0813041F48AE290E09093A10080938D
:1001F000A00022E11FC08230E1F48CE390E09093F4
:10020000A1008093A00024E115C0813241F484E76D
:1002100090E09093A1008093A00029E00BC082326F
:1002200041F484E890E09093A1008093A00026E13F
:1002300001C020E080E48093620023C0883021F474
:1002400021E085EA90E011C0893019F49093A5006F
:1002500009C08A3011F421E006C08B3019F48BE418
:100260008093920020E08FE890E09093A10080932B
:10027000A00007C0888187FD2E8180E880936200FE
:1002800006C08F81882319F48E81821708F0822F8F
:100290008093610010C08091620087FF0CC0CE0186
:1002A000F6D18F3F21F48EE18093600004C0882353
:1002B00011F0109261001092A2008091600084FF02
:1002C00054C0809161008F3F09F44FC0182F8930CE
:1002D00008F018E0811B809361008091860098E807
:1002E000892780938600112371F18091620087FF36
:1002F00008C087E890E0612FAED1182F893078F5DB
:1003000022C02091A0003091A10086FF0AC0912F49
:10031000F901A7E8B0E084918D9331969150D9F717
:1003200008C0912FD901E7E8F0E08D9181939150B9
:10033000E1F7C90101961150810F911D1F5F909344
:10034000A1008093A00087E890E0612F31D0612F59
:100350006C5F6C3041F08FEF8093610004C08FEFD1
:10036000809361006EE16093600094E180B38471DA
:1003700031F49150D9F71092A30010929D00DF91B3
:10038000CF911F910895A82FB92F80E090E041E010
:1003900050EA609530E009C02D91822797958795A6
:1003A00010F084279527305EC8F36F5FA8F3089597
:1003B000EADF8D939D930895CF93CFB7CF93C395E5
:1003C000849BE9F7849B09C0849B07C0849B05C07C
:1003D000849B03C0849B01C0A3C0DF93C0919F0096
:1003E000DD27CA55DF4F849B02C0DF91EBCF2F93EF
:1003F0000F931F9300B32FEF04FB20F94F933F930C
:1004000010B34FEF012704FB21F93BE031C04E7FD1
:10041000012F10B3216028C0102F4D7F22600000F3
:1004200000B329C04B7F2460012F000010B32BC004
:1004300010B3477F28602AC04F7E00B320612CC0D4
:100440004F7D10B320622FC04F7B00B3206432C0B9
:10045000422700B349934FEF0000102714FB20F907
:1004600010B31471C9F1297F91F2012704FB21F91E
:1004700000B3237F89F2315058F1102714FB22F981
:1004800010B3277E79F2012704FB23F92F7C81F238
:1004900000B3102714FB24F92F7971F200C010B3B8
:1004A000012704FB25F92F7359F200C000B3102770
:1004B00014FB26F9223040F200C010B3012704FBE0
:1004C00027F9243028F64F77206810B30000F9CFC1
:1004D00010E41ABF002719C03B503195C31BD04010
:1004E00010E41ABF0881033CF9F00B34E9F02091C5
:1004F0009D001981110F1213EDCF4A81441F093657
:1005000041F10D3211F0013E29F70093A4003F9113
:100510004F911F910F912F91DF91CAB7C6FD4FCF19
:10052000CF91CFBFCF9118952091A400222379F3CA
:100530001091A200112369F534306AF13093A200C2
:1005400020939E0010919F003BE0311B30939F0051
:1005500022C00091A2000130E4F40AE54F7049F492
:100560003091600034FD19C000936000C6E8D0E00F
:1005700018C03091910034FD10C000939100C2E981
:10058000D0E00FC02795A8F45150A9F4220F000025
:10059000F9CF4AE503C042ED01C0432FC4E1D0E0EA
:1005A00032E011B31461949A11BB02B320E414E158
:1005B0005F93012756E002BB279520F4515021F4A8
:1005C000220FF9CF012756E000003B5A02BBD0F2C0
:1005D000279528F4515029F4220F0000F9CF012764
:1005E00056E0279502BB20F4515021F4220FF9CF99
:1005F000012756E02991332302BB21F60B7E10918F
:10060000A300110FC651D04002BB11F010939D0002
:1006100010E41ABF006111B31B7E402F4B7E5F9127
:1006200000C000C002BB11BB42BB71CF95B3282FE5
:100630002F73907C292B25BB22B3982F92959695EA
:1006400092702D7F922B92BB92B382958870977F88
:10065000982B92BB0895FC0120918500261708F481
:10066000622F90918400992351F4809163008083DC
:100670001182128213821482158216821782960FBB
:1006800090938400261B20938500862F0895DC011B
:10069000409185004423C9F1461708F4642F309136
:1006A0008400332341F58C918032A1F412968C9111
:1006B00012971196EC911197F0E093E0EE0FFF1F67
:1006C0009A95E1F7E80FF11DEC59FF4F13968C91C5
:1006D000808311C0813279F498B311962C91822FC6
:1006E0008F73907C892B88BB82B3207C8F73282BDF
:1006F00022BB959A9598360F30938400842F861BE1
:100700008093850090E0882309F491E0892F089573
:10071000FC0180818076803261F48181813011F02A
:10072000893039F488E080938500109284008FEF3F
:10073000089580E00895EF92FF920F931F93CF9357
:10074000DF93082FC62FD0E033E0CC0FDD1F3A95A2
:10075000E1F7CC59DF4F10E028EBE22E2BE0F22E30
:10076000A895E6DC80B3817080936300812F800FB1
:100770005DDFAE9AAE98899159DFC7010197F1F715
:100780001F5F183069F7DF91CF911F910F91FF9094
:10079000EF9008952EE088E190E00FB6F894A895C8
:1007A00081BD0FBE21BD8FE387BB18BA8FE784BB25
:1007B00080E485BB8AEE81BB12BA8BDC8C9A20E088
:1007C00048EB5BE004C0A895CA010197F1F72150FE
:1007D000D1F78C987894A895ABDC88E060E0ABDF2B
:1007E00080E161E0A8DF80E262E0A5DF80E463E011
:0807F000A2DFF1CFF894FFCF66
:0207F8005AFFA6
:00000001FF
