:100000004CC0DAC165C064C063C062C061C060C07A
:100010005FC05EC05DC05CC05BC05AC059C058C004
:1000200057C056C055C00403090412036F00620094
:100030006400650076002E00610074001403440023
:10004000610074006100530074006F00720065006D
:10005000120110010000000834126824000101029E
:10006000000109022200010100800A0904000001C8
:10007000030000000921010100012216000705818B
:10008000030800640600FF0901A101150026FF0016
:10009000750895080900B20201C011241FBECFE502
:1000A000D4E0DEBFCDBF10E0A0E6B0E0EAEDF9E0BD
:1000B00002C005900D92AA38B107D9F710E0AAE85E
:1000C000B0E001C01D92AB3CB107E1F7D5D383C4CA
:1000D00097CF85B7826085BF8BB780648BBF8BE479
:1000E0008093A0008AE580939F0008951F93DC0110
:1000F000162F80919F0084FF07C08091A00098E890
:1001000089278093A00003C08AE580939F00912FE8
:10011000E1EAF0E08D91819391501916DCF381EAC8
:1001200090E0612F45D11C5F10939F001F910895AF
:100130001F93CF93DF936091B000635067FDBDC004
:100140008091AD00CCE0D0E0C81BD109CC54DF4F8A
:100150008091AC008D3209F09EC0683009F0ABC0D0
:1001600083EC809394008AE58093600010928A006B
:100170008881807639F0CE0135D3282F8F3F09F45E
:1001800079C07FC09A8110929D008981882321F4D3
:1001900010929E0022E067C0853019F49093B10060
:1001A00061C0863009F04AC08B81813019F480E546
:1001B00090E01BC0823041F482E690E09093AF0063
:1001C0008093AE0022E236C08330F9F48A8188231E
:1001D00041F486E290E09093AF008093AE0024E07B
:1001E00029C0813041F48AE290E09093AF0080937F
:1001F000AE0022E11FC08230E1F48CE390E09093E6
:10020000AF008093AE0024E115C0813241F484E751
:1002100090E09093AF008093AE0029E00BC0823253
:1002200041F484E890E09093AF008093AE0026E123
:1002300001C020E080E480938A0023C0883021F44C
:1002400021E083EB90E011C0893019F49093B30062
:1002500009C08A3011F421E006C08B3019F48BE418
:100260008093A00020E08DE990E09093AF00809310
:10027000AE0007C0888187FD2E8180E880938A00C8
:1002800006C08F81882319F48E81821708F0822F8F
:100290008093610010C080918A0087FF0CC0CE015E
:1002A0006DD28F3F21F48EE18093600004C08823DB
:1002B00011F0109261001092B0008091600084FFF4
:1002C00054C0809161008F3F09F44FC0182F8930CE
:1002D00008F018E0811B809361008091940098E8F9
:1002E000892780939400112371F180918A0087FF00
:1002F00008C085E990E0612F88D2182F893078F501
:1003000022C02091AE003091AF0086FF0AC0912F2D
:10031000F901A5E9B0E084918D9331969150D9F718
:1003200008C0912FD901E5E9F0E08D9181939150BA
:10033000E1F7C90101961150810F911D1F5F909344
:10034000AF008093AE0085E990E0612F31D0612F3E
:100350006C5F6C3041F08FEF8093610004C08FEFD1
:10036000809361006EE16093600094E180B38471DA
:1003700031F49150D9F71092B1001092AB00DF9197
:10038000CF911F910895A82FB92F80E090E041E010
:1003900050EA609530E009C02D91822797958795A6
:1003A00010F084279527305EC8F36F5FA8F3089597
:1003B000EADF8D939D930895CF93CFB7CF93C395E5
:1003C000849BE9F7849B09C0849B07C0849B05C07C
:1003D000849B03C0849B01C0A3C0DF93C091AD0088
:1003E000DD27CC54DF4F849B02C0DF91EBCF2F93EE
:1003F0000F931F9300B32FEF04FB20F94F933F930C
:1004000010B34FEF012704FB21F93BE031C04E7FD1
:10041000012F10B3216028C0102F4D7F22600000F3
:1004200000B329C04B7F2460012F000010B32BC004
:1004300010B3477F28602AC04F7E00B320612CC0D4
:100440004F7D10B320622FC04F7B00B3206432C0B9
:10045000422700B349934FEF0000102714FB20F907
:1004600010B31471C9F1297F91F2012704FB21F91E
:1004700000B3237F89F2315058F1102714FB22F981
:1004800010B3277E79F2012704FB23F92F7C81F238
:1004900000B3102714FB24F92F7971F200C010B3B8
:1004A000012704FB25F92F7359F200C000B3102770
:1004B00014FB26F9223040F200C010B3012704FBE0
:1004C00027F9243028F64F77206810B30000F9CFC1
:1004D00010E41ABF002719C03B503195C31BD04010
:1004E00010E41ABF0881033CF9F00B34E9F02091C5
:1004F000AB001981110F1213EDCF4A81441F093649
:1005000041F10D3211F0013E29F70093B2003F9105
:100510004F911F910F912F91DF91CAB7C6FD4FCF19
:10052000CF91CFBFCF9118952091B200222379F3BC
:100530001091B000112369F534306AF13093B000A6
:100540002093AC001091AD003BE0311B3093AD0027
:1005500022C00091B0000130E4F40AE54F7049F484
:100560003091600034FD19C000936000C4E9D0E010
:1005700018C030919F0034FD10C000939F00C0EA66
:10058000D0E00FC02795A8F45150A9F4220F000025
:10059000F9CF4AE503C042ED01C0432FC4E1D0E0EA
:1005A00032E011B31461949A11BB02B320E414E158
:1005B0005F93012756E002BB279520F4515021F4A8
:1005C000220FF9CF012756E000003B5A02BBD0F2C0
:1005D000279528F4515029F4220F0000F9CF012764
:1005E00056E0279502BB20F4515021F4220FF9CF99
:1005F000012756E02991332302BB21F60B7E10918F
:10060000B100110FC651D04002BB11F01093AB00E6
:1006100010E41ABF006111B31B7E402F4B7E5F9127
:1006200000C000C002BB11BB42BB71CF98B3282FE2
:100630002F73907C292B28BB92B3807C9F73982BBF
:1006400092BB85B3629560718F7E862B85BBAD9A18
:1006500088EB9BE0FC013197F1F7AD980197F1F73A
:10066000089588E360E0E2DF8FE160E0DFDF81E0B2
:1006700060E0DCDF8CE060E0D9DF08958EEF85BBC1
:1006800090E021E0809B11C0892F8F5F819B04C087
:10069000892F8E5F839902C0982F07C09D5F220F1C
:1006A000822F809585BB9C3069F7892F0895E6DFFE
:1006B000E0E3F5E73197F1F7089584E860E0B6DF0D
:1006C00080918B0061E0B2DF80918C0061E0AEDF51
:1006D0008AE361E0ABDF80918D0061E0A7DF80916C
:1006E0008E0061E0A3DF8AE361E0A0DF80918F00EC
:1006F00061E09CDF8091900061E098DF089584E8DC
:1007000060E094DF8091830061E090DF809184005D
:1007100061E08CDF8AE361E089DF8091850061E040
:1007200085DF8091860061E081DF8AE361E07EDF22
:100730008091870061E07ADF8091880061E076DF58
:1007400008950F931F93CF93DF938C01C0E0D0E007
:100750000CC0C031D10519F480EC60E067DFF8010E
:1007600081918F0161E062DF2196F8018081882309
:1007700081F7DF91CF911F910F910895FC01209196
:100780009300222361F1261708F4622F90919200C2
:100790009923D9F480818032C1F48181805D809376
:1007A0008B008281805D80938C008381805D80934B
:1007B0008D008481805D80938E008581805D809333
:1007C0008F008681805D80939000960F90939200B9
:1007D000822F861B8093930090E0882309F491E098
:1007E000892F0895FC0180818076803261F48181B7
:1007F000813011F0893039F488E0809393001092B1
:1008000092008FEF089580E00895FF920F931F9359
:10081000CF93DF93EC01F0909300062FF61608F4C7
:100820000F2D109192001123D1F480E090E0BED002
:10083000888381E090E0BAD0898382E090E0B6D0EE
:100840008A8383E090E0B2D08B8384E090E0AED0E6
:100850008C8385E090E0AAD08D831E821F82100FCA
:1008600010939200F01AF0929300802FDF91CF91B5
:100870001F910F91FF900895FF920F931F93CF93B5
:10088000DF932EE088E190E00FB6F894A89581BD43
:100890000FBE21BD8FE387BB84BB80EC81BB19DC1D
:1008A0008C9A20E048EB5BE004C0A895CA01019750
:1008B000F1F72150D1F78C987894D3DEC0E0D0E0E6
:1008C000CE0174D0FE01ED57FF4F80832196C630D4
:1008D000D105B1F7FF2400E0A8952ADCE8DE182F47
:1008E0001F5C1B3311F410E30EC01A3311F41AE22B
:1008F00005C01C3309F458C01A3229F480919100C4
:100900008095809391008091CA008117E1F08091D9
:1009100091008823B1F0812F80538A3068F4802FB2
:1009200090E0FC01ED57FF4F1083612F47D0063058
:1009300010F006E001C00F5F133211F41092910025
:10094000FF241093CA0080919100882329F510E0BC
:1009500020E030E0F901E557FF4FD901AD57BF4F17
:1009600090818C91981709F41F5F2F5F3F4F2630BD
:10097000310581F7A2DE83EC60E058DE163019F411
:10098000FF24F39402C0FF2019F082E690E002C039
:100990008DE690E0D6DE9FCFB2DE83EC60E046DEEF
:1009A00088E790E0CEDE98CF13E2ADCFE199FECF9D
:1009B0009FBB8EBBE09A99278DB30895262FE199AE
:1009C000FECF9FBB8EBB2DBB0FB6F894E29AE19A87
:0A09D0000FBE01960895F894FFCFC2
:1009DA005AFF202054696D652055702000436C6FC2
:1009EA00636B204D6F646500416C61726D204D6FC1
:0A09FA00646500303030303030000A
:00000001FF
