:100000004CC0DAC165C064C063C062C061C060C07A
:100010005FC05EC05DC05CC05BC05AC059C058C004
:1000200057C056C055C00403090412036F00620094
:100030006400650076002E00610074001403440023
:10004000610074006100530074006F00720065006D
:10005000120110010000000834126824000101029E
:10006000000109022200010100800A0904000001C8
:10007000030000000921010100012216000705818B
:10008000030800640600FF0901A101150026FF0016
:10009000750895800900B20201C011241FBECFE58A
:1000A000D4E0DEBFCDBF10E0A0E6B0E0EAEBF6E1C1
:1000B00002C005900D92AA36B107D9F711E0AAE661
:1000C000B0E001C01D92AC33B107E1F7EDD4F3CA43
:1000D00097CF85B7826085BF8BB780648BBF8BE479
:1000E000809312018AE58093110108951F93DC012A
:1000F000162F8091110184FF07C08091120198E8AA
:1001000089278093120103C08AE580931101912F02
:10011000E3E1F1E08D91819391501916DCF383E1D5
:1001200091E0612F45D11C5F109311011F9108953B
:100130001F93CF93DF9360912201635067FDBDC091
:1001400080911F01CCE0D0E0C81BD109CA5DDE4F11
:1001500080911E018D3209F09EC0683009F0ABC05D
:1001600083EC809306018AE58093600010926A0018
:100170008881807639F0CE0144D4282F8F3F09F44E
:1001800079C07FC09A8110920F018981882321F460
:100190001092100122E067C0853019F4909323017A
:1001A00061C0863009F04AC08B81813019F480E546
:1001B00090E01BC0823041F482E690E090932101F0
:1001C0008093200122E236C08330F9F48A818823AB
:1001D00041F486E290E0909321018093200124E095
:1001E00029C0813041F48AE290E09093210180930C
:1001F000200122E11FC08230E1F48CE390E0909373
:1002000021018093200124E115C0813241F484E76B
:1002100090E0909321018093200129E00BC082326D
:1002200041F484E890E0909321018093200126E13D
:1002300001C020E080E480936A0023C0883021F46C
:1002400021E085E291E011C0893019F490932501F5
:1002500009C08A3011F421E006C08B3019F48BE418
:100260008093120120E08FE091E090932101809330
:10027000200107C0888187FD2E8180E880936A0075
:1002800006C08F81882319F48E81821708F0822F8F
:100290008093610010C080916A0087FF0CC0CE017E
:1002A000E1D18F3F21F48EE18093600004C0882368
:1002B00011F010926100109222018091600084FF81
:1002C00054C0809161008F3F09F44FC0182F8930CE
:1002D00008F018E0811B809361008091060198E886
:1002E000892780930601112371F180916A0087FFAD
:1002F00008C087E091E0612F99D1182F893078F5F7
:1003000022C0209120013091210186FF0AC0912F47
:10031000F901A7E0B1E084918D9331969150D9F71E
:1003200008C0912FD901E7E0F1E08D9181939150C0
:10033000E1F7C90101961150810F911D1F5F909344
:1003400021018093200187E091E0612F31D0612F5E
:100350006C5F6C3041F08FEF8093610004C08FEFD1
:10036000809361006EE16093600094E180B38471DA
:1003700031F49150D9F71092230110921D01DF91B1
:10038000CF911F910895A82FB92F80E090E041E010
:1003900050EA609530E009C02D91822797958795A6
:1003A00010F084279527305EC8F36F5FA8F3089597
:1003B000EADF8D939D930895CF93CFB7CF93C395E5
:1003C000849BE9F7849B09C0849B07C0849B05C07C
:1003D000849B03C0849B01C0A3C0DF93C0911F0115
:1003E000DD27CA5DDE4F849B02C0DF91EBCF2F93E8
:1003F0000F931F9300B32FEF04FB20F94F933F930C
:1004000010B34FEF012704FB21F93BE031C04E7FD1
:10041000012F10B3216028C0102F4D7F22600000F3
:1004200000B329C04B7F2460012F000010B32BC004
:1004300010B3477F28602AC04F7E00B320612CC0D4
:100440004F7D10B320622FC04F7B00B3206432C0B9
:10045000422700B349934FEF0000102714FB20F907
:1004600010B31471C9F1297F91F2012704FB21F91E
:1004700000B3237F89F2315058F1102714FB22F981
:1004800010B3277E79F2012704FB23F92F7C81F238
:1004900000B3102714FB24F92F7971F200C010B3B8
:1004A000012704FB25F92F7359F200C000B3102770
:1004B00014FB26F9223040F200C010B3012704FBE0
:1004C00027F9243028F64F77206810B30000F9CFC1
:1004D00010E41ABF002719C03B503195C31BD04010
:1004E00010E41ABF0881033CF9F00B34E9F02091C5
:1004F0001D011981110F1213EDCF4A81441F0936D6
:1005000041F10D3211F0013E29F7009324013F9192
:100510004F911F910F912F91DF91CAB7C6FD4FCF19
:10052000CF91CFBFCF91189520912401222379F349
:1005300010912201112369F534306AF130932201C0
:1005400020931E0110911F013BE0311B30931F01CE
:1005500022C0009122010130E4F40AE54F7049F411
:100560003091600034FD19C000936000C6E0D1E016
:1005700018C03091110134FD10C000931101C2E187
:10058000D1E00FC02795A8F45150A9F4220F000024
:10059000F9CF4AE503C042ED01C0432FC4E1D0E0EA
:1005A00032E011B31461949A11BB02B320E414E158
:1005B0005F93012756E002BB279520F4515021F4A8
:1005C000220FF9CF012756E000003B5A02BBD0F2C0
:1005D000279528F4515029F4220F0000F9CF012764
:1005E00056E0279502BB20F4515021F4220FF9CF99
:1005F000012756E02991332302BB21F60B7E10918F
:100600002301110FC651D04002BB11F010931D0100
:1006100010E41ABF006111B31B7E402F4B7E5F9127
:1006200000C000C002BB11BB42BB71CFFC012091D6
:100630000501261708F4622F90910401992351F4C3
:1006400080B381708083118212821382148215829A
:1006500016821782960F90930401261B20930501A2
:10066000862F0895DC0140910501442309F4C6C199
:10067000461708F4642F30910401332309F0B4C104
:100680008C918032A1F412968C9112971196EC9174
:100690001197F0E093E0EE0FFF1F9A95E1F7E80F56
:1006A000F11DE559FF4F13968C9180839DC18132D6
:1006B00081F498B311962C91822F8F73907C892BA3
:1006C00088BB82B3207C8F73282B22BB959A959888
:1006D0008BC1823209F081C080916C0080936B00E5
:1006E00080916D0080936C0080916E0080936D000E
:1006F00080916F0080936E008091700080936F00F6
:1007000080917100809370008091720080937100DD
:1007100080917300809372008091740080937300C5
:1007200080917500809374008091760080937500AD
:100730008091770080937600809178008093770095
:10074000809179008093780080917A00809379007D
:1007500080917B0080937A0080917C0080937B0065
:1007600080917D0080937C0080917E0080937D004D
:1007700080917F0080937E008091800080937F0035
:10078000809181008093800080918200809381001D
:100790008091830080938200809184008093830005
:1007A00080918500809384008091860080938500ED
:1007B00080918700809386008091880080938700D5
:1007C000809189008093880080918A0080938900BD
:1007D00011968C9180938A0007C1833209F081C001
:1007E0008091890080938A0080918800809389009D
:1007F0008091870080938800809186008093870095
:10080000809185008093860080918400809385008C
:100810008091830080938400809182008093830084
:10082000809181008093820080918000809381007C
:1008300080917F008093800080917E0080937F0074
:1008400080917D0080937E0080917C0080937D006C
:1008500080917B0080937C0080917A0080937B0064
:100860008091790080937A0080917800809379005C
:100870008091770080937800809176008093770054
:10088000809175008093760080917400809375004C
:100890008091730080937400809172008093730044
:1008A000809171008093720080917000809371003C
:1008B00080916F008093700080916E0080936F0034
:1008C00080916D0080936E0080916C0080936D002C
:1008D00080916B0080936C0011968C9180936B00DB
:1008E00083C0843209F078C011968C91119790E002
:1008F000FC01EE0FFF1FE80FF91FE557FF4F808146
:1009000080936D00818180936E00828180936F005F
:1009100012968C91129790E0FC01EE0FFF1FE80FEA
:10092000F91FE557FF4F808180937100818180938B
:10093000720082818093730013968C91139790E0DC
:10094000FC01EE0FFF1FE80FF91FE557FF4F8081F5
:1009500080937700818180937800828180937900F1
:1009600014968C91149790E0FC01EE0FFF1FE80F96
:10097000F91FE557FF4F808180937B008181809331
:100980007C00828180937D0015968C91159790E074
:10099000FC01EE0FFF1FE80FF91FE557FF4F8081A5
:1009A0008093810081818093820082818093830083
:1009B00016968C9190E0FC01EE0FFF1FE80FF91FD7
:1009C000E557FF4F80818093850081818093860069
:1009D00082818093870008C0853231F482B3877F9B
:1009E00011969C91892B82BB360F30930401842F82
:1009F000861B8093050190E0882309F491E0892FFC
:100A00000895FC0180818076803261F4818181309B
:100A100011F0893039F488E08093050110920401C7
:100A20008FEF089580E00895FF920F931F93F82EA3
:100A3000062FA8957DDB10E033E0000F111F3A95DB
:100A4000E1F7F801E559FF4F6EE170E0A8014D585C
:100A50005F4F98B32191822F8F73907C892B88BB35
:100A600082B3207C8F73282B22BB919885B39F2D56
:100A70009F73807C982B95BB92B38F2D8295869522
:100A800082709D7F892B82BBCB010197F1F79198F2
:100A900085B3807C85BB9198F394E417F507C9F67C
:100AA0001F910F91FF9008958F929F92AF92BF92E6
:100AB000CF92DF92EF92FF920F931F939FE7909355
:100AC0008B0081E480938C0090938D0082E480936E
:100AD0008E0090938F0070E47093900039E730930C
:100AE000910029E4209392004FE4409393002093D7
:100AF000940020939500909396006FE06093970088
:100B000088E0809398009093990040939A002093F6
:100B10009B0030939C0090939D0020939E00309307
:100B20009F0047E04093A00051E05093A1009093B4
:100B3000A2009093A3002093A4009093A50060933B
:100B4000A60089E08093A7009093A80086E6809392
:100B5000A9002FE12093AE0081E18093AF00809344
:100B6000B0002093B1002093B9006DE16093BE0006
:100B700095E19093BF009093C00037E13093C1009E
:100B80009093C6009093C7009093C8002093C9002B
:100B90004093CE0084E08093CF008093D0002093D8
:100BA000D1003093D6009093D7009093D8006093F3
:100BB000D9002093DE0084E18093DF008093E00081
:100BC0008CE18093E1004093E6005093E70050935E
:100BD000E8002093E9002093EE009093EF009093BB
:100BE000F0002093F1003093F6009093F70090937B
:100BF000F8002093F9002EE088E190E00FB6F89419
:100C0000A89581BD0FBE21BD8FE387BB18BA84BBF9
:100C100075BB8AEE81BB12BA5CDA8C9A80E090E0F8
:100C2000A0E0B0E08093FC009093FD00A093FE0054
:100C3000B093FF008093000190930101A093020103
:100C4000B093030120E04CE251E004C0A895CA0132
:100C50000197F1F72150D1F78C98789408E01FEFB5
:100C60008090000190900101A0900201B0900301DA
:100C7000C501B40120E030E040E450E414D38823FF
:100C80000CF03BC1C090FC00D090FD00E090FE0055
:100C9000F090FF00C701B60120E030E040E050E0F6
:100CA000D7D2882309F048C010936B0010936C00D2
:100CB00010936D0010936E0010936F0010937000EE
:100CC00010937100109372001093730010937400CE
:100CD00010937500109376001093770010937800AE
:100CE0001093790010937A0010937B0010937C008E
:100CF00010937D0010937E0010937F00109380006E
:100D0000109381001093820010938300109384004D
:100D1000109385001093860010938700109388002D
:100D20001093890010938A0088B38F6388BB82B3C5
:100D3000806C82BB959A9598C701B60120E030E09F
:100D40004AE754E485D2882309F049C088B3807CFF
:100D500088BB82B38F7382BB959A959810926B0073
:100D600010926C0010926D0010926E0010926F0045
:100D70001092700010927100109272001092730025
:100D80001092740010927500109276001092770005
:100D9000109278001092790010927A0010927B00E5
:100DA00010927C0010927D0010927E0010927F00C5
:100DB00010928000109281001092820010928300A5
:100DC0001092840010928500109286001092870085
:100DD000109288001092890010928A0025C0C701E5
:100DE000B60120E030E04AEF54E432D28823E1F447
:100DF00080E090E0A0E0B0E08093FC009093FD00E4
:100E0000A093FE00B093FF00C501B40120E030E0E4
:100E100040E85FE3F6D16093000170930101809395
:100E20000201909303010FC0C701B60120E030E03A
:100E300040E85FE3E6D16093FC007093FD0080938F
:100E4000FE009093FF00609100017091010180917C
:100E500002019091030120E030E040E450E4F8D139
:100E6000882309F04AC000936B0000936C00009344
:100E70006D0000936E0000936F000093700000936C
:100E80007100009372008091CE0080937500809174
:100E9000CF00809376008091D0008093770080917E
:100EA000D100809378008091F60080937D0080913E
:100EB000F70080937E008091F80080937F008091FE
:100EC000F9008093800000938300009384000093D6
:100ED00085000093860000938700009388000093AC
:100EE000890000938A0088B3807C896088BB82B3C4
:100EF0008F73806482BB959A9598A89519D988E0DC
:100F000060E092DD80E161E08FDD80E262E08CDD17
:100F100080E463E089DDA4CEA0E0B0E0E1E9F7E0A1
:100F200093C3DC012B01FA019C91923008F439C182
:100F3000EB018881823008F433C1943069F4843045
:100F400009F02FC111969C9111978981981709F486
:100F500028C1A2E6B0E025C1843009F421C1823065
:100F6000A9F4923009F01DC19A01AD0188E0EA01AF
:100F70000990AE01E90109929E018150C1F7E20199
:100F8000898111969C918923818308C1923009F44B
:100F900007C112962D903C901397EB018A819B819B
:100FA0001496AD90BD90CD90DC901797EC80FD80AD
:100FB0000E811F819101281B390BB90137FF04C035
:100FC00066277727621B730B603271050CF061C0D6
:100FD000121613066CF537014801062E04C09694CC
:100FE0008794779467940A94D2F721E030E040E048
:100FF00050E004C0220F331F441F551F6A95D2F7DB
:1010000021503040404050402E213F214023512369
:10101000211531054105510521F021E030E040E086
:1010200050E079018A01E628F728082919293CC0EF
:10103000232BD1F1260E371E35014601062E04C0A2
:1010400096948794779467940A94D2F721E030E0DD
:1010500040E050E004C0220F331F441F551F6A9523
:10106000D2F721503040404050402A213B214C21B2
:101070005D21211531054105510521F021E030E0C8
:1010800040E050E059016A01A628B728C828D928AD
:101090000BC0821593052CF01C01AA24BB2465010A
:1010A00003C0EE24FF24870111969C91D201119672
:1010B0008C91981709F445C0992339F0A80197013C
:1010C0002A193B094C095D0906C0A60195012E1994
:1010D0003F09400B510B57FD08C011823382228219
:1010E00024833583468357831DC081E08183338207
:1010F000228288279927DC01821B930BA40BB50B56
:1011000084839583A683B7830DC0220F331F441FAA
:10111000551F2483358346835783828193810197AA
:10112000938382832481358146815781DA01C90105
:101130000197A109B1098F5F9F4FAF4FBF4328F3BC
:101140000BC0918333822282EA0CFB1C0C1D1D1DF7
:10115000E482F5820683178383E0808324813581CE
:101160004681578157FF1AC0C901AA2797FDA0954C
:10117000BA2F81709070A070B070569547953795D2
:101180002795822B932BA42BB52B84839583A68341
:10119000B78382819381019693838283DF0101C0AB
:1011A000D201CD01CDB7DEB7E2E16AC2A0E2B0E084
:1011B000EBEDF8E055C269837A838B839C832D83A2
:1011C0003E834F835887E9E0EE2EF12CEC0EFD1E96
:1011D000CE010196B70167D18E010F5E1F4FCE0180
:1011E0000596B80160D18A8991E089278A8BC70169
:1011F000B801AE01475E5F4F8FDE80D0A096E6E07B
:101200004BC2A0E2B0E0E6E0F9E02AC269837A834B
:101210008B839C832D833E834F835887F9E0EF2E89
:10122000F12CEC0EFD1ECE010196B7013CD18E01D2
:101230000F5E1F4FCE010596B80135D1C701B80129
:10124000AE01475E5F4F68DE59D0A096E6E024C24B
:10125000A8E1B0E0EDE2F9E003C269837A838B8311
:101260009C832D833E834F83588789E0E82EF12CA1
:10127000EC0EFD1ECE010196B70115D18E010F5E59
:101280001F4FCE010596B8010ED18985823038F006
:101290008989823020F0C701B8017DD101C081E089
:1012A0006896E6E0F9C1A8E1B0E0E8E5F9E0D8C168
:1012B00069837A838B839C832D833E834F835887F6
:1012C00089E0E82EF12CEC0EFD1ECE010196B7014F
:1012D000EAD08E010F5E1F4FCE010596B801E3D014
:1012E0008985823038F08989823020F0C701B801C1
:1012F00052D101C081E06896E6E0CEC1DF92EF9264
:10130000FF920F931F93FC01E480F5800681178103
:10131000D1808081823048F480E090E0A0E1B0E0AC
:10132000E82AF92A0A2B1B2BA5C0843009F49FC098
:10133000823021F4EE24FF24870105C0E114F1047A
:101340000105110519F4E0E0F0E096C062817381B7
:101350009FEF623879070CF05BC022E83FEF261B55
:10136000370B2A3131052CF020E030E040E050E02E
:101370002AC0B801A701022E04C07695679557953B
:1013800047950A94D2F781E090E0A0E0B0E004C075
:10139000880F991FAA1FBB1F2A95D2F70197A10991
:1013A000B1098E219F21A023B1230097A105B1058A
:1013B00021F081E090E0A0E0B0E09A01AB01282BA1
:1013C000392B4A2B5B2BDA01C9018F779070A07003
:1013D000B07080349105A105B10539F427FF09C02B
:1013E000205C3F4F4F4F5F4F04C0215C3F4F4F4F3A
:1013F0005F4FE0E0F0E02030A0E03A07A0E04A07CD
:10140000A0E45A0710F0E1E0F0E079018A0127C07A
:101410006038710564F5FB01E158FF4FD801C70141
:101420008F779070A070B07080349105A105B105E0
:1014300039F4E7FE0DC080E490E0A0E0B0E004C025
:101440008FE390E0A0E0B0E0E80EF91E0A1F1B1F3A
:1014500017FF05C016950795F794E794319687E036
:1014600016950795F794E7948A95D1F705C0EE2471
:10147000FF248701EFEFF0E06E2F679566276795F1
:10148000902F9F77D794DD24D7948E2F8695492F60
:10149000462B582F5D29B701CA011F910F91FF906C
:1014A000EF90DF900895FC01DB01408151812281A2
:1014B000622F6F7770E0221F2227221F9381892FCE
:1014C000880F822B282F30E0991F9927991F11969A
:1014D0009C93119721153105A9F541155105610519
:1014E000710511F482E037C082E89FEF13969C9358
:1014F0008E9312979A01AB0167E0220F331F441FAE
:10150000551F6A95D1F783E08C930DC0220F331FCE
:10151000441F551F12968D919C9113970197139616
:101520009C938E931297203080E0380780E0480724
:1015300080E4580758F314962D933D934D935C9394
:10154000179708952F3F310579F44115510561052D
:10155000710519F484E08C93089564FF03C081E061
:101560008C9312C01C9210C02F57304013963C939E
:101570002E93129783E08C9387E0440F551F661FCC
:10158000771F8A95D1F7706414964D935D936D9390
:101590007C93179708951F93DC01FB019C91923077
:1015A00008F447C08081823008F443C0943051F47D
:1015B00011961C91843099F58181682F70E0611B30
:1015C00071093FC0843021F0923031F48230B9F19A
:1015D0008181882389F12DC011961C911197823049
:1015E000F1F081811817D9F412962D913C9113973F
:1015F000828193818217930794F028173907BCF0F2
:1016000014968D919D910D90BC91A02D24813581D2
:1016100046815781281739074A075B0718F41123B9
:1016200041F00AC082179307A407B50740F41123BD
:1016300019F061E070E005C06FEF7FEF02C060E07D
:1016400070E0CB011F9108952F923F924F925F92CD
:101650006F927F928F929F92AF92BF92CF92DF92C2
:10166000EF92FF920F931F93CF93DF93CDB7DEB727
:10167000CA1BDB0B0FB6F894DEBF0FBECDBF0994BB
:101680002A88398848885F846E847D848C849B8412
:10169000AA84B984C884DF80EE80FD800C811B8120
:1016A000AA81B981CE0FD11D0FB6F894DEBF0FBE4F
:0A16B000CDBFED010895F894FFCFBF
:0A16BA005AFF0000000000000000CD
:00000001FF
