:100000004CC0DAC165C064C063C062C061C060C07A
:100010005FC05EC05DC05CC05BC05AC059C058C004
:1000200057C056C055C00403090412036F00620094
:100030006400650076002E00610074001403440023
:10004000610074006100530074006F00720065006D
:10005000120110010000000834126824000101029E
:10006000000109022200010100800A0904000001C8
:10007000030000000921010100012216000705818B
:10008000030800640600FF0901A101150026FF0016
:10009000750895800900B20201C011241FBECFE58A
:1000A000D4E0DEBFCDBF10E0A0E6B0E0E8EBFBE0BF
:1000B00002C005900D92A636B107D9F710E0A6E66A
:1000C000B0E001C01D92A93BB107E1F70FD572C5A1
:1000D00097CF85B7826085BF8BB780648BBF8BE479
:1000E00080938D008AE580938C0008951F93DC0136
:1000F000162F80918C0084FF07C080918D0098E8B6
:10010000892780938D0003C08AE580938C00912F0E
:10011000EEE8F0E08D91819391501916DCF38EE8B2
:1001200090E0612F45D11C5F10938C001F910895C2
:100130001F93CF93DF9360919D00635067FDBDC017
:1001400080919A00CCE0D0E0C81BD109CF55DF4F99
:10015000809199008D3209F09EC0683009F0ABC0E3
:1001600083EC809381008AE58093600010926600A2
:100170008881807639F0CE01A6D4282F8F3F09F4EC
:1001800079C07FC09A8110928A008981882321F4E6
:1001900010928B0022E067C0853019F490939E0086
:1001A00061C0863009F04AC08B81813019F480E546
:1001B00090E01BC0823041F482E690E090939C0076
:1001C00080939B0022E236C08330F9F48A81882331
:1001D00041F486E290E090939C0080939B0024E0A1
:1001E00029C0813041F48AE290E090939C00809392
:1001F0009B0022E11FC08230E1F48CE390E09093F9
:100200009C0080939B0024E115C0813241F484E777
:1002100090E090939C0080939B0029E00BC0823279
:1002200041F484E890E090939C0080939B0026E149
:1002300001C020E080E48093660023C0883021F470
:1002400021E080EA90E011C0893019F49093A00079
:1002500009C08A3011F421E006C08B3019F48BE418
:1002600080938D0020E08AE890E090939C0080933A
:100270009B0007C0888187FD2E8180E880936600FF
:1002800006C08F81882319F48E81821708F0822F8F
:100290008093610010C08091660087FF0CC0CE0182
:1002A00095D38F3F21F48EE18093600004C08823B2
:1002B00011F01092610010929D008091600084FF07
:1002C00054C0809161008F3F09F44FC0182F8930CE
:1002D00008F018E0811B809361008091810098E80C
:1002E000892780938100112371F18091660087FF37
:1002F00008C082E890E0612F43D3182F893078F549
:1003000022C020919B0030919C0086FF0AC0912F53
:10031000F901A2E8B0E084918D9331969150D9F71C
:1003200008C0912FD901E2E8F0E08D9181939150BE
:10033000E1F7C90101961150810F911D1F5F909344
:100340009C0080939B0082E890E0612F31D0612F68
:100350006C5F6C3041F08FEF8093610004C08FEFD1
:10036000809361006EE16093600094E180B38471DA
:1003700031F49150D9F710929E0010929800DF91BD
:10038000CF911F910895A82FB92F80E090E041E010
:1003900050EA609530E009C02D91822797958795A6
:1003A00010F084279527305EC8F36F5FA8F3089597
:1003B000EADF8D939D930895CF93CFB7CF93C395E5
:1003C000849BE9F7849B09C0849B07C0849B05C07C
:1003D000849B03C0849B01C0A3C0DF93C0919A009B
:1003E000DD27CF55DF4F849B02C0DF91EBCF2F93EA
:1003F0000F931F9300B32FEF04FB20F94F933F930C
:1004000010B34FEF012704FB21F93BE031C04E7FD1
:10041000012F10B3216028C0102F4D7F22600000F3
:1004200000B329C04B7F2460012F000010B32BC004
:1004300010B3477F28602AC04F7E00B320612CC0D4
:100440004F7D10B320622FC04F7B00B3206432C0B9
:10045000422700B349934FEF0000102714FB20F907
:1004600010B31471C9F1297F91F2012704FB21F91E
:1004700000B3237F89F2315058F1102714FB22F981
:1004800010B3277E79F2012704FB23F92F7C81F238
:1004900000B3102714FB24F92F7971F200C010B3B8
:1004A000012704FB25F92F7359F200C000B3102770
:1004B00014FB26F9223040F200C010B3012704FBE0
:1004C00027F9243028F64F77206810B30000F9CFC1
:1004D00010E41ABF002719C03B503195C31BD04010
:1004E00010E41ABF0881033CF9F00B34E9F02091C5
:1004F00098001981110F1213EDCF4A81441F09365C
:1005000041F10D3211F0013E29F700939F003F9118
:100510004F911F910F912F91DF91CAB7C6FD4FCF19
:10052000CF91CFBFCF91189520919F00222379F3CF
:1005300010919D00112369F534306AF130939D00CC
:100540002093990010919A003BE0311B30939A0060
:1005500022C000919D000130E4F40AE54F7049F497
:100560003091600034FD19C000936000C1E8D0E014
:1005700018C030918C0034FD10C000938C00CDE881
:10058000D0E00FC02795A8F45150A9F4220F000025
:10059000F9CF4AE503C042ED01C0432FC4E1D0E0EA
:1005A00032E011B31461949A11BB02B320E414E158
:1005B0005F93012756E002BB279520F4515021F4A8
:1005C000220FF9CF012756E000003B5A02BBD0F2C0
:1005D000279528F4515029F4220F0000F9CF012764
:1005E00056E0279502BB20F4515021F4220FF9CF99
:1005F000012756E02991332302BB21F60B7E10918F
:100600009E00110FC651D04002BB11F0109398000C
:1006100010E41ABF006111B31B7E402F4B7E5F9127
:1006200000C000C002BB11BB42BB71CF93988CEDE0
:1006300095E00197F1F7939A089593988CED95E0E2
:100640000197F1F7089580E380936E0081E3809332
:100650006F0082E38093700083E38093710084E3F2
:100660008093720085E38093730086E38093740027
:1006700087E38093750088E38093760089E3809315
:10068000770080E2809378008AE380937900089570
:1006900092B39C7F982B660F962B92BB28EB3BE086
:1006A000C9010197F1F7939AC9010197F1F788B34E
:1006B000942F9F73807C982B98BB82B3407C8F7360
:1006C000842B82BBC9010197F1F79398C901019767
:1006D000F1F7089580E060E041E0DADF0895942FBB
:1006E000482F440F440F4860660F462B492B80E08B
:1006F00060E0CEDF08950F931F9388EC9FEA019787
:10070000F1F780E060E040E3C3DF88E99AE3019716
:10071000F1F780E060E040E3BBDF08EB1BE0C801DD
:100720000197F1F780E060E040E3B2DFC801019794
:10073000F1F780E060E04CE3ABDF80E060E048E0B0
:10074000A7DFC8DF80E060E046E0A2DF81E060E094
:1007500040E0C5DF1F910F910895482F440F440FCB
:10076000440F4061660F660F462B80E060E090DF2B
:10077000089591E19093670085E1809368008093EC
:10078000690090936A0084E080936B008EE0809310
:100790006C008FE180936D0008950F931F93482F95
:1007A00093980CED15E0C8010197F1F7939A406812
:1007B00080E060E06DDFC8010197F1F79398C80110
:1007C0000197F1F71F910F9108950F931F93482FF1
:1007D00093980CED15E0C8010197F1F7939A4064E6
:1007E00080E060E055DFC8010197F1F79398C801F8
:1007F0000197F1F71F910F9108950F931F93482FC1
:1008000093980CED15E0C8010197F1F7939A81E0F8
:1008100060E03EDFC8010197F1F79398C8010197A6
:10082000F1F71F910F910895482F81E061E030DFCB
:100830000895EF92FF921F93CF93DF939ADFC7E65D
:10084000D0E010E088EBE82E8BE0F82E812FBDDFA2
:100850008991D3DFC7010197F1F71F5F1830B1F716
:10086000DF91CF911F91FF90EF9008951F93162F66
:1008700094DF812FC2DF1F910895959A959808956E
:1008800083B3877008958F929F92AF92BF92CF9259
:10089000DF92EF92FF920F931F93CF93DF93E2E6E5
:1008A000F0E040E050E060E67AEE14E0812E912C1A
:1008B000B2E0AB2EB12CA3E0CA2ED12C91E0E92EF0
:1008C000F12C06E010E0C7E0D0E0A5E0B0E08081C8
:1008D00085BB83B38770873009F43CC08330B9F09F
:1008E000843028F4813011F18230D8F424C085306E
:1008F00049F0853088F0863069F5CB010197F1F732
:10090000C7011DC0CB010197F1F7C50118C0CB018C
:100910000197F1F7C40113C0CB010197F1F7C601AC
:100920000EC0CB010197F1F7CD0109C0CB010197B2
:10093000F1F7C80104C0CB010197F1F7CE01042EF5
:1009400002C0880F991F0A94E2F7282B392BCB019C
:100950000197F1F731964D5F5F4F80E0E636F8077B
:1009600009F0B5CFC901DF91CF911F910F91FF9091
:10097000EF90DF90CF90BF90AF909F908F900895B1
:100980001F93CF93DF93EC018091B800162F861749
:1009900008F4182F8091B700882349F474DF888306
:1009A00019821A821B821C821D821E821F828091E4
:1009B000B700810F8093B7008091B800811B8093AE
:1009C000B800812FDF91CF911F9108950F931F934E
:1009D000CF93DF93EC01062F1091B800112309F497
:1009E0006BC08091B700882309F065C02CDE898137
:1009F0008530A1F1863009F44BC0843009F049C03C
:100A0000EA81F0E0E259FF4F808180937A00EB8128
:100A1000F0E0E259FF4F808180937B00EC81F0E0B1
:100A2000E259FF4F808180937C00ED81F0E0E25934
:100A3000FF4F808180937D00EE81F0E0E259FF4F0F
:100A4000808180937E00EF81F0E0E259FF4F80814A
:100A500080937F0081E0809380001BC03BDE80E8B4
:100A600060E304DF81E860E301DF82E86AE3FEDE41
:100A700083E860E3FBDE84E860E3F8DE85E86AE3B0
:100A8000F5DE86E860E3F2DE87E860E3EFDE01C0D2
:100A900021DE602F101708F4612F8091B700860FB8
:100AA0008093B7008091B800861B8093B80090E0D7
:100AB000882319F401C002C091E0892FDF91CF9102
:100AC0001F910F910895FC0180818076803261F43E
:100AD0008181813011F0893039F488E08093B80049
:100AE0001092B7008FEF089580E008951F932EE0D5
:100AF00088E190E00FB6F894A89581BD0FBE21BDA6
:100B00008FE387BB18BA88E784BB8FE785BB8BEE82
:100B100081BB12BADEDA8C9A20E04CE251E004C0CC
:100B2000A895CA010197F1F72150D1F78C987894D4
:100B300084EC99E02CE231E0F9013197F1F701976B
:100B4000D9F7D9DD76DE1092800014E6A895F0DAA8
:100B500080918000882319F08130C1F70CC085E8AE
:100B600061E384DE86E861E381DE87E861E37EDEBF
:100B700010938000EBCF80E860917A0077DE81E807
:100B800060917B0073DE82E86AE370DE83E8609147
:100B90007C006CDE84E860917D0068DE85E86AE3B5
:100BA00065DE86E860917E0061DE87E860917F0007
:080BB0005DDECCCFF894FFCF0D
:060BB8005AFF6F5F3F775A
:00000001FF
