:100000004CC0DAC165C064C063C062C061C060C07A
:100010005FC05EC05DC05CC05BC05AC059C058C004
:1000200057C056C055C00403090412036F00620094
:100030006400650076002E00610074001403440023
:10004000610074006100530074006F00720065006D
:10005000120110010000000834126824000101029E
:10006000000109022200010100800A0904000001C8
:10007000030000000921010100012216000705818B
:10008000030800640600FF0901A101150026FF0016
:10009000750895080900B20201C011241FBECFE502
:1000A000D4E0DEBFCDBF10E0A0E6B0E0EAE4F7E0C8
:1000B00002C005900D92A236B107D9F710E0A2E672
:1000C000B0E001C01D92AB39B107E1F7C2D23BC32A
:1000D00097CF85B7826085BF8BB780648BBF8BE479
:1000E000809371008AE58093700008951F93DC016E
:1000F000162F8091700084FF07C08091710098E8EE
:1001000089278093710003C08AE580937000912F46
:10011000E2E7F0E08D91819391501916DCF382E7CC
:1001200090E0612F45D11C5F109370001F910895DE
:100130001F93CF93DF9360918100635067FDBDC033
:1001400080917E00CCE0D0E0C81BD109CB57DF4FB7
:1001500080917D008D3209F09EC0683009F0ABC0FF
:1001600083EC809365008AE58093600010926200C2
:100170008881807639F0CE0159D2282F8F3F09F43B
:1001800079C07FC09A8110926E008981882321F402
:1001900010926F0022E067C0853019F490938200BE
:1001A00061C0863009F04AC08B81813019F480E546
:1001B00090E01BC0823041F482E690E09093800092
:1001C00080937F0022E236C08330F9F48A8188234D
:1001D00041F486E290E09093800080937F0024E0D9
:1001E00029C0813041F48AE290E0909380008093AE
:1001F0007F0022E11FC08230E1F48CE390E0909315
:10020000800080937F0024E115C0813241F484E7AF
:1002100090E09093800080937F0029E00BC08232B1
:1002200041F484E890E09093800080937F0026E181
:1002300001C020E080E48093620023C0883021F474
:1002400021E084E890E011C0893019F49093840093
:1002500009C08A3011F421E006C08B3019F48BE418
:100260008093710020E08EE690E090938000809370
:100270007F0007C0888187FD2E8180E8809362001F
:1002800006C08F81882319F48E81821708F0822F8F
:100290008093610010C08091620087FF0CC0CE0186
:1002A000F2D18F3F21F48EE18093600004C0882357
:1002B00011F010926100109281008091600084FF23
:1002C00054C0809161008F3F09F44FC0182F8930CE
:1002D00008F018E0811B809361008091650098E828
:1002E000892780936500112371F18091620087FF57
:1002F00008C086E690E0612FE6D1182F893078F5A6
:1003000022C020917F003091800086FF0AC0912F8B
:10031000F901A6E6B0E084918D9331969150D9F71A
:1003200008C0912FD901E6E6F0E08D9181939150BC
:10033000E1F7C90101961150810F911D1F5F909344
:10034000800080937F0086E690E0612F31D0612F9E
:100350006C5F6C3041F08FEF8093610004C08FEFD1
:10036000809361006EE16093600094E180B38471DA
:1003700031F49150D9F71092820010927C00DF91F5
:10038000CF911F910895A82FB92F80E090E041E010
:1003900050EA609530E009C02D91822797958795A6
:1003A00010F084279527305EC8F36F5FA8F3089597
:1003B000EADF8D939D930895CF93CFB7CF93C395E5
:1003C000849BE9F7849B09C0849B07C0849B05C07C
:1003D000849B03C0849B01C0A3C0DF93C0917E00B7
:1003E000DD27CB57DF4F849B02C0DF91EBCF2F93EC
:1003F0000F931F9300B32FEF04FB20F94F933F930C
:1004000010B34FEF012704FB21F93BE031C04E7FD1
:10041000012F10B3216028C0102F4D7F22600000F3
:1004200000B329C04B7F2460012F000010B32BC004
:1004300010B3477F28602AC04F7E00B320612CC0D4
:100440004F7D10B320622FC04F7B00B3206432C0B9
:10045000422700B349934FEF0000102714FB20F907
:1004600010B31471C9F1297F91F2012704FB21F91E
:1004700000B3237F89F2315058F1102714FB22F981
:1004800010B3277E79F2012704FB23F92F7C81F238
:1004900000B3102714FB24F92F7971F200C010B3B8
:1004A000012704FB25F92F7359F200C000B3102770
:1004B00014FB26F9223040F200C010B3012704FBE0
:1004C00027F9243028F64F77206810B30000F9CFC1
:1004D00010E41ABF002719C03B503195C31BD04010
:1004E00010E41ABF0881033CF9F00B34E9F02091C5
:1004F0007C001981110F1213EDCF4A81441F093678
:1005000041F10D3211F0013E29F7009383003F9134
:100510004F911F910F912F91DF91CAB7C6FD4FCF19
:10052000CF91CFBFCF91189520918300222379F3EB
:1005300010918100112369F534306AF13093810004
:1005400020937D0010917E003BE0311B30937E00B4
:1005500022C0009181000130E4F40AE54F7049F4B3
:100560003091600034FD19C000936000C5E6D0E012
:1005700018C03091700034FD10C000937000C1E7C6
:10058000D0E00FC02795A8F45150A9F4220F000025
:10059000F9CF4AE503C042ED01C0432FC4E1D0E0EA
:1005A00032E011B31461949A11BB02B320E414E158
:1005B0005F93012756E002BB279520F4515021F4A8
:1005C000220FF9CF012756E000003B5A02BBD0F2C0
:1005D000279528F4515029F4220F0000F9CF012764
:1005E00056E0279502BB20F4515021F4220FF9CF99
:1005F000012756E02991332302BB21F60B7E10918F
:100600008200110FC651D04002BB11F010937C0044
:1006100010E41ABF006111B31B7E402F4B7E5F9127
:1006200000C000C002BB11BB42BB71CFFC01808186
:100630008076803261F48181813011F0893039F423
:1006400088E080936400109263008FEF089580E04B
:1006500008952EE088E190E00FB6F894A89581BD4A
:100660000FBE21BD36DD8C9A20E048EB5BE004C074
:10067000A895CA010197F1F72150D1F78C98789489
:10068000A89556DDFDCF1F93209164002223B9F079
:10069000162F261708F4122F6091630070E0412F87
:1006A00050E03BD080916300810F80936300809184
:1006B0006400811B8093640090E0882309F491E03A
:1006C000892F1F9108951F9320916400162F2617DC
:1006D00008F4122F6091630070E0412F50E00DD0BC
:1006E00080916300810F8093630080916400811B7F
:1006F00080936400812F1F910895DC01CB01FC01E0
:10070000E199FECF06C0FFBBEEBBE09A31960DB279
:100710000D9241505040B8F70895DC01CB0102C062
:100720002D9105D041505040D8F70895262FE199DA
:10073000FECF9FBB8EBB2DBB0FB6F894E29AE19A19
:0A0740000FBE01960895F894FFCF54
:02074A005AFF54
:00000001FF
