:100000004CC0DAC165C064C063C062C061C060C07A
:100010005FC054C55DC05CC05BC05AC059C058C009
:1000200057C056C055C00403090412036F00620094
:100030006400650076002E00610074001403440023
:10004000610074006100530074006F00720065006D
:10005000120110010000000834126824000101029E
:10006000000109022200010100800A0904000001C8
:10007000030000000921010100012216000705818B
:10008000030800640600FF0901A101150026FF0016
:10009000750895800900B20201C011241FBECFE58A
:1000A000D4E0DEBFCDBF11E0A0E6B0E0E4E4F1E1D2
:1000B00002C005900D92AC30B107D9F711E0ACE069
:1000C000B1E001C01D92A339B107E1F7ADD638C840
:1000D00097CF85B7826085BF8BB780648BBF8BE479
:1000E000809363018AE58093620108951F93DC0188
:1000F000162F8091620184FF07C08091630198E808
:1001000089278093630103C08AE580936201912F60
:10011000E4E6F1E08D91819391501916DCF384E6C9
:1001200091E0612F45D11C5F109362011F910895EA
:100130001F93CF93DF9360917301635067FDBDC040
:1001400080917001CCE0D0E0C81BD109C958DE4FC6
:1001500080916F018D3209F09EC0683009F0ABC00C
:1001600083EC809357018AE58093600010920C0124
:100170008881807639F0CE018ED4282F8F3F09F404
:1001800079C07FC09A81109260018981882321F40F
:100190001092610122E067C0853019F490937401D8
:1001A00061C0863009F04AC08B81813019F480E546
:1001B00090E01BC0823041F482E690E0909372019F
:1001C0008093710122E236C08330F9F48A8188235A
:1001D00041F486E290E0909372018093710124E0F3
:1001E00029C0813041F48AE290E0909372018093BB
:1001F000710122E11FC08230E1F48CE390E0909322
:1002000072018093710124E115C0813241F484E7C9
:1002100090E0909372018093710129E00BC08232CB
:1002200041F484E890E0909372018093710126E19B
:1002300001C020E080E480930C0123C0883021F4C9
:1002400021E086E791E011C0893019F4909376019E
:1002500009C08A3011F421E006C08B3019F48BE418
:100260008093630120E080E691E090937201809397
:10027000710107C0888187FD2E8180E880930C0181
:1002800006C08F81882319F48E81821708F0822F8F
:100290008093610010C080910C0187FF0CC0CE01DB
:1002A0004BD38F3F21F48EE18093600004C08823FC
:1002B00011F010926100109273018091600084FF30
:1002C00054C0809161008F3F09F44FC0182F8930CE
:1002D00008F018E0811B809361008091570198E835
:1002E000892780935701112371F180910C0187FFB9
:1002F00008C088E591E0612FF9D2182F893078F590
:1003000022C0209171013091720186FF0AC0912FA5
:10031000F901A8E5B1E084918D9331969150D9F718
:1003200008C0912FD901E8E5F1E08D9181939150BA
:10033000E1F7C90101961150810F911D1F5F909344
:1003400072018093710188E591E0612F31D0612FB6
:100350006C5F6C3041F08FEF8093610004C08FEFD1
:10036000809361006EE16093600094E180B38471DA
:1003700031F49150D9F71092740110926E01DF910F
:10038000CF911F910895A82FB92F80E090E041E010
:1003900050EA609530E009C02D91822797958795A6
:1003A00010F084279527305EC8F36F5FA8F3089597
:1003B000EADF8D939D930895CF93CFB7CF93C395E5
:1003C000849BE9F7849B09C0849B07C0849B05C07C
:1003D000849B03C0849B01C0A3C0DF93C0917001C4
:1003E000DD27C958DE4F849B02C0DF91EBCF2F93EE
:1003F0000F931F9300B32FEF04FB20F94F933F930C
:1004000010B34FEF012704FB21F93BE031C04E7FD1
:10041000012F10B3216028C0102F4D7F22600000F3
:1004200000B329C04B7F2460012F000010B32BC004
:1004300010B3477F28602AC04F7E00B320612CC0D4
:100440004F7D10B320622FC04F7B00B3206432C0B9
:10045000422700B349934FEF0000102714FB20F907
:1004600010B31471C9F1297F91F2012704FB21F91E
:1004700000B3237F89F2315058F1102714FB22F981
:1004800010B3277E79F2012704FB23F92F7C81F238
:1004900000B3102714FB24F92F7971F200C010B3B8
:1004A000012704FB25F92F7359F200C000B3102770
:1004B00014FB26F9223040F200C010B3012704FBE0
:1004C00027F9243028F64F77206810B30000F9CFC1
:1004D00010E41ABF002719C03B503195C31BD04010
:1004E00010E41ABF0881033CF9F00B34E9F02091C5
:1004F0006E011981110F1213EDCF4A81441F093685
:1005000041F10D3211F0013E29F7009375013F9141
:100510004F911F910F912F91DF91CAB7C6FD4FCF19
:10052000CF91CFBFCF91189520917501222379F3F8
:1005300010917301112369F534306AF1309373011E
:1005400020936F01109170013BE0311B30937001DB
:1005500022C0009173010130E4F40AE54F7049F4C0
:100560003091600034FD19C000936000C7E5D1E010
:1005700018C03091620134FD10C000936201C3E6DF
:10058000D1E00FC02795A8F45150A9F4220F000024
:10059000F9CF4AE503C042ED01C0432FC4E1D0E0EA
:1005A00032E011B31461949A11BB02B320E414E158
:1005B0005F93012756E002BB279520F4515021F4A8
:1005C000220FF9CF012756E000003B5A02BBD0F2C0
:1005D000279528F4515029F4220F0000F9CF012764
:1005E00056E0279502BB20F4515021F4220FF9CF99
:1005F000012756E02991332302BB21F60B7E10918F
:100600007401110FC651D04002BB11F010936E015E
:1006100010E41ABF006111B31B7E402F4B7E5F9127
:1006200000C000C002BB11BB42BB71CF92B3880FA8
:10063000957F892B660F660F660F862B82BB959878
:1006400028EB3BE0C9010197F1F7959AC9010197A1
:10065000F1F788B3942F9F73807C982B98BB82B35B
:10066000407C8F73842B82BBC9010197F1F7959869
:1006700084E08A95F1F7089580E060E041E0D6DFFC
:100680000895942F482F440F440F4860660F462B5F
:10069000492B80E060E0CADF089588EC9FEA01976B
:1006A000F1F780E060E040E3C1DF88E99AE3019779
:1006B000F1F780E060E04CE3B9DF80E060E048E023
:1006C000B5DFDADF80E060E046E0B0DF81E060E0E7
:1006D00040E0D7DF0895482F440F440F440F406196
:1006E000660F660F462B80E060E0A0DF0895482F7C
:1006F000406880E060E09ADF0895482F406480E021
:1007000060E094DF0895482F81E060E08FDF089576
:10071000482F81E061E08ADF08951F93CF93DF9334
:10072000CCEAD0E010E0812FE8DF8991ECDF1F5F99
:100730001033C9F7DF91CF911F9108951F93CF9385
:10074000DF93CCEDD0E010E3812FD7DF8991DBDFA1
:100750001F5F1036C9F7DF91CF911F9108951F9346
:10076000162FC5DF812FCFDF1F910895959A959899
:100770000895AF92BF92CF92DF92EF92FF920F93C4
:100780001F93CF93DF93E8EAF0E020E030E040E011
:1007900050E064E0A62EB12C92E0C92ED12C81E06D
:1007A000E82EF12C03E010E0C6E0D0E0A5E0B0E0D8
:1007B00067E070E0808185BB83B38077803739F153
:1007C0008033A1F0813338F48031B1F0803291F080
:1007D0008823A1F01CC0803539F0803619F08034B0
:1007E000B1F406C0C7010BC0C60109C0C50107C0EE
:1007F000C80105C0CD0103C0CE0101C0CB01042E4C
:1008000002C0880F991F0A94E2F7282B392B3196E2
:100810004D5F5F4F80E0EC3AF80761F6C901DF9168
:10082000CF911F910F91FF90EF90DF90CF90BF90ED
:10083000AF9008959EDF80329105E9F181329105F4
:10084000A0F48430910589F18530910538F4813028
:10085000910539F182309105D9F525C0883091058F
:1008600031F180319105A1F524C021E0803092075B
:1008700041F121E08130920738F480349105E9F0AC
:100880008038910529F51BC024E080309207E9F0FB
:1008900028E080309207D9F022E080309207C1F43E
:1008A00012C081E0089582E0089583E0089584E015
:1008B000089585E0089586E0089587E0089588E02A
:1008C000089589E008958AE008958BE008958CE00A
:1008D0000895CF93DF93EB010ADF02C0219613DF67
:1008E00088818823D9F7DF91CF9108951F93CF9303
:1008F000DF93EC0180919101162F861708F4182FD1
:1009000080919001882349F495DF888319821A82A7
:100910001B821C821D821E821F8280919001810F8A
:100920008093900180919101811B80939101812F8F
:10093000DF91CF911F9108950F931F93CF93DF9372
:10094000EC01062F10919101112309F49DC08091B3
:100950009001882309F097C08981883009F478C014
:10096000893050F4853009F45BC0863009F460C0EA
:10097000843009F076C00AC08A3009F46DC08A302C
:1009800008F468C08C3009F06CC06AC080910D0119
:10099000823321F071DE82E380930D0180E862E60C
:1009A00070E097DF6A81606388E8D9DE6B816063FD
:1009B00089E8D5DE6C8160638BE8D1DE6D81606390
:1009C0008CE8CDDE6E8160638EE8C9DE6F81606386
:1009D0008FE8C5DE8AE86AE3C2DE8DE86AE3BFDE3F
:1009E00080EC6BE670E075DF8BEC64E770E071DF44
:1009F000888164E677D3682F606388ECB0DE8881F5
:100A000064E670D3892F6AE06DD3682F606389EC48
:100A1000A6DE88816AE066D390638AEC692F06C0FF
:100A2000EA81F0E0E456FF4F8FEC608198DE19C058
:100A300023DE84E680930D0110920E018A8180935B
:100A400018018B81809319018C8180931A0109C050
:100A500084E103C085E101C086E180930E0101C0FD
:100A60000BDE602F101708F4612F80919001860F24
:100A70008093900180919101861B8093910190E079
:100A8000882319F401C002C091E0892FDF91CF9132
:100A90001F910F910895FC0180818076803261F46E
:100AA0008181813011F0893039F488E0809391019F
:100AB000109290018FEF089580E008951F920F9299
:100AC0000FB60F9211248F939F93AF93BF93EF9321
:100AD000FF9386E182BFE3E2F1E080819181A28110
:100AE000B3810097A105B10539F00197A109B109BA
:100AF00080839183A283B383349681E0E335F80742
:100B000061F7FF91EF91BF91AF919F918F910F90FE
:100B10000FBE0F901F901895EF92FF920F931F93A7
:100B200020910E01222321F0213009F033C1F4C0BD
:100B30008034910509F448C081349105B8F48430BB
:100B40009105B1F18530910538F48130910549F175
:100B5000029709F04FC028C08031910579F18032A9
:100B6000910579F1089709F045C025C022E0803051
:100B7000920799F122E08130920738F4803891058C
:100B800031F180509140B1F525C028E080309207C6
:100B900051F12AE08030920749F18050944051F59C
:100BA0001FC08FEC61E302C08FEC62E3D8DD22C08E
:100BB0008FEC63E3FBCF8FEC64E3F8CF8FEC65E35E
:100BC000F5CF8FEC66E3F2CF8FEC67E3EFCF8FECDE
:100BD00068E3ECCF8FEC69E3E9CF8FEC6AE2E6CF14
:100BE0008FEC60E3E3CF8FEC63E2E0CF45DD81E0A3
:100BF00080930E0180912B0190912C01A0912D01E9
:100C0000B0912E010097A105B10509F0C3C08AE596
:100C100090E0A0E0B0E080932B0190932C01A09392
:100C20002D01B0932E018091530190915401A09118
:100C30005501B091560189369105A105B10520F401
:100C40000196A11DB11D04C081E090E0A0E0B0E0DC
:100C50008093530190935401A0935501B093560192
:100C600088E869E770E035DEE0905301F0905401C8
:100C70000091550110915601C801B70124E630E0FA
:100C800040E050E03BD220638AEC622F68DDC8016F
:100C9000B70124E630E040E050E030D22AE030E016
:100CA00040E050E02BD220638BEC622F58DDC8016E
:100CB000B7012AE030E040E050E020D260638CECE5
:100CC0004EDD80E860E04BDD81E861E048DD82E8F0
:100CD00061E045DD83E861E042DD84E861E03FDD1D
:100CE00085E861E03CDD86E862E039DD80EC63E0C8
:100CF00036DD81EC64E033DD82EC64E030DD83ECF2
:100D000064E02DDD84EC64E02ADD85EC64E027DD21
:100D100086EC65E024DD3EC080E862E870E0D9DD65
:100D200010911801812F6AE0DDD1682F606388E897
:100D300016DD812F6AE0D6D1906389E8692F0FDD37
:100D40008AE86AE30CDD10911901812F6AE0CAD1AB
:100D5000682F60638BE803DD812F6AE0C3D1906365
:100D60008CE8692FFCDC8DE86AE3F9DC10911A014C
:100D7000812F6AE0B7D1682F60638EE8F0DC812FA5
:100D80006AE0B0D190638FE8692FE9DC80EC6BE812
:100D900070E09FDD1F910F91FF90EF9008951F93DA
:100DA00080910E018823F1F580E862E870E091DD22
:100DB00010911801812F6AE095D1682F606388E84F
:100DC000CEDC812F6AE08ED1906389E8692FC7DC81
:100DD0008AE86AE3C4DC10911901812F6AE082D1AC
:100DE000682F60638BE8BBDC812F6AE07BD1906366
:100DF0008CE8692FB4DC8DE86AE3B1DC10911A014C
:100E0000812F6AE06FD1682F60638EE8A8DC812FA4
:100E10006AE068D190638FE8692FA1DC80EC6BE811
:100E200070E057DD1F9108952F923F924F925F928D
:100E30006F927F928F929F92AF92BF92CF92DF92EA
:100E4000EF92FF921F93CF93DF932EE088E190E023
:100E50000FB6F894A89581BD0FBE21BD8FE387BB67
:100E600018BA8FE084BB8FE785BB8BEE81BB12BACB
:100E700030D98C9A20E04CE251E004C0A895CA0118
:100E80000197F1F72150D1F78C98789484EC99E090
:100E90002CE231E0F9013197F1F70197D9F789B7E1
:100EA000816089BF83B7846083BF80E882BFF5DB40
:100EB00034DC44DC88E48093100110920F0110921E
:100EC0000E01E3E2F1E0119211921192119281E090
:100ED000E335F807C1F781E080931B0180931C0183
:100EE00010921D0182E080931E0110921F0110924A
:100EF0002001109221011092220110920D011092F6
:100F000018011092190110921A01109217011092F3
:100F10001601109253011092540110925501109233
:100F20005601B0E72B2EB7E13B2EACED4A2EA5E0E3
:100F30005A2EF8EB6F2EFBE07F2EE8EC8E2E912CD4
:100F4000A12CB12C76E0C72ED12CE12CF12CC0E0E5
:100F5000D0E1A895EDD880910E01843179F482B367
:100F6000909111018E7F892B82BB9F5F909311011D
:100F7000923011F410921101C10121C0853179F430
:100F800082B3909111018E7F892B82BB9F5F9093DA
:100F90001101923011F410921101C30110C0863179
:100FA00081F482B3909111018E7F892B82BB9F5F68
:100FB00090931101923011F410921101C201019726
:100FC000F1F78091270190912801A0912901B0911A
:100FD0002A010097A105B10509F046C080922701BA
:100FE00090922801A0922901B0922A012091180123
:100FF000273148F4809119018B33A1F480911A01B3
:101000008B3381F41EC0273169F4809119018B3331
:1010100049F480911A018B3329F41092180110922F
:10102000190120C0909119019B3328F480911A0175
:101030008B3359F414C09B3341F480911A018B33E4
:1010400021F42F5F20931801EACF80911A018B338E
:1010500020F48F5F80931A0107C08B3329F49F5FC0
:101060009093190110921A0110910D01123309F495
:1010700070CF8091230190912401A0912501B0911E
:1010800026010097A105B10509F063CFC0922301A5
:10109000D0922401E0922501F09226016ADB9C01A6
:1010A0009093150180931401809112019091130186
:1010B0002817390729F0309313012093120104C037
:1010C000D0931501C0931401112331F480911401C0
:1010D0009091150121DD3DCF143609F03ACF49DB5F
:1010E0005EDE37CF991B79E004C0991F961708F090
:1010F000961B881F7A95C9F780950895A1E21A2E4C
:10110000AA1BBB1BFD010DC0AA1FBB1FEE1FFF1FAB
:10111000A217B307E407F50720F0A21BB30BE40BFB
:10112000F50B661F771F881F991F1A9469F7609542
:101130007095809590959B01AC01BD01CF010895FC
:04114000F894FFCF51
:101144005AFF4F6E2054696D6520005374617469B1
:101154006F6E2000202020200057454C434F4D4502
:10116400200020202054696D652000537461746947
:101174006F6E20303732202020202000303132336F
:101184003435363738392A237D7B777E1F1010108B
:10119400101010101F000000000000001F010101CA
:1011A40001010101101010101010101F00000000A8
:1011B4000000001F010101010101011F1F10171789
:1011C400171717171F001F1F1F1F1F1F1F011D1D8C
:1011D4001D1D1D1D171717171717001F1F1F1F1F72
:0C11E4001F1F001F1D1D1D1D1D1D001FD5
:00000001FF
