:100000004CC0DAC165C064C063C062C061C060C07A
:100010005FC06FC55DC05CC05BC05AC059C058C0EE
:1000200057C056C055C00403090412036F00620094
:100030006400650076002E00610074001403440023
:10004000610074006100530074006F00720065006D
:10005000120110010000000834126824000101029E
:10006000000109022200010100800A0904000001C8
:10007000030000000921010100012216000705818B
:10008000030800640600FF0901A101150026FF0016
:10009000750895800900B20201C011241FBECFE58A
:1000A000D4E0DEBFCDBF11E0A0E6B0E0ECE1F2E1CC
:1000B00002C005900D92A437B107D9F711E0A4E76B
:1000C000B1E001C01D92AD3FB107E1F7C7D7A4C8A9
:1000D00097CF85B7826085BF8BB780648BBF8BE479
:1000E0008093D1018AE58093D00108951F93DC01AC
:1000F000162F8091D00184FF07C08091D10198E82C
:1001000089278093D10103C08AE58093D001912F84
:10011000E2EDF1E08D91819391501916DCF382EDBF
:1001200091E0612F45D11C5F1093D0011F9108957C
:100130001F93CF93DF936091E101635067FDBDC0D2
:100140008091DE01CCE0D0E0C81BD109CB51DE4F5D
:100150008091DD018D3209F09EC0683009F0ABC09E
:1001600083EC8093C5018AE580936000109274014E
:100170008881807639F0CE01A9D4282F8F3F09F4E9
:1001800079C07FC09A811092CE018981882321F4A1
:100190001092CF0122E067C0853019F49093E201FC
:1001A00061C0863009F04AC08B81813019F480E546
:1001B00090E01BC0823041F482E690E09093E00131
:1001C0008093DF0122E236C08330F9F48A818823EC
:1001D00041F486E290E09093E0018093DF0124E017
:1001E00029C0813041F48AE290E09093E00180934D
:1001F000DF0122E11FC08230E1F48CE390E09093B4
:10020000E0018093DF0124E115C0813241F484E7ED
:1002100090E09093E0018093DF0129E00BC08232EF
:1002200041F484E890E09093E0018093DF0126E1BF
:1002300001C020E080E48093740123C0883021F461
:1002400021E084EE91E011C0893019F49093E4012B
:1002500009C08A3011F421E006C08B3019F48BE418
:100260008093D10120E08EEC91E09093E0018093A7
:10027000DF0107C0888187FD2E8180E880937401AB
:1002800006C08F81882319F48E81821708F0822F8F
:100290008093610010C08091740187FF0CC0CE0173
:1002A00008D38F3F21F48EE18093600004C088233F
:1002B00011F0109261001092E1018091600084FFC2
:1002C00054C0809161008F3F09F44FC0182F8930CE
:1002D00008F018E0811B809361008091C50198E8C7
:1002E00089278093C501112371F18091740187FFE3
:1002F00008C086EC91E0612FB6D2182F893078F5CE
:1003000022C02091DF013091E00186FF0AC0912FC9
:10031000F901A6ECB1E084918D9331969150D9F713
:1003200008C0912FD901E6ECF1E08D9181939150B5
:10033000E1F7C90101961150810F911D1F5F909344
:10034000E0018093DF0186EC91E0612F31D0612FD5
:100350006C5F6C3041F08FEF8093610004C08FEFD1
:10036000809361006EE16093600094E180B38471DA
:1003700031F49150D9F71092E2011092DC01DF9133
:10038000CF911F910895A82FB92F80E090E041E010
:1003900050EA609530E009C02D91822797958795A6
:1003A00010F084279527305EC8F36F5FA8F3089597
:1003B000EADF8D939D930895CF93CFB7CF93C395E5
:1003C000849BE9F7849B09C0849B07C0849B05C07C
:1003D000849B03C0849B01C0A3C0DF93C091DE0156
:1003E000DD27CB51DE4F849B02C0DF91EBCF2F93F3
:1003F0000F931F9300B32FEF04FB20F94F933F930C
:1004000010B34FEF012704FB21F93BE031C04E7FD1
:10041000012F10B3216028C0102F4D7F22600000F3
:1004200000B329C04B7F2460012F000010B32BC004
:1004300010B3477F28602AC04F7E00B320612CC0D4
:100440004F7D10B320622FC04F7B00B3206432C0B9
:10045000422700B349934FEF0000102714FB20F907
:1004600010B31471C9F1297F91F2012704FB21F91E
:1004700000B3237F89F2315058F1102714FB22F981
:1004800010B3277E79F2012704FB23F92F7C81F238
:1004900000B3102714FB24F92F7971F200C010B3B8
:1004A000012704FB25F92F7359F200C000B3102770
:1004B00014FB26F9223040F200C010B3012704FBE0
:1004C00027F9243028F64F77206810B30000F9CFC1
:1004D00010E41ABF002719C03B503195C31BD04010
:1004E00010E41ABF0881033CF9F00B34E9F02091C5
:1004F000DC011981110F1213EDCF4A81441F093617
:1005000041F10D3211F0013E29F70093E3013F91D3
:100510004F911F910F912F91DF91CAB7C6FD4FCF19
:10052000CF91CFBFCF9118952091E301222379F38A
:100530001091E101112369F534306AF13093E10142
:100540002093DD011091DE013BE0311B3093DE0191
:1005500022C00091E1010130E4F40AE54F7049F452
:100560003091600034FD19C000936000C5ECD1E00B
:1005700018C03091D00134FD10C00093D001C1EDFE
:10058000D1E00FC02795A8F45150A9F4220F000024
:10059000F9CF4AE503C042ED01C0432FC4E1D0E0EA
:1005A00032E011B31461949A11BB02B320E414E158
:1005B0005F93012756E002BB279520F4515021F4A8
:1005C000220FF9CF012756E000003B5A02BBD0F2C0
:1005D000279528F4515029F4220F0000F9CF012764
:1005E00056E0279502BB20F4515021F4220FF9CF99
:1005F000012756E02991332302BB21F60B7E10918F
:10060000E201110FC651D04002BB11F01093DC0182
:1006100010E41ABF006111B31B7E402F4B7E5F9127
:1006200000C000C002BB11BB42BB71CF92B39C7F24
:10063000982B660F962B92BB939828EB3BE0C90151
:100640000197F1F7939AC9010197F1F788B3942FB5
:100650009F73807C982B98BB82B3407C8F73842BD4
:1006600082BBC9010197F1F79398C9010197F1F78E
:10067000939884E08A95F1F7089580E060E041E086
:10068000D5DF0895942F482F440F440F4860660F1C
:10069000462B492B80E060E0C9DF089588EC9FEA93
:1006A0000197F1F780E060E040E3C0DF88E99AE37A
:1006B0000197F1F780E060E04CE3B8DF80E060E0B4
:1006C00048E0B4DFDADF80E060E046E0AFDF81E001
:1006D00060E040E0D7DF0895482F440F440F440FF7
:1006E0004061660F660F462B80E060E09FDF089553
:1006F000482F406880E060E099DF0895482F40640B
:1007000080E060E093DF0895482F81E060E08EDFB5
:100710000895482F81E061E089DF0895EF92FF920C
:100720001F93CF93DF93CBE6D1E010E088EBE82E68
:100730008BE0F82E812FE2DF8991E6DFC701019778
:10074000F1F71F5F1830B1F7DF91CF911F91FF9044
:10075000EF9008951F93162FCBDF812FD5DF1F91C8
:100760000895959A95980895AF92BF92CF92DF928F
:10077000EF92FF920F931F93CF93DF93E7E6F1E0A1
:1007800020E030E040E050E071E0A72EB12C62E0C4
:10079000C62ED12C96E0E92EF12C04E010E0C3E047
:1007A000D0E0A7E0B0E065E070E0808185BB83B376
:1007B0008770873029F1833071F0843028F48130DC
:1007C00081F0823080F413C0853039F0853068F0D4
:1007D0008630B1F404C0C5010BC0C60109C0C80110
:1007E00007C0CE0105C0CB0103C0C70101C0CD01C8
:1007F000042E02C0880F991F0A94E2F7282B392B88
:1008000031964D5F5F4F81E0EB36F80771F6C90115
:10081000DF91CF911F910F91FF90EF90DF90CF90DC
:10082000BF90AF900895A0DF28E08030920751F08C
:100830002AE08030920741F022E08030920729F4CC
:1008400081E0089582E0089583E00895CF93DF93D7
:10085000EB014EDF02C0219657DF88818823D9F74C
:10086000DF91CF9108951F93CF93DF93EC01809197
:10087000FC01162F861708F4182F8091FB0188239E
:1008800049F4D1DF888319821A821B821C821D825F
:100890001E821F828091FB01810F8093FB0180915A
:1008A000FC01811B8093FC01812FDF91CF911F916F
:1008B0000895DF92EF92FF920F931F93CF93DF93F0
:1008C000EC01D62EE090FC01EE2009F4F5C08091F9
:1008D000FB01882309F0EFC08981863009F458C0F4
:1008E000873030F4843059F0853009F0D2C02BC005
:1008F000873009F454C0883009F0CBC07CC08091A7
:100900007501823331F0B9DE82E380937501809303
:10091000760180E862E670E099DF80EC63E770E0E2
:1009200095DF8BEC6AE770E091DF6A81606386ECAB
:1009300011DF6B81606387EC0DDF6C81606389EC94
:1009400009DF6D8111C080E860E870E07FDF86EC30
:1009500062E970E07BDF8BEC6AE770E077DF6E8145
:10096000606389ECF7DE6F8160638AECF3DE80916F
:100970007A01882339F488EC6AE3ECDE81E0809325
:100980007A0187C088EC60E2E5DE10927A0181C0CE
:1009900074DE84E680937501109276017AC00A8134
:1009A0000093780180E865E970E050DF0A30B0F02C
:1009B00080EC66EA70E04ADF8AEC63E770E046DFCD
:1009C000802F6AE0F6D3682F606388ECC3DE802F47
:1009D0006AE0EFD3906389EC692F0BC080EC6FEA7B
:1009E00070E034DF8AEC63E770E030DF006389ECAD
:1009F000602FB0DE4EC0F0907B010F2D10E0045C44
:100A00001E4F80ECF8016081A5DE81ECF801618168
:100A1000A1DE82ECF80162819DDE83ECF801638146
:100A200099DE84ECF801648195DE85ECF80165813E
:100A300091DE86ECF80166818DDE87ECF801678136
:100A400089DE88ECF801608585DE89ECF801618536
:100A500081DE8AECF80162857DDE8BECF80163852E
:100A600079DE8CECF801648575DE8DECF801658526
:100A700071DE8EECF80166856DDE8FECF80167851E
:100A800069DE0F2D0F5F00937B010B3111F4109283
:100A90007B016D2DED1408F46E2D8091FB01860F06
:100AA0008093FB018091FC01861B8093FC0190E008
:100AB000882319F401C002C091E0892FDF91CF9102
:100AC0001F910F91FF90EF90DF900895FC018081BE
:100AD0008076803261F48181813011F0893039F47F
:100AE00088E08093FC011092FB018FEF089580E075
:100AF00008951F920F920FB60F9211248F939F9318
:100B0000AF93BF93EF93FF9386E182BFE5E9F1E0F6
:100B100080819181A281B3810097A105B10539F04F
:100B20000197A109B10980839183A283B38334968D
:100B300081E0E53CF80761F7FF91EF91BF91AF913C
:100B40009F918F910F900FBE0F901F9018950F934C
:100B50001F939C0180917601853109F435C186315E
:100B600030F4882371F0843109F019C213C0873141
:100B700009F497C1873108F487C1883109F00FC2A1
:100B8000CFC180E860E0E6DD81E869EB70E05EDE21
:100B900084E1D5C18091800190918101049721F475
:100BA00010928101109280012031310509F464C056
:100BB0002131310598F422303105B9F12330310566
:100BC00028F42130310509F0ABC022C024303105B2
:100BD000C9F12830310509F0A3C041C020383105E2
:100BE00009F471C02138310548F42032310509F487
:100BF00050C02034310509F093C058C081E0203046
:100C0000380709F46DC02050344009F089C076C01F
:100C10000091800110918101802F805461E39ADD61
:100C2000F801E557FE4F81E067C000918001109107
:100C30008101802F805462E38DDDF801E557FE4F7E
:100C400082E05AC00091800110918101802F805470
:100C500063E380DDF801E557FE4F83E04DC000916E
:100C6000800110918101802F805464E373DDF801CD
:100C7000E557FE4F84E040C0009180011091810152
:100C8000802F805465E366DDF801E557FE4F85E06F
:100C900033C00091800110918101802F805466E360
:100CA00059DDF801E557FE4F86E026C0009180012E
:100CB00010918101802F805467E34CDDF801E557E6
:100CC000FE4F87E019C00091800110918101802FB3
:100CD000805468E33FDDF801E557FE4F88E00CC023
:100CE0000091800110918101802F805469E332DDF1
:100CF000F801E557FE4F89E080830CC00091800128
:100D000010918101802F805460E324DDF801E557C4
:100D1000FE4F10820F5F1F4F1093810100938001DF
:100D20008091800190918101049709F038C19091E0
:100D30008B0180918701981731F590918C018091FA
:100D40008801981701F590918D018091890198177C
:100D5000D1F490918E0180918A019817A1F480E0DE
:100D600006C0E82FF0E0E557FE4F10828F5F843019
:100D7000C0F38093790180EC69EC70E067DD83E675
:100D8000809376011CC080EC6AED70E05FDD88E83E
:100D900093E12CE231E0F9013197F1F70197D9F7AE
:100DA0006CDC1092760180E006C0E82FF0E0E55799
:100DB000FE4F10828F5F8430C0F3809379011092D0
:100DC000810110928001EBC02230310509F447C047
:100DD0002330310509F455C02130310509F0DFC059
:100DE0004CDC80E86BEE70E031DD609178016436B8
:100DF000F0F0862F64E6DDD1682F606380ECAADC1A
:100E00008091780190E0845690406AE070E0DDD1F6
:100E1000606381EC9FDC8091780190E08456904083
:100E20006AE070E0D2D1682F606382EC15C06B304D
:100E300078F0862F6AE0BDD1682F606380EC8ADC91
:100E4000809178016AE0B5D1906381EC692F04C08C
:100E50006A3019F0606380EC7DDC86E170C00DDCE7
:100E600080E860E077DC84E690E0A0E0B0E080938A
:100E7000C1019093C201A093C301B093C40187E163
:100E80005EC0109276018BC0232B09F088C0F5DB81
:100E900080E86BEF70E0DADC80EC6DE071E0D6DCCE
:100EA0004DC02115310561F4E8DB80E86BEF70E09F
:100EB000CDDC80EC6DE071E0C9DC109285013EC0B4
:100EC0002050304109F06BC08091C1019091C20166
:100ED000A091C301B091C4010097A105B10509F02B
:100EE0005EC084E690E0A0E0B0E08093C101909302
:100EF000C201A093C301B093C401809185018F30DA
:100F000048F481E061E0E8DB809185018F5F8093A8
:100F1000850145C088E180937601109285013FC02C
:100F20002115310579F4A9DB80E86BEF70E08EDCE8
:100F300080EC6DE071E08ADC1092860185E180939F
:100F400076012DC02050304151F58091C101909122
:100F5000C201A091C301B091C4010097A105B105E0
:100F6000F1F484E690E0A0E0B0E08093C1019093BA
:100F7000C201A093C301B093C401809186018F3058
:100F800048F481E060E0A8DB809186018F5F809368
:100F9000860105C087E180937601109286011F913A
:100FA0000F91089580917601823321F560918F0130
:100FB000606386E8CFDB60919001606387E8CADBFD
:100FC00088E86AE3C7DB60919101606389E8C2DB6E
:100FD0006091920160638AE8BDDB8BE86AE3BADB6B
:100FE0006091930160638CE8B5DB6091940160636C
:100FF0008DE8B0DB0895AC0128EE33E08CE291E09F
:10100000FC013197F1F721503040D1F78091760102
:10101000882319F582E04030580771F088E04030AD
:10102000580799F0452BC9F480E862E670E00EDCC1
:1010300086EC69E171E007C080E86FE171E006DCF1
:1010400086EC60E371E002DC089580E865E970E019
:10105000FDDB86EC66E371E0F9DB0895EF92FF9229
:101060000F931F93CF93DF932EE088E190E00FB6AC
:10107000F894A89581BD0FBE21BD8FE387BB18BA38
:1010800088E784BB8FE785BB8BEE81BB12BA21D882
:101090008C9A20E04CE251E004C0A895CA01019767
:1010A000F1F72150D1F78C98789484EC99E02CE2F8
:1010B00031E0F9013197F1F70197D9F789B78160EC
:1010C00089BF83B7846083BF80E882BFE7DA26DB0D
:1010D00086E0809378011092770110927601E5E91D
:1010E000F1E0119211921192119281E0E53CF80722
:1010F000C1F781E080938701809388011092890174
:1011000082E080938A0110928B0110928C011092E0
:101110008D0110928E011092750110928201109231
:101120008301109284011092810110928001E6E007
:10113000EE2EF12C012D112DC0E0D0E1A895F8D7AD
:101140008091950190919601A0919701B09198019D
:101150000097A105B10591F7E0929501F0929601F3
:101160000093970110939801FFDA9C0190937F01FF
:1011700080937E0180917C0190917D012817390731
:1011800029F030937D0120937C0104C0D0937F012E
:10119000C0937E0180917501882331F480917E0196
:1011A00090917F01D4DCCACF843641F6DDDA23DFAB
:1011B000C5CF991B79E004C0991F961708F0961BBC
:1011C000881F7A95C9F78095089597FB092E072601
:1011D0000AD077FD04D00CD006D000201AF4709508
:1011E00061957F4F0895F6F7909581959F4F0895EB
:1011F000AA1BBB1B51E107C0AA1FBB1FA617B7073D
:1012000010F0A61BB70B881F991F5A95A9F7809558
:0C1210009095BC01CD010895F894FFCF2B
:10121C005AFF2043757272656E742054696D653A7D
:10122C002020002020202020200020202020200012
:10123C002043757272656E74205365636F6E643AE9
:10124C0020002020002053746174696F6E204E754D
:10125C006D6265723A002020202020202020002082
:10126C00202020202020202000496E7075742050F2
:10127C00617373776F72643A0050617373776F7236
:10128C0064204F4B21202020200050617373776F16
:10129C007264204572726F722120005374617469FC
:1012AC006F6E204E756D6265723A00312D4E756D04
:1012BC0062657220322D4D6F76696E67004C6F67D8
:1012CC006520332D457869740030303A3030002079
:1012DC0043757272656E74205365636F6E643A0069
:1012EC0020203A30300020202030300020202020D8
:1012FC002020202020202020202020204D6F7669C7
:10130C006E67204C6F676F2020202020202020202B
:10131C00202020202020205F6F773F11110A041F0E
:04132C001F1F00007F
:00000001FF
