:100000004CC0DAC165C064C063C062C061C060C07A
:100010005FC05EC05DC05CC05BC05AC059C058C004
:1000200057C056C055C00403090412036F00620094
:100030006400650076002E00610074001403440023
:10004000610074006100530074006F00720065006D
:10005000120110010000000834126824000101029E
:10006000000109022200010100800A0904000001C8
:10007000030000000921010100012216000705818B
:10008000030800640600FF0901A101150026FF0016
:10009000750895800900B20201C011241FBECFE58A
:1000A000D4E0DEBFCDBF10E0A0E6B0E0E0EAFAE0C9
:1000B00002C005900D92A236B107D9F710E0A2E672
:1000C000B0E001C01D92AB3BB107E1F7B0D4E6C48C
:1000D00097CF85B7826085BF8BB780648BBF8BE479
:1000E000809391008AE58093900008951F93DC012E
:1000F000162F8091900084FF07C08091910098E8AE
:1001000089278093910003C08AE580939000912F06
:10011000E2E9F0E08D91819391501916DCF382E9C8
:1001200090E0612F45D11C5F109390001F910895BE
:100130001F93CF93DF936091A100635067FDBDC013
:1001400080919E00CCE0D0E0C81BD109CB55DF4F99
:1001500080919D008D3209F09EC0683009F0ABC0DF
:1001600083EC809385008AE58093600010926200A2
:100170008881807639F0CE0107D4282F8F3F09F48B
:1001800079C07FC09A8110928E008981882321F4E2
:1001900010928F0022E067C0853019F49093A2007E
:1001A00061C0863009F04AC08B81813019F480E546
:1001B00090E01BC0823041F482E690E09093A00072
:1001C00080939F0022E236C08330F9F48A8188232D
:1001D00041F486E290E09093A00080939F0024E099
:1001E00029C0813041F48AE290E09093A00080938E
:1001F0009F0022E11FC08230E1F48CE390E09093F5
:10020000A00080939F0024E115C0813241F484E76F
:1002100090E09093A00080939F0029E00BC0823271
:1002200041F484E890E09093A00080939F0026E141
:1002300001C020E080E48093620023C0883021F474
:1002400021E084EA90E011C0893019F49093A40071
:1002500009C08A3011F421E006C08B3019F48BE418
:100260008093910020E08EE890E09093A00080932E
:100270009F0007C0888187FD2E8180E880936200FF
:1002800006C08F81882319F48E81821708F0822F8F
:100290008093610010C08091620087FF0CC0CE0186
:1002A000E1D18F3F21F48EE18093600004C0882368
:1002B00011F0109261001092A1008091600084FF03
:1002C00054C0809161008F3F09F44FC0182F8930CE
:1002D00008F018E0811B809361008091850098E808
:1002E000892780938500112371F18091620087FF37
:1002F00008C086E890E0612F99D1182F893078F5F1
:1003000022C020919F003091A00086FF0AC0912F4B
:10031000F901A6E8B0E084918D9331969150D9F718
:1003200008C0912FD901E6E8F0E08D9181939150BA
:10033000E1F7C90101961150810F911D1F5F909344
:10034000A00080939F0086E890E0612F31D0612F5C
:100350006C5F6C3041F08FEF8093610004C08FEFD1
:10036000809361006EE16093600094E180B38471DA
:1003700031F49150D9F71092A20010929C00DF91B5
:10038000CF911F910895A82FB92F80E090E041E010
:1003900050EA609530E009C02D91822797958795A6
:1003A00010F084279527305EC8F36F5FA8F3089597
:1003B000EADF8D939D930895CF93CFB7CF93C395E5
:1003C000849BE9F7849B09C0849B07C0849B05C07C
:1003D000849B03C0849B01C0A3C0DF93C0919E0097
:1003E000DD27CB55DF4F849B02C0DF91EBCF2F93EE
:1003F0000F931F9300B32FEF04FB20F94F933F930C
:1004000010B34FEF012704FB21F93BE031C04E7FD1
:10041000012F10B3216028C0102F4D7F22600000F3
:1004200000B329C04B7F2460012F000010B32BC004
:1004300010B3477F28602AC04F7E00B320612CC0D4
:100440004F7D10B320622FC04F7B00B3206432C0B9
:10045000422700B349934FEF0000102714FB20F907
:1004600010B31471C9F1297F91F2012704FB21F91E
:1004700000B3237F89F2315058F1102714FB22F981
:1004800010B3277E79F2012704FB23F92F7C81F238
:1004900000B3102714FB24F92F7971F200C010B3B8
:1004A000012704FB25F92F7359F200C000B3102770
:1004B00014FB26F9223040F200C010B3012704FBE0
:1004C00027F9243028F64F77206810B30000F9CFC1
:1004D00010E41ABF002719C03B503195C31BD04010
:1004E00010E41ABF0881033CF9F00B34E9F02091C5
:1004F0009C001981110F1213EDCF4A81441F093658
:1005000041F10D3211F0013E29F70093A3003F9114
:100510004F911F910F912F91DF91CAB7C6FD4FCF19
:10052000CF91CFBFCF9118952091A300222379F3CB
:100530001091A100112369F534306AF13093A100C4
:1005400020939D0010919E003BE0311B30939E0054
:1005500022C00091A1000130E4F40AE54F7049F493
:100560003091600034FD19C000936000C5E8D0E010
:1005700018C03091900034FD10C000939000C1E984
:10058000D0E00FC02795A8F45150A9F4220F000025
:10059000F9CF4AE503C042ED01C0432FC4E1D0E0EA
:1005A00032E011B31461949A11BB02B320E414E158
:1005B0005F93012756E002BB279520F4515021F4A8
:1005C000220FF9CF012756E000003B5A02BBD0F2C0
:1005D000279528F4515029F4220F0000F9CF012764
:1005E00056E0279502BB20F4515021F4220FF9CF99
:1005F000012756E02991332302BB21F60B7E10918F
:10060000A200110FC651D04002BB11F010939C0004
:1006100010E41ABF006111B31B7E402F4B7E5F9127
:1006200000C000C002BB11BB42BB71CFFC012091D6
:100630008400261708F4622F90918300992351F4C7
:1006400080B381708083118212821382148215829A
:1006500016821782960F90938300261B20938400A6
:10066000862F08951F93DC0110918400112309F453
:1006700087C1161708F4612F70918300772309F062
:1006800075C18C918032A1F412968C9112971196BB
:10069000EC911197F0E023E0EE0FFF1F2A95E1F7B0
:1006A000E80FF11DED59FF4F13968C9180835EC1C9
:1006B000813281F498B311962C91822F8F73907CA4
:1006C000892B88BB82B3207C8F73282B22BB959A01
:1006D00095984CC1823209F081C08091640080936A
:1006E0006300809165008093640080916600809330
:1006F0006500809167008093660080916800809318
:100700006700809169008093680080916A008093FF
:10071000690080916B0080936A0080916C008093E7
:100720006B0080916D0080936C0080916E008093CF
:100730006D0080916F0080936E00809170008093B7
:100740006F0080917100809370008091720080939F
:100750007100809173008093720080917400809387
:10076000730080917500809374008091760080936F
:100770007500809177008093760080917800809357
:100780007700809179008093780080917A0080933F
:10079000790080917B0080937A0080917C00809327
:1007A0007B0080917D0080937C0080917E0080930F
:1007B0007D0080917F0080937E00809180008093F7
:1007C0007F008091810080938000809182008093DF
:1007D000810011968C9180938200C8C0833209F009
:1007E00081C08091810080938200809180008093FD
:1007F000810080917F008093800080917E008093B3
:100800007F0080917D0080937E0080917C008093AA
:100810007D0080917B0080937C0080917A008093A2
:100820007B008091790080937A008091780080939A
:100830007900809177008093780080917600809392
:10084000770080917500809376008091740080938A
:100850007500809173008093740080917200809382
:10086000730080917100809372008091700080937A
:10087000710080916F008093700080916E00809372
:100880006F0080916D0080936E0080916C0080936A
:100890006D0080916B0080936C0080916A00809362
:1008A0006B008091690080936A008091680080935A
:1008B0006900809167008093680080916600809352
:1008C000670080916500809366008091640080934A
:1008D0006500809163008093640011968C918093F1
:1008E000630044C0853201F54BE650E020E030E083
:1008F00012C08081982F9695879588278795982B89
:100900009193E417F507A9F72F5F3F4F485F5F4FBB
:100910002430310559F1F90193E0EE0FFF1F9A954C
:10092000E1F7ED59FF4FE5CF863201F54BE650E098
:1009300020E030E012C08081982F991F9927991FDD
:10094000880F982B9193E417F507A9F72F5F3F4F76
:10095000485F5F4F2430310549F0F90183E0EE0F25
:10096000FF1F8A95E1F7ED59FF4FE5CF760F7093A2
:100970008300812F861B8093840090E0882309F4F4
:1009800091E0892F1F910895FC018081807680324B
:1009900061F48181813011F0893039F488E08093ED
:1009A0008400109283008FEF089580E00895FF92F5
:1009B0000F931F93F82E062FA895BADB10E043E0A3
:1009C000000F111F4A95E1F7F801ED59FF4F6EE155
:1009D00070E0A80145595F4F98B32191822F8F7322
:1009E000907C892B88BB82B3207C8F73282B22BB01
:1009F000919885B39F2D9F73807C982B95BB92B364
:100A00008F2D8295869582709D7F892B82BBCB012D
:100A10000197F1F7919885B3807C85BB9198F39409
:100A2000E417F507C9F61F910F91FF9008952EE086
:100A300088E190E00FB6F894A89581BD0FBE21BD66
:100A40008FE387BB18BA84BB80E485BB8AEE81BB89
:100A500012BA3FDB8C9A20E04CE251E004C0A8952A
:100A6000CA010197F1F72150D1F78C98789488B397
:100A7000807C88BB82B38F7382BB959A9598A8952A
:100A800057DB88E060E093DF80E161E090DF80E2A7
:100A900062E08DDF80E463E08ADFF1CFF894FFCF7E
:020AA0005AFFFB
:00000001FF
