:100000004CC0DAC165C064C063C062C061C060C07A
:100010005FC0A1C45DC05CC05BC05AC059C058C0BD
:1000200057C056C055C00403090412036F00620094
:100030006400650076002E00610074001403440023
:10004000610074006100530074006F00720065006D
:10005000120110010000000834126824000101029E
:10006000000109022200010100800A0904000001C8
:10007000030000000921010100012216000705818B
:10008000030800640600FF0901A101150026FF0016
:10009000750895800900B20201C011241FBECFE58A
:1000A000D4E0DEBFCDBF10E0A0E6B0E0EEE9F0E1C5
:1000B00002C005900D92AA3BB107D9F711E0AAEB57
:1000C000B0E001C01D92A134B107E1F7EDD6E5C75C
:1000D00097CF85B7826085BF8BB780648BBF8BE479
:1000E000809315018AE58093140108951F93DC0124
:1000F000162F8091140184FF07C08091150198E8A4
:1001000089278093150103C08AE580931401912FFC
:10011000E6E1F1E08D91819391501916DCF386E1CF
:1001200091E0612F45D11C5F109314011F91089538
:100130001F93CF93DF9360912501635067FDBDC08E
:1001400080912201CCE0D0E0C81BD109C75DDE4F11
:10015000809121018D3209F09EC0683009F0ABC05A
:1001600083EC809309018AE5809360001092BA00C5
:100170008881807639F0CE01DBD3282F8F3F09F4B8
:1001800079C07FC09A81109212018981882321F45D
:100190001092130122E067C0853019F49093260174
:1001A00061C0863009F04AC08B81813019F480E546
:1001B00090E01BC0823041F482E690E090932401ED
:1001C0008093230122E236C08330F9F48A818823A8
:1001D00041F486E290E0909324018093230124E08F
:1001E00029C0813041F48AE290E090932401809309
:1001F000230122E11FC08230E1F48CE390E0909370
:1002000024018093230124E115C0813241F484E765
:1002100090E0909324018093230129E00BC0823267
:1002200041F484E890E0909324018093230126E137
:1002300001C020E080E48093BA0023C0883021F41C
:1002400021E088E291E011C0893019F490932801EF
:1002500009C08A3011F421E006C08B3019F48BE418
:100260008093150120E082E191E090932401809336
:10027000230107C0888187FD2E8180E88093BA0022
:1002800006C08F81882319F48E81821708F0822F8F
:100290008093610010C08091BA0087FF0CC0CE012E
:1002A000FAD28F3F21F48EE18093600004C088234E
:1002B00011F010926100109225018091600084FF7E
:1002C00054C0809161008F3F09F44FC0182F8930CE
:1002D00008F018E0811B809361008091090198E883
:1002E000892780930901112371F18091BA0087FF5A
:1002F00008C08AE091E0612FA8D2182F893078F5E4
:1003000022C0209123013091240186FF0AC0912F41
:10031000F901AAE0B1E084918D9331969150D9F71B
:1003200008C0912FD901EAE0F1E08D9181939150BD
:10033000E1F7C90101961150810F911D1F5F909344
:100340002401809323018AE091E0612F31D0612F55
:100350006C5F6C3041F08FEF8093610004C08FEFD1
:10036000809361006EE16093600094E180B38471DA
:1003700031F49150D9F71092260110922001DF91AB
:10038000CF911F910895A82FB92F80E090E041E010
:1003900050EA609530E009C02D91822797958795A6
:1003A00010F084279527305EC8F36F5FA8F3089597
:1003B000EADF8D939D930895CF93CFB7CF93C395E5
:1003C000849BE9F7849B09C0849B07C0849B05C07C
:1003D000849B03C0849B01C0A3C0DF93C091220112
:1003E000DD27C75DDE4F849B02C0DF91EBCF2F93EB
:1003F0000F931F9300B32FEF04FB20F94F933F930C
:1004000010B34FEF012704FB21F93BE031C04E7FD1
:10041000012F10B3216028C0102F4D7F22600000F3
:1004200000B329C04B7F2460012F000010B32BC004
:1004300010B3477F28602AC04F7E00B320612CC0D4
:100440004F7D10B320622FC04F7B00B3206432C0B9
:10045000422700B349934FEF0000102714FB20F907
:1004600010B31471C9F1297F91F2012704FB21F91E
:1004700000B3237F89F2315058F1102714FB22F981
:1004800010B3277E79F2012704FB23F92F7C81F238
:1004900000B3102714FB24F92F7971F200C010B3B8
:1004A000012704FB25F92F7359F200C000B3102770
:1004B00014FB26F9223040F200C010B3012704FBE0
:1004C00027F9243028F64F77206810B30000F9CFC1
:1004D00010E41ABF002719C03B503195C31BD04010
:1004E00010E41ABF0881033CF9F00B34E9F02091C5
:1004F00020011981110F1213EDCF4A81441F0936D3
:1005000041F10D3211F0013E29F7009327013F918F
:100510004F911F910F912F91DF91CAB7C6FD4FCF19
:10052000CF91CFBFCF91189520912701222379F346
:1005300010912501112369F534306AF130932501BA
:1005400020932101109122013BE0311B30932201C5
:1005500022C0009125010130E4F40AE54F7049F40E
:100560003091600034FD19C000936000C9E0D1E013
:1005700018C03091140134FD10C000931401C5E17E
:10058000D1E00FC02795A8F45150A9F4220F000024
:10059000F9CF4AE503C042ED01C0432FC4E1D0E0EA
:1005A00032E011B31461949A11BB02B320E414E158
:1005B0005F93012756E002BB279520F4515021F4A8
:1005C000220FF9CF012756E000003B5A02BBD0F2C0
:1005D000279528F4515029F4220F0000F9CF012764
:1005E00056E0279502BB20F4515021F4220FF9CF99
:1005F000012756E02991332302BB21F60B7E10918F
:100600002601110FC651D04002BB11F010932001FA
:1006100010E41ABF006111B31B7E402F4B7E5F9127
:1006200000C000C002BB11BB42BB71CF92B39C7F24
:10063000982B660F962B92BB939828EB3BE0C90151
:100640000197F1F7939AC9010197F1F788B3942FB5
:100650009F73807C982B98BB82B3407C8F73842BD4
:1006600082BBC9010197F1F79398C9010197F1F78E
:10067000939884E08A95F1F7089580E060E041E086
:10068000D5DF0895942F482F440F440F4860660F1C
:10069000462B492B80E060E0C9DF089588EC9FEA93
:1006A0000197F1F780E060E040E3C0DF88E99AE37A
:1006B0000197F1F780E060E04CE3B8DF80E060E0B4
:1006C00048E0B4DFDADF80E060E046E0AFDF81E001
:1006D00060E040E0D7DF0895482F440F440F440FF7
:1006E0004061660F660F462B80E060E09FDF089553
:1006F000482F406880E060E099DF0895482F40640B
:1007000080E060E093DF0895482F81E060E08EDFB5
:100710000895482F81E061E089DF0895EF92FF920C
:100720001F93CF93DF93C1EBD0E010E088EBE82E6E
:100730008BE0F82E812FE2DF8991E6DFC701019778
:10074000F1F71F5F1830B1F7DF91CF911F91FF9044
:10075000EF9008951F93162FCBDF812FD5DF1F91C8
:100760000895959A95980895AF92BF92CF92DF928F
:10077000EF92FF920F931F93CF93DF9387EF85BB89
:1007800088E084BB78E068E020E030E040E050E0C2
:10079000F4E0AF2EB12CE2E0CE2ED12C93E0E92E86
:1007A000F12C01E010E0C6E0D0E0A7E0B0E0E5E029
:1007B000F0E083B38770873021F1833089F0843093
:1007C00028F4813099F0823078F412C0853031F00D
:1007D000853040F08630A9F4C8010BC0C60109C0BD
:1007E000C50107C0C70105C0CF0103C0CE0101C0CC
:1007F000CD01042E02C0880F991F0A94E2F7282B1E
:10080000392B770F872F809585BB660F64BB4D5FB3
:100810005F4F4C30510569F6C901DF91CF911F91AF
:100820000F91FF90EF90DF90CF90BF90AF90089521
:10083000CF93DF93EB015CDF02C0219665DF8881F7
:100840008823D9F7DF91CF9108951F93CF93DF933A
:10085000EC0180914001162F861708F4182F809123
:100860003F01882349F480DF888319821A821B8222
:100870001C821D821E821F8280913F01810F809306
:100880003F0180914001811B80934001812FDF91C6
:10089000CF911F9108950F931F93CF93DF93EC0196
:1008A000062F109140011123E1F180913F0188232F
:1008B000B9F58981853009F18630F9F08430F1F499
:1008C0008091BB00882331F4D8DE82E38093BB00A3
:1008D0008093BC008A818093D3008B818093D40065
:1008E0008C818093D5008D818093D6008E818093FA
:1008F000D7008F818093D80001C0BFDE602F101712
:1009000008F4612F80913F01860F80933F01809111
:100910004001861B8093400190E0882319F401C0B8
:1009200002C091E0892FDF91CF911F910F9108951F
:10093000FC0180818076803261F48181813011F008
:10094000893039F488E08093400110923F018FEFA5
:10095000089580E008951F920F920FB60F92112410
:100960008F939F93AF93BF93EF93FF9386E182BFE3
:10097000E9EDF0E080819181A281B3810097A1052A
:10098000B10539F00197A109B10980839183A28350
:10099000B383349681E0E930F80761F7FF91EF9176
:1009A000BF91AF919F918F910F900FBE0F901F90AD
:1009B00018950F931F939C018091BC00853109F419
:1009C00049C1863130F4882371F0843109F02DC299
:1009D00013C0873109F4ABC1873108F49BC188315A
:1009E00009F023C2E3C180E860E0B4DE81E862E69A
:1009F00070E01EDF84E1E9C18091C4009091C500E0
:100A0000049721F41092C5001092C40020323105E1
:100A100009F48BC021323105C0F42430310509F4CA
:100A20005DC02530310540F421303105B1F122306F
:100A3000310509F0FAC13EC02830310509F45BC028
:100A40002031310509F0F1C163C081E02030380761
:100A500009F492C081E02130380748F42034310590
:100A600009F470C02038310509F0DFC178C084E096
:100A70002030380709F48DC088E02030380729F08D
:100A80002050324009F0D1C191C0F7DD1092C5006D
:100A90001092C4008091BB0098C10091C4001091D5
:100AA000C500802F805461E355DEF801E153FF4F0C
:100AB00081E00CC00091C4001091C500802F8054CB
:100AC00062E348DEF801E153FF4F82E080830F5F6D
:100AD0001F4F1093C5000093C400A7C10091C4002C
:100AE0001091C500802F805463E334DEF801E15398
:100AF000FF4F83E0EBCF0091C4001091C500802F21
:100B0000805464E327DEF801E153FF4F84E0DECF39
:100B10000091C4001091C500802F805465E31ADE57
:100B2000F801E153FF4F85E0D1CF0091C40010914F
:100B3000C500802F805466E30DDEF801E153FF4FBE
:100B400086E0C4CF0091C4001091C500802F80546E
:100B500067E300DEF801E153FF4F87E0B7CF009174
:100B6000C4001091C500802F805468E3F3DDF801C4
:100B7000E153FF4F88E0AACF0091C4001091C50057
:100B8000802F805469E3E6DDF801E153FF4F89E0EF
:100B90009DCF0091C4001091C500802F805460E368
:100BA000D9DDF801E153FF4F108291CF9091CF0032
:100BB0008091CB00981759F59091D0008091CC008E
:100BC000981729F59091D1008091CD009817F9F4EC
:100BD0009091D2008091CE009817C9F480E006C0B1
:100BE000E82FF0E0E153FF4F10828F5F8430C0F3B5
:100BF0008093BF0042DD80E862E770E019DE80ECA0
:100C000064E870E015DE85E18093BC001EC080ECD6
:100C100060E970E00DDE88E893E12CE231E0F90153
:100C20003197F1F70197D9F728DD8091BB008093C8
:100C3000BC0080E006C0E82FF0E0E153FF4F1082D7
:100C40008F5F8430C0F38093BF001092C500109274
:100C5000C400EBC02230310509F447C02330310510
:100C600009F455C02130310509F0DFC006DD80E808
:100C700061EA70E0DDDD6091BE006436F0F0862F41
:100C800064E6D8D1682F606380EC64DD8091BE009B
:100C900090E0845690406AE070E0D8D1606381ECC7
:100CA00059DD8091BE0090E0845690406AE070E08B
:100CB000CDD1682F606382EC15C06B3078F0862F41
:100CC0006AE0B8D1682F606380EC44DD8091BE009B
:100CD0006AE0B0D1906381EC692F04C06A3019F0EA
:100CE000606380EC37DD86E170C0C7DC80E860E0DF
:100CF00031DD84E690E0A0E0B0E0809305019093C0
:100D00000601A0930701B093080187E15EC010922D
:100D1000BC008BC0232B09F088C0AFDC80E862E701
:100D200070E086DD80EC64E870E082DD4DC0211566
:100D3000310561F4A2DC80E862E770E079DD80ECE7
:100D400064E870E075DD1092C9003EC0205030416B
:100D500009F06BC08091050190910601A0910701F7
:100D6000B09108010097A105B10509F05EC084E6C5
:100D700090E0A0E0B0E08093050190930601A0937D
:100D80000701B09308018091C9008F3048F481E0D9
:100D900061E0A2DC8091C9008F5F8093C90045C0EB
:100DA00088E18093BC001092C9003FC02115310535
:100DB00079F463DC80E862E770E03ADD80EC64E8B7
:100DC00070E036DD1092CA0085E18093BC002DC032
:100DD0002050304151F58091050190910601A0917C
:100DE0000701B09108010097A105B105F1F484E66F
:100DF00090E0A0E0B0E08093050190930601A093FD
:100E00000701B09308018091CA008F3048F481E057
:100E100060E062DC8091CA008F5F8093CA0005C0E9
:100E200087E18093BC001092CA001F910F91089532
:100E3000CF93DF93EC018091BC00823391F56091F8
:100E4000D300606386E886DC6091D400606387E845
:100E500081DC88E86AE37EDC6091D500606389E824
:100E600079DC6091D60060638AE874DC8BE86AE321
:100E700071DC6091D70060638CE86CDC6091D80015
:100E800060638DE867DC219761F4F7DB80E862E757
:100E900070E0CEDC80EC64E870E0CADC85E1809331
:100EA000BC00DF91CF910895AF92BF92CF92DF92B5
:100EB000EF92FF920F931F93CF93DF932EE088E181
:100EC00090E00FB6F894A89581BD0FBE21BD8FE3C9
:100ED00087BB18BA88E784BB8FE785BB8BEE81BBE5
:100EE00012BAF7D88C9A20E04CE251E004C0A895E1
:100EF000CA010197F1F72150D1F78C98789484ECCE
:100F000099E02CE231E0F9013197F1F70197D9F737
:100F100089B7816089BF83B7846083BF80E882BF5F
:100F2000BDDBFCDB85E28093BE001092BD00109219
:100F3000BC00E9EDF0E0119211921192119281E062
:100F4000E930F807C1F789E08093CB0085E0809312
:100F5000CC0081E08093CD0082E08093CE0010929F
:100F6000CF001092D0001092D1001092D2001092B7
:100F7000BB001092C6001092C7001092C8001092D9
:100F8000C5001092C400B6E0AB2EB12CC12CD12C00
:100F9000C0E0D0E1A8E2EA2EF12C012D112DA89598
:100FA000C7D88091D9009091DA00A091DB00B09170
:100FB000DC000097A105B10519F5A092D900B09207
:100FC000DA00C092DB00D092DC00CEDB9C01909373
:100FD000C3008093C2008091C0009091C100281787
:100FE000390729F03093C1002093C00004C0D0938A
:100FF000C300C093C2008091C2009091C300D9DCAD
:101000008091E5009091E600A091E700B091E800A2
:101010000097A105B10519F6E092E500F092E6000F
:101020000093E7001093E8008091C2009091C30004
:10103000FFDEB5CF991B79E004C0991F961708F021
:10104000961B881F7A95C9F78095089597FB092EFE
:1010500007260AD077FD04D00CD006D000201AF461
:10106000709561957F4F0895F6F7909581959F4F04
:101070000895AA1BBB1B51E107C0AA1FBB1FA617DF
:10108000B70710F0A61BB70B881F991F5A95A9F731
:0E10900080959095BC01CD010895F894FFCF96
:10109E005AFF496E7075742050617373776F726466
:1010AE003A00312D4E756D62657220322D4D6F7680
:1010BE00696E67004C6F676520332D457869740043
:1010CE0050617373776F7264204572726F72212054
:1010DE000053746174696F6E204E756D6265723A5D
:0A10EE000011110A041F1F1F00006B
:00000001FF
