:100000004CC0DAC165C064C063C062C061C060C07A
:100010005FC07FC35DC05CC05BC05AC059C058C0E0
:1000200057C056C055C00403090412036F00620094
:100030006400650076002E00610074001403440023
:10004000610074006100530074006F00720065006D
:10005000120110010000000834126824000101029E
:10006000000109022200010100800A0904000001C8
:10007000030000000921010100012216000705818B
:10008000030800640600FF0901A101150026FF0016
:10009000750895080900B20201C011241FBECFE502
:1000A000D4E0DEBFCDBF10E0A0E6B0E0E4E2F8E0CF
:1000B00002C005900D92A236B107D9F710E0A2E672
:1000C000B0E001C01D92AD3CB107E1F750D3A8C329
:1000D00097CF85B7826085BF8BB780648BBF8BE479
:1000E0008093A3008AE58093A20008951F93DC010A
:1000F000162F8091A20084FF07C08091A30098E88A
:1001000089278093A30003C08AE58093A200912FE2
:10011000E4EAF0E08D91819391501916DCF384EAC2
:1001200090E0612F45D11C5F1093A2001F910895AC
:100130001F93CF93DF936091B300635067FDBDC001
:100140008091B000CCE0D0E0C81BD109C954DF4F8A
:100150008091AF008D3209F09EC0683009F0ABC0CD
:1001600083EC809397008AE5809360001092620090
:100170008881807639F0CE01B9D2282F8F3F09F4DB
:1001800079C07FC09A811092A0008981882321F4D0
:100190001092A10022E067C0853019F49093B4005A
:1001A00061C0863009F04AC08B81813019F480E546
:1001B00090E01BC0823041F482E690E09093B20060
:1001C0008093B10022E236C08330F9F48A8188231B
:1001D00041F486E290E09093B2008093B10024E075
:1001E00029C0813041F48AE290E09093B20080937C
:1001F000B10022E11FC08230E1F48CE390E09093E3
:10020000B2008093B10024E115C0813241F484E74B
:1002100090E09093B2008093B10029E00BC082324D
:1002200041F484E890E09093B2008093B10026E11D
:1002300001C020E080E48093620023C0883021F474
:1002400021E086EB90E011C0893019F49093B6005C
:1002500009C08A3011F421E006C08B3019F48BE418
:100260008093A30020E080EA90E09093B200809316
:10027000B10007C0888187FD2E8180E880936200ED
:1002800006C08F81882319F48E81821708F0822F8F
:100290008093610010C08091620087FF0CC0CE0186
:1002A0000FD28F3F21F48EE18093600004C0882339
:1002B00011F0109261001092B3008091600084FFF1
:1002C00054C0809161008F3F09F44FC0182F8930CE
:1002D00008F018E0811B809361008091970098E8F6
:1002E000892780939700112371F18091620087FF25
:1002F00008C088E990E0612FC7D1182F893078F5C0
:1003000022C02091B1003091B20086FF0AC0912F27
:10031000F901A8E9B0E084918D9331969150D9F715
:1003200008C0912FD901E8E9F0E08D9181939150B7
:10033000E1F7C90101961150810F911D1F5F909344
:10034000B2008093B10088E990E0612F31D0612F35
:100350006C5F6C3041F08FEF8093610004C08FEFD1
:10036000809361006EE16093600094E180B38471DA
:1003700031F49150D9F71092B4001092AE00DF9191
:10038000CF911F910895A82FB92F80E090E041E010
:1003900050EA609530E009C02D91822797958795A6
:1003A00010F084279527305EC8F36F5FA8F3089597
:1003B000EADF8D939D930895CF93CFB7CF93C395E5
:1003C000849BE9F7849B09C0849B07C0849B05C07C
:1003D000849B03C0849B01C0A3C0DF93C091B00085
:1003E000DD27C954DF4F849B02C0DF91EBCF2F93F1
:1003F0000F931F9300B32FEF04FB20F94F933F930C
:1004000010B34FEF012704FB21F93BE031C04E7FD1
:10041000012F10B3216028C0102F4D7F22600000F3
:1004200000B329C04B7F2460012F000010B32BC004
:1004300010B3477F28602AC04F7E00B320612CC0D4
:100440004F7D10B320622FC04F7B00B3206432C0B9
:10045000422700B349934FEF0000102714FB20F907
:1004600010B31471C9F1297F91F2012704FB21F91E
:1004700000B3237F89F2315058F1102714FB22F981
:1004800010B3277E79F2012704FB23F92F7C81F238
:1004900000B3102714FB24F92F7971F200C010B3B8
:1004A000012704FB25F92F7359F200C000B3102770
:1004B00014FB26F9223040F200C010B3012704FBE0
:1004C00027F9243028F64F77206810B30000F9CFC1
:1004D00010E41ABF002719C03B503195C31BD04010
:1004E00010E41ABF0881033CF9F00B34E9F02091C5
:1004F000AE001981110F1213EDCF4A81441F093646
:1005000041F10D3211F0013E29F70093B5003F9102
:100510004F911F910F912F91DF91CAB7C6FD4FCF19
:10052000CF91CFBFCF9118952091B500222379F3B9
:100530001091B300112369F534306AF13093B300A0
:100540002093AF001091B0003BE0311B3093B0001E
:1005500022C00091B3000130E4F40AE54F7049F481
:100560003091600034FD19C000936000C7E9D0E00D
:1005700018C03091A20034FD10C00093A200C3EA5D
:10058000D0E00FC02795A8F45150A9F4220F000025
:10059000F9CF4AE503C042ED01C0432FC4E1D0E0EA
:1005A00032E011B31461949A11BB02B320E414E158
:1005B0005F93012756E002BB279520F4515021F4A8
:1005C000220FF9CF012756E000003B5A02BBD0F2C0
:1005D000279528F4515029F4220F0000F9CF012764
:1005E00056E0279502BB20F4515021F4220FF9CF99
:1005F000012756E02991332302BB21F60B7E10918F
:10060000B400110FC651D04002BB11F01093AE00E0
:1006100010E41ABF006111B31B7E402F4B7E5F9127
:1006200000C000C002BB11BB42BB71CF98B3282FE2
:100630002F73907C292B28BB92B3807C9F73982BBF
:1006400092BB08958DE085BB83B38C708C3059F0DC
:10065000843019F0883039F403C022E030E005C05E
:1006600021E030E002C020E030E08EE085BB83B3C3
:100670008C708C3039F0843021F0883019F424608B
:1006800001C02860C9010895FC0120919600261739
:1006900008F4622F90919500992351F48091930072
:1006A000808311821282138214821582168217822D
:1006B000960F90939500261B20939600862F089501
:1006C00090919600992379F0961708F4692F8091FC
:1006D0009500860F80939500892F861B8093960046
:1006E00090E0882309F491E0892F0895FC0180812E
:1006F0008076803261F48181813011F0893039F463
:1007000088E080939600109295008FEF089580E026
:1007100008951F920F920FB60F9211248F939F93FB
:10072000AF93BF93EF93FF9386E182BFE3E6F0E0E0
:1007300080819181A281B3810097A105B10539F033
:100740000197A109B10980839183A283B383349671
:1007500080E0E339F80761F7FF91EF91BF91AF9126
:100760009F918F910F900FBE0F901F9018952EE0C4
:1007700088E190E00FB6F894A89581BD0FBE21BD29
:100780008FE387BB18BA83E384BB8FE785BB8BEE0F
:1007900081BB12BA9EDC8C9A20E048EB5BE004C07F
:1007A000A895CA010197F1F72150D1F78C98789458
:1007B00084EC99E02CE231E0F9013197F1F70197EF
:1007C000D9F789B7816089BF83B7846083BF80E828
:1007D00082BF80E02BDFAC98A895AADC33DF909332
:1007E0009400809393008230910571F083309105DD
:1007F00018F4019789F706C08430910539F00897FD
:1008000059F706C081E005C082E003C084E001C062
:1008100088E00CDFAC9AAC9880E008DFAC9ADBCFC4
:04082000F894FFCF7A
:020824005AFF79
:00000001FF
