:1000000062C0F0C17BC07AC079C078C077C076C0CA
:1000100075C08AC673C072C071C070C06FC06EC038
:100020006DC06CC06BC0AFC4F5C4F6C4FCC414C5CD
:10003000A2C54DC64CC6FEC502C649C616C6B4C644
:10004000B9C6E5C6C4C715C71FC7C1C7C8C703C857
:1000500044C80403090412036F00620064006500D1
:1000600076002E00610074001403440061007400E7
:100070006100530074006F007200650012011001EE
:100080000000000834126824000101020001090286
:100090002200010100800A090400000103000000A1
:1000A00009210101000122160007058103080064EF
:1000B0000600FF0901A101150026FF0075089580C3
:1000C0000900B20201C011241FBECFE5D4E0DEBF9B
:1000D000CDBF11E0A0E6B0E0E0EAF3E102C0059098
:1000E0000D92AA33B107D9F711E0AAE3B1E001C03C
:1000F0001D92A03CB107E1F744D850C981CF85B724
:10010000826085BF8BB780648BBF8BE48093900146
:100110008AE580938F0108951F93DC01162F80914B
:100120008F0184FF07C08091900198E88927809310
:10013000900103C08AE580938F01912FE1E9F1E0FE
:100140008D91819391501916DCF381E991E0612F33
:1001500045D11C5F10938F011F9108951F93CF937A
:10016000DF936091A001635067FDBDC080919D0148
:10017000CCE0D0E0C81BD109CC55DE4F80919C016A
:100180008D3209F09EC0683009F0ABC083EC8093DB
:1001900084018AE58093600010923A01888180761C
:1001A00039F0CE01AED5282F8F3F09F479C07FC03A
:1001B0009A8110928D018981882321F410928E01F9
:1001C00022E067C0853019F49093A10161C08630A8
:1001D00009F04AC08B81813019F48CE790E01BC094
:1001E000823041F48EE890E090939F0180939E01CD
:1001F00022E236C08330F9F48A81882341F482E513
:1002000090E090939F0180939E0124E029C081306B
:1002100041F486E590E090939F0180939E0122E156
:100220001FC08230E1F488E690E090939F018093B4
:100230009E0124E115C0813241F480EA90E0909360
:100240009F0180939E0129E00BC0823241F480EB34
:1002500090E090939F0180939E0126E101C020E0F1
:1002600080E480933A0123C0883021F421E083EABE
:1002700091E011C0893019F49093A30109C08A302C
:1002800011F421E006C08B3019F48BE480939001C7
:1002900020E08DE891E090939F0180939E0107C03C
:1002A000888187FD2E8180E880933A0106C08F8186
:1002B000882319F48E81821708F0822F80936100C1
:1002C00010C080913A0187FF0CC0CE0141D38F3F0F
:1002D00021F48EE18093600004C0882311F0109215
:1002E00061001092A0018091600084FF54C0809151
:1002F00061008F3F09F44FC0182F893008F018E0D3
:10030000811B809361008091840198E88927809304
:100310008401112371F180913A0187FF08C085E8BB
:1003200091E0612FEFD2182F893078F522C020910B
:100330009E0130919F0186FF0AC0912FF901A5E827
:10034000B1E084918D9331969150D9F708C0912FE7
:10035000D901E5E8F1E08D9181939150E1F7C90170
:1003600001961150810F911D1F5F90939F01809303
:100370009E0185E891E0612F31D0612F6C5F6C3078
:1003800041F08FEF8093610004C08FEF8093610094
:100390006EE16093600094E180B3847131F4915018
:1003A000D9F71092A10110929B01DF91CF911F917B
:1003B0000895A82FB92F80E090E041E050EA6095C1
:1003C00030E009C02D9182279795879510F08427FA
:1003D0009527305EC8F36F5FA8F30895EADF8D9329
:1003E0009D930895CF93CFB7CF93C395849BE9F79F
:1003F000849B09C0849B07C0849B05C0849B03C069
:10040000849B01C0A3C0DF93C0919D01DD27CC5523
:10041000DE4F849B02C0DF91EBCF2F930F931F938E
:1004200000B32FEF04FB20F94F933F9310B34FEF2E
:10043000012704FB21F93BE031C04E7F012F10B3AF
:10044000216028C0102F4D7F2260000000B329C01A
:100450004B7F2460012F000010B32BC010B3477FE7
:1004600028602AC04F7E00B320612CC04F7D10B39E
:1004700020622FC04F7B00B3206432C0422700B3FC
:1004800049934FEF0000102714FB20F910B31471AB
:10049000C9F1297F91F2012704FB21F900B3237FE1
:1004A00089F2315058F1102714FB22F910B3277E3E
:1004B00079F2012704FB23F92F7C81F200B3102786
:1004C00014FB24F92F7971F200C010B3012704FB4B
:1004D00025F92F7359F200C000B3102714FB26F939
:1004E000223040F200C010B3012704FB27F924306A
:1004F00028F64F77206810B30000F9CF10E41ABF38
:10050000002719C03B503195C31BD04010E41ABFDF
:100510000881033CF9F00B34E9F020919B0119812B
:10052000110F1213EDCF4A81441F093641F10D32EC
:1005300011F0013E29F70093A2013F914F911F91C5
:100540000F912F91DF91CAB7C6FD4FCFCF91CFBF8B
:10055000CF9118952091A201222379F31091A00147
:10056000112369F534306AF13093A00120939C0186
:1005700010919D013BE0311B30939D0122C0009101
:10058000A0010130E4F40AE54F7049F430916000B5
:1005900034FD19C000936000C4E8D1E018C0309168
:1005A0008F0134FD10C000938F01C0E9D1E00FC06E
:1005B0002795A8F45150A9F4220F0000F9CF4AE57D
:1005C00003C042ED01C0432FC4E1D0E032E011B3DB
:1005D0001461949A11BB02B320E414E15F930127E4
:1005E00056E002BB279520F4515021F4220FF9CF99
:1005F000012756E000003B5A02BBD0F2279528F4B1
:10060000515029F4220F0000F9CF012756E0279519
:1006100002BB20F4515021F4220FF9CF012756E0FC
:100620002991332302BB21F60B7E1091A101110FFA
:10063000C651D04002BB11F010939B0110E41ABFC9
:10064000006111B31B7E402F4B7E5F9100C000C044
:1006500002BB11BB42BB71CF92B3880F880F880FCA
:10066000957F892B660F862B82BB909828EB3BE009
:10067000C9010197F1F7909AC9010197F1F788B381
:10068000942F9F73807C982B98BB82B3407C8F7390
:10069000842B82BBC9010197F1F7909884E08A9579
:1006A000F1F7089580E060E041E0D6DF0895942FEF
:1006B000482F440F440F4860660F462B492B80E0BB
:1006C00060E0CADF089588EC9FEA0197F1F780E0C7
:1006D00060E040E3C1DF88E99AE30197F1F780E049
:1006E00060E04CE3B9DF80E060E048E0B5DFDADFEE
:1006F00080E060E046E0B0DF81E060E040E0D7DF2E
:100700000895482F440F440F440F4061660F660F51
:10071000462B80E060E0A0DF0895482F406880E02D
:1007200060E09ADF0895482F406480E060E094DF45
:100730000895482F81E060E08FDF0895482F81E021
:1007400061E08ADF08951F93CF93DF93C2E3D1E086
:1007500010E0812FE8DF8991ECDF1F5F1830C9F7C7
:10076000DF91CF911F9108951F93162FD6DF812F10
:10077000E0DF1F910895959A95980895AF92BF92E2
:10078000CF92DF92EF92FF920F931F93CF93DF935D
:10079000EEE2F1E020E030E040E050E064E0A62E40
:1007A000B12C92E0C92ED12C81E0E82EF12C03E08F
:1007B00010E0C6E0D0E0A5E0B0E067E070E0808146
:1007C00085BB83B38077803739F18033A1F08133E3
:1007D00038F48031B1F0803291F08823A1F01CC050
:1007E000803539F0803619F08034B1F406C0C70185
:1007F0000BC0C60109C0C50107C0C80105C0CD01B5
:1008000003C0CE0101C0CB01042E02C0880F991F86
:100810000A94E2F7282B392B31964D5F5F4F81E028
:10082000E233F80761F6C901DF91CF911F910F9173
:10083000FF90EF90DF90CF90BF90AF9008959EDF34
:100840008032910509F441C081329105C0F48230B3
:10085000910599F18330910540F4009709F443C064
:100860008130910509F040C026C08830910549F1DA
:100870008031910541F184309105B1F520C021E02E
:100880008030920741F121E08130920738F48034C2
:100890009105E9F08038910539F51BC024E08030DE
:1008A0009207E9F028E080309207D9F022E080300A
:1008B0009207D1F412C081E0089582E0089583E0A8
:1008C000089584E0089585E0089586E0089587E01E
:1008D000089588E0089589E008958AE008958BE0FE
:1008E00008958CE0089580E00895CF93DF93EB01A5
:1008F00014DF02C021961DDF88818823D9F7DF919C
:10090000CF9108951F93CF93DF93EC018091BE01A7
:10091000162F861708F4182F8091BD01882349F4FB
:100920008EDF888319821A821B821C821D821E829E
:100930001F828091BD01810F8093BD018091BE0116
:10094000811B8093BE01812FDF91CF911F9108956C
:100950000F931F93CF93DF93EC01062F1091BE01ED
:10096000112309F4C7C18091BD01882309F0C1C1D9
:10097000888190E0FC013497EC30F10508F0A7C1C4
:10098000ED5EFF4F099480913B01823331F08ADEA6
:1009900082E380933B0180933C0180E862E670E053
:1009A000A4DF80EC63E770E0A0DF8EEC6AE770E024
:1009B0009CDF6981606386ECD7DE6A81606387ECC7
:1009C000D3DE6B81606389ECCFDE6C8160638AEC7F
:1009D000CBDE6D8160638CECC7DE6E8160638DEC75
:1009E000C3DE80913F01882361F488EC6AE3BCDEBA
:1009F0008BEC6AE3B9DE80913F018F5F80933F010A
:100A000066C188EC60E2B0DE8BEC60E2ADDE109295
:100A10003F015DC147DE04C045DE84E680933B01B3
:100A200010923C0154C1898180933E0180E86DE7BA
:100A300070E05BDF90913E01943608F0ADC0892FE5
:100A40008A508A3508F0E0C080EC63E770E04DDF43
:100A500089EC6EE870E0C4C080E866E970E045DFCC
:100A6000E0914001F0E0ED5FFE4F80EC60817CDEC4
:100A7000E0914001F0E0ED5FFE4F81EC618174DEBA
:100A8000E0914001F0E0ED5FFE4F82EC62816CDEB0
:100A9000E0914001F0E0ED5FFE4F83EC638164DEA6
:100AA000E0914001F0E0ED5FFE4F84EC64815CDE9C
:100AB000E0914001F0E0ED5FFE4F85EC658154DE92
:100AC000E0914001F0E0ED5FFE4F86EC66814CDE88
:100AD000E0914001F0E0ED5FFE4F87EC678144DE7E
:100AE000E0914001F0E0ED5FFE4F88EC60853CDE78
:100AF000E0914001F0E0ED5FFE4F89EC618534DE6E
:100B0000E0914001F0E0ED5FFE4F8AEC62852CDE63
:100B1000E0914001F0E0ED5FFE4F8BEC638524DE59
:100B2000E0914001F0E0ED5FFE4F8CEC64851CDE4F
:100B3000E0914001F0E0ED5FFE4F8DEC658514DE45
:100B4000E0914001F0E0ED5FFE4F8EEC66850CDE3B
:100B5000E0914001F0E0ED5FFE4F8FEC678504DE31
:100B6000809140018F5F809340018B3109F0AFC0CD
:100B700010924001ACC0898180933E0181E867EA10
:100B800070E0B3DE80E860E0EFDD8FE860E0ECDD90
:100B900090913E019436C8F080EC63E770E0A5DEEA
:100BA00089EC6EE870E0A1DE80913E0164E6A1D39D
:100BB000682F606386ECD8DD80913E0190E084561A
:100BC00090406AE070E0A1D314C0892F8A508A3522
:100BD000D8F480EC63E770E088DE89EC63E770E0CE
:100BE00084DE86EC60E3C0DD80913E016AE081D363
:100BF000682F606387ECB8DD80913E016AE079D3AD
:100C0000906388EC692F2FC09A3008F060C080ECA8
:100C100063E770E06ADE89EC6EE870E066DE86EC21
:100C200060E3A2DD87EC60E39FDD60913E016063DD
:100C300088EC19C037DD81E080933C0148C080EC2E
:100C400066EB70E052DE89EC6EE870E04EDE88EC18
:100C500069818ADD81E867EA70E047DE80E860E06C
:100C600083DD8FE860E080DD32C081E867EA70E014
:100C70003CDE80E860E078DD8FE860E075DD80ECE8
:100C80006AE770E032DE6981606382EC6DDD6A8163
:100C9000606383EC69DD84EC6FEB70E026DE6B81D2
:100CA000606387EC61DD6C81606388EC5DDD89ECFD
:100CB0006FEB70E01ADE6D8160638CEC55DD6E8148
:100CC00060638DEC51DD8EEC6AE770E00EDE602F24
:100CD000101708F4612F8091BD01860F8093BD012C
:100CE0008091BE01861B8093BE0190E0882319F499
:100CF00001C002C091E0892FDF91CF911F910F9128
:100D00000895FC0180818076803261F48181813098
:100D100011F0893039F488E08093BE011092BD0152
:100D20008FEF089580E008951F920F920FB60F92F3
:100D300011248F939F93AF93BF93EF93FF9386E11B
:100D400082BFE0E5F1E080819181A281B3810097CB
:100D5000A105B10539F00197A109B10980839183FB
:100D6000A283B383349681E0E038F80761F7FF91FE
:100D7000EF91BF91AF919F918F910F900FBE0F9008
:100D80001F901895CF92DF92EF92FF920F931F93CF
:100D90009C0180913C01E82FF0E0EA30F10508F079
:100DA000D9C1E15EFF4F099484EC63EC70E09DDDF6
:100DB00081E012C18091540190915501A09156019A
:100DC000B09157010097A105B10509F0C3C188ECA6
:100DD00090E0A0E0B0E08093540190935501A0937F
:100DE0005601B0935701109142011F3038F4812F02
:100DF00063E07FD28FE8811B692F29C082E0809356
:100E00003C0180E861E0B0DC10924201A3C1809116
:100E1000540190915501A0915601B091570100974E
:100E2000A105B10509F096C188EC90E0A0E0B0E022
:100E30008093540190935501A0935601B0935701AC
:100E400010914201103140F4812F806860E28CDC07
:100E50001F5F109342017EC125DC83E080933C013B
:100E600084EC63EC70E041DD80E86CEC70E03DDD2B
:100E700071C118DC87E86DED70E037DD80EC62EE63
:100E800070E033DD85E0A8C02130310561F021300C
:100E9000310508F47DC022303105C9F12430310517
:100EA00009F058C173C0FEDB84E863EF70E01DDD1C
:100EB000E0908001F0908101009182011091830106
:100EC000C801B70124E630E040E050E031D22063B1
:100ED00087EC622F49DCC801B70124E630E040E02E
:100EE00050E026D22AE030E040E050E021D22063FA
:100EF00088EC622F39DCC801B7012AE030E040E01D
:100F000050E016D2606389EC2FDC86E065C0CADB56
:100F100084E863EF70E0E9DCE0908001F09081010B
:100F20000091820110918301C801B70124E630E0ED
:100F300040E050E0FDD1C22E622F606387EC14DCEC
:100F4000C801B70124E630E040E050E0F1D12AE0EA
:100F500030E040E050E0ECD1D22E622F606388ECAC
:100F600003DCC801B7012AE030E040E050E0E0D106
:100F7000162F606389ECF8DB1093BC01D092BB01A3
:100F8000C092BF011092BA0187E026C084E124C05C
:100F90008091BF0124E6829FC00111242091BB01F2
:100FA0004AE0249F90011124820F931F2091BC01DD
:100FB000820F911DAA2797FDA095BA2F80938001DB
:100FC00090938101A0938201B0938301C3C020500C
:100FD000384009F0BFC084E080933C01BBC020349E
:100FE000310509F12134310520F42031310501F5B5
:100FF00007C02038310569F020503840C9F415C0C9
:101000008091BC01893010F48F5F08C01092BC0140
:101010000FC08091BC01882321F081508093BC01D6
:1010200007C089E0FBCF88E001C084E080933C01E9
:1010300081E061E041E03BDB89EC6FDB80E69AEE2A
:101040000197F1F781E060E040E031DB6091BC01A5
:10105000606389EC7EC020383105D9F02138310534
:1010600038F42031310561F02034310519F51BC009
:1010700081E020303807C9F020503840D9F417C03B
:101080008091BB01893010F48F5F08C01092BB01C2
:1010900011C08091BB01882321F081508093BB0156
:1010A00009C089E0FBCF89E003C087E001C084E08C
:1010B00080933C0181E061E041E0F9DA88EC2DDBCE
:1010C00080E69AEE0197F1F781E060E040E0EFDA28
:1010D0006091BB01606388EC3CC020383105C1F0F1
:1010E0002138310520F42031310509F508C081E0AF
:1010F00020303807B9F020503840C9F415C080912D
:10110000BF01893010F48F5F08C01092BF010FC07B
:101110008091BF01882321F081508093BF0107C0D7
:1011200089E0FBCF88E001C084E080933C0181E04E
:1011300061E041E0BCDA87ECF0DA80E69AEE0197F4
:10114000F1F781E060E040E0B2DA6091BF016063F6
:1011500087EC0ADB1F910F91FF90EF90DF90CF900B
:10116000089580913C01882359F480E862E670E09C
:10117000BCDB86EC6DEF70E0B8DB81E080933C0176
:101180000895EF92FF920F931F932EE088E190E075
:101190000FB6F894A89581BD0FBE21BD8FE387BB24
:1011A00018BA8FE084BB8FE785BB8BEE81BB12BA88
:1011B000A6D78C9A20E04CE251E004C0A895CA0161
:1011C0000197F1F72150D1F78C98789484EC99E04D
:1011D0002CE231E0F9013197F1F70197D9F789B79E
:1011E000816089BF83B7846083BF80E882BF6BDA88
:1011F000AADA86E080933E0110923D0110923C01F4
:10120000E0E5F1E0119211921192119281E0E03843
:10121000F807C1F781E0809348018093490110925B
:101220004A0182E080934B0110924C0110924D01D3
:1012300010924E0110924F0110923B011092450105
:1012400010924601109247011092440110924301FE
:1012500010928001109281011092820110928301FC
:1012600088EC90E0A0E0B0E08093540190935501A9
:10127000A0935601B09357017AE0E72EF12C012D8F
:10128000112DA8956BD780913C01813021F580917B
:10129000540190915501A0915601B09157010097CA
:1012A000A105B10571F7E0925401F0925501009348
:1012B00056011093570182B320914101922F9295CC
:1012C000990F907E8F7D982B92BB2F5F20934101C9
:1012D0002230B9F60BC08823A1F692B38091410168
:1012E0008295880F807E9F7D892B82BB1092410161
:1012F000C8CF991B79E004C0991F961708F0961B78
:10130000881F7A95C9F78095089597FB092E0726BF
:101310000AD077FD04D02ED006D000201AF47095A4
:1013200061957F4F0895F6F7909581959F4F0895A9
:10133000A1E21A2EAA1BBB1BFD010DC0AA1FBB1FD9
:10134000EE1FFF1FA217B307E407F50720F0A21B4B
:10135000B30BE40BF50B661F771F881F991F1A94B8
:1013600069F760957095809590959B01AC01BD01E2
:10137000CF010895AA1BBB1B51E107C0AA1FBB1FC9
:10138000A617B70710F0A61BB70B881F991F5A9511
:10139000A9F780959095BC01CD010895F894FFCFF1
:1013A0005AFF2043757272656E742054696D653AF8
:1013B0002020002020202020200020200020537406
:1013C0006174696F6E204E756D6265723A002020FF
:1013D00020202020200020204D6F76696E67204C51
:1013E0006F67653A202000203130332D20313120C5
:1013F0002D203237200020202020202020200020F7
:101400002D200057656C636F6D652100456E746516
:10141000722023746F20537461727421004D656EC5
:101420007500312E494420322E4368616E67652075
:101430004944004944204E756D6265720030303A6F
:10144000303000202020202020202020202020209C
:101450002020204D6F76696E67204C6F676F2020CB
:1014600020202020202020202020202020207D7BC4
:0A147000777E11151511040E1F0000
:00000001FF
