:100000005BC0E9C174C073C072C071C070C06FC002
:100010006EC06DC06CC06BC06AC069C068C067C08C
:1000200066C065C064C092C3A4C3A3C3A2C3A1C376
:10003000A0C39FC38FC38EC38FC390C391C392C30A
:1000400093C395C30403090412036F0062006400A4
:10005000650076002E006100740014034400610006
:1000600074006100530074006F007200650012019B
:100070001001000000083412682400010102000190
:1000800009022200010100800A09040000010300A6
:100090000000092101010001221600070581030863
:1000A00000640600FF0901A101150026FF00750884
:1000B00095800900B20201C011241FBECFE5D4E033
:1000C000DEBFCDBF10E0A0E6B0E0EAE7FAE002C094
:1000D00005900D92A237B107D9F710E0A2E7B0E082
:1000E00001C01D92A33BB107E1F753D4C4C488CF2C
:1000F00085B7826085BF8BB780648BBF8BE48093AC
:1001000089008AE58093880008951F93DC01162FEB
:100110008091880084FF07C08091890098E8892732
:100120008093890003C08AE580938800912FEAE8D4
:10013000F0E08D91819391501916DCF38AE890E0FC
:10014000612F45D11C5F109388001F9108951F9364
:10015000CF93DF9360919900635067FDBDC080919C
:100160009600CCE0D0E0C81BD109C356DF4F809188
:1001700095008D3209F09EC0683009F0ABC083EC69
:1001800080937D008AE580936000109272008881E0
:10019000807639F0CE01EAD3282F8F3F09F479C059
:1001A0007FC09A81109286008981882321F4109261
:1001B000870022E067C0853019F490939A0061C0EF
:1001C000863009F04AC08B81813019F48EE690E0C8
:1001D0001BC0823041F480E890E0909398008093B7
:1001E000970022E236C08330F9F48A81882341F4F3
:1001F00084E490E0909398008093970024E029C0D5
:10020000813041F488E490E09093980080939700C7
:1002100022E11FC08230E1F48AE590E090939800DB
:100220008093970024E115C0813241F482E990E087
:10023000909398008093970029E00BC0823241F49C
:1002400082EA90E0909398008093970026E101C0A5
:1002500020E080E48093720023C0883021F421E004
:100260008CE990E011C0893019F490939C0009C08A
:100270008A3011F421E006C08B3019F48BE48093AE
:10028000890020E086E890E09093980080939700A2
:1002900007C0888187FD2E8180E88093720006C0A8
:1002A0008F81882319F48E81821708F0822F809322
:1002B000610010C08091720087FF0CC0CE017AD21D
:1002C0008F3F21F48EE18093600004C0882311F0F9
:1002D00010926100109299008091600084FF54C0D8
:1002E000809161008F3F09F44FC0182F893008F0CA
:1002F00018E0811B8093610080917D0098E8892738
:1003000080937D00112371F18091720087FF08C0F6
:100310008EE790E0612F2ED2182F893078F522C019
:10032000209197003091980086FF0AC0912FF90123
:10033000AEE7B0E084918D9331969150D9F708C023
:10034000912FD901EEE7F0E08D9181939150E1F783
:10035000C90101961150810F911D1F5F9093980064
:10036000809397008EE790E0612F31D0612F6C5F12
:100370006C3041F08FEF8093610004C08FEF809369
:1003800061006EE16093600094E180B3847131F4A8
:100390009150D9F710929A0010929400DF91CF916A
:1003A0001F910895A82FB92F80E090E041E050EA16
:1003B000609530E009C02D9182279795879510F0C0
:1003C00084279527305EC8F36F5FA8F30895EADFAE
:1003D0008D939D930895CF93CFB7CF93C395849B6F
:1003E000E9F7849B09C0849B07C0849B05C0849B5C
:1003F00003C0849B01C0A3C0DF93C0919600DD279A
:10040000C356DF4F849B02C0DF91EBCF2F930F9336
:100410001F9300B32FEF04FB20F94F933F9310B3CA
:100420004FEF012704FB21F93BE031C04E7F012F44
:1004300010B3216028C0102F4D7F2260000000B350
:1004400029C04B7F2460012F000010B32BC010B3D4
:10045000477F28602AC04F7E00B320612CC04F7DAB
:1004600010B320622FC04F7B00B3206432C04227FC
:1004700000B349934FEF0000102714FB20F910B38D
:100480001471C9F1297F91F2012704FB21F900B30E
:10049000237F89F2315058F1102714FB22F910B351
:1004A000277E79F2012704FB23F92F7C81F200B328
:1004B000102714FB24F92F7971F200C010B3012723
:1004C00004FB25F92F7359F200C000B3102714FB69
:1004D00026F9223040F200C010B3012704FB27F9AF
:1004E000243028F64F77206810B30000F9CF10E4CD
:1004F0001ABF002719C03B503195C31BD04010E4F0
:100500001ABF0881033CF9F00B34E9F02091940004
:100510001981110F1213EDCF4A81441F093641F1A1
:100520000D3211F0013E29F700939B003F914F914E
:100530001F910F912F91DF91CAB7C6FD4FCFCF9179
:10054000CFBFCF91189520919B00222379F3109172
:100550009900112369F534306AF1309399002093A2
:100560009500109196003BE0311B3093960022C01D
:10057000009199000130E4F40AE54F7049F430919C
:10058000600034FD19C000936000CDE7D0E018C0D2
:100590003091880034FD10C000938800C9E8D0E095
:1005A0000FC02795A8F45150A9F4220F0000F9CFED
:1005B0004AE503C042ED01C0432FC4E1D0E032E080
:1005C00011B31461949A11BB02B320E414E15F9358
:1005D000012756E002BB279520F4515021F4220F49
:1005E000F9CF012756E000003B5A02BBD0F2279515
:1005F00028F4515029F4220F0000F9CF012756E0CA
:10060000279502BB20F4515021F4220FF9CF012786
:1006100056E02991332302BB21F60B7E10919A00FC
:10062000110FC651D04002BB11F01093940010E49A
:100630001ABF006111B31B7E402F4B7E5F9100C03B
:1006400000C002BB11BB42BB71CF98B3282F2F73E0
:10065000907C292B28BB92B3807C9F73982B92BBF4
:10066000089595B3282F2F73907C292B25BB92B327
:1006700082958695869583709C7F982B92BB089572
:1006800045B390E09C0156E0220F331F5A95E1F7E5
:1006900020744F7B242B25BB32B3880F991F880F02
:1006A000991F282F2870377F232B22BB22B3880F56
:1006B000991F80722F7D822B82BB089598B3282FBB
:1006C0002F73907C292B28BB92B3807C9F73982B2F
:1006D00092BB85B3962F9F73807C982B95BB82B37A
:1006E000962F92959695969593708C7F982B92BBAA
:1006F00025B370E0CB01A6E0880F991FAA95E1F71A
:1007000080742F7B822B85BB92B3660F771F660F99
:10071000771F862F8870977F892B82BB82B3660FE5
:10072000771F60728F7D682B62BB089590E0A0E018
:10073000B0E08F789070A070B070FC01E158F0408C
:10074000EF30F105B0F4ED5EFF4F0994AE98AE9A2C
:10075000AE98089580E009C082E007C083E005C03C
:1007600084E003C085E001C086E08ADF089587E069
:1007700087DF0895FC0120917C00261708F4622F82
:1007800090917B00992371F480917800808380910F
:100790007900818380917A0082831382148215828A
:1007A00016821782960F90937B00261B20937C0065
:1007B000862F0895EF92FF920F931F93CF93DF93AD
:1007C000EC01E0907C00EE2009F4C7C0F62EE6169E
:1007D00008F4FE2C00917B00002309F0B4C088814E
:1007E000813041F496B380B3807C9F73892B8093D2
:1007F00078004DC0823059F493B380B38295880F4E
:10080000880F807C9F73892B8093790040C0833050
:1008100089F423B390B3892F869586958695847045
:10082000969596959270892B2295269526952170FE
:10083000822B23C0843021F526B333B390B3892FA4
:10084000807C2F73822B80937800892F8295880F6C
:10085000880F807C232F2F73822B80937900892F20
:100860008695869586958470969596959270892B37
:100870003295369536953170832B80937A0007C078
:10088000813129F41F818981E0DE812F4FDF88814A
:10089000823129F41F818981E4DE812F47DF88813D
:1008A000833129F41F818981EBDE812F3FDF88812D
:1008B000843139F41F8189816A814B81FFDE812F68
:1008C00035DF8881803271F56A8197B35981852F30
:1008D0008F73907C892B87BB2B8130E084B3462FAC
:1008E0004F738078482BC90176E0880F991F7A955D
:1008F000E1F78074482B44BBC90113E0880F991FAE
:100900001A95E1F78072507C852B220F331F220F3E
:10091000331F28706295669566956370262B822B2F
:1009200081BB11C0813279F48981809373008A81FF
:10093000809374008B81809375008C818093760006
:100940008D81809377000F0D00937B008E2D8F1982
:1009500080937C0090E0882309F491E0892FDF9157
:10096000CF911F910F91FF90EF900895FC0180812E
:100970008076803261F48181813011F0893039F4E0
:1009800088E080937C0010927B008FEF089580E0D8
:1009900008950F931F93CF93DF932EE088E190E0AB
:1009A0000FB6F894A89581BD0FBE21BD8FE387BB1C
:1009B0008FE784BB8BEE81BB9BDB8C9A20E048EBFE
:1009C0005BE004C0A895CA010197F1F72150D1F767
:1009D0008C98789408EB1BE0C0EEDEE2A895B7DBBC
:1009E000C8010197F1F780E030DE87EF3ADEE09151
:1009F0007300F0E0EE59FF4F8081809526DECE0136
:100A00000197F1F780E021DE8BEF2BDE80917700FC
:100A1000E0917400813039F4F0E0EE59FF4F8081AD
:100A20008095806805C0F0E0EE59FF4F8081809589
:100A30000CDECE010197F1F780E007DE8DEF11DECD
:100A4000E0917500F0E0EE59FF4F80818095FDDD6B
:100A5000CE010197F1F780E0F8DD8EEF02DEE09144
:100A60007600F0E0EE59FF4F80818095EEDDCE01FB
:0A0A70000197F1F7B3CFF894FFCF20
:100A7A005AFFC0F9A4B0999282F8809883C6A186D9
:020A8A008EBF1D
:00000001FF
