:1000000056C0E4C16FC06EC06DC06CC06BC06AC02A
:1000100069C0D6C567C066C065C064C063C062C041
:1000200061C060C05FC062C485C4ABC4B1C4C6C493
:1000300019C542C54FC581C582C504030904120311
:100040006F0062006400650076002E00610074009D
:1000500014034400610074006100530074006F00D9
:1000600072006500120110010000000834126824BB
:1000700000010102000109022200010100800A09B9
:100080000400000103000000092101010001221603
:1000900000070581030800640600FF0901A101159E
:1000A0000026FF00750895800900B20201C01124E6
:1000B0001FBECFE5D4E0DEBFCDBF11E0A0E6B0E0CB
:1000C000EAEEF2E102C005900D92A03BB107D9F72C
:1000D00012E0A0EBB1E001C01D92AA33B107E1F735
:1000E00024D801C98DCF85B7826085BF8BB7806466
:1000F0008BBF8BE480930E028AE580930D020895F6
:100100001F93DC01162F80910D0284FF07C08091A0
:100110000E0298E8892780930E0203C08AE5809337
:100120000D02912FEFE0F2E08D918193915019161D
:10013000DCF38FE092E0612F45D11C5F10930D023C
:100140001F9108951F93CF93DF9360911E02635018
:1001500067FDBDC080911B02CCE0D0E0C81BD10977
:10016000CE5DDD4F80911A028D3209F09EC068305D
:1001700009F0ABC083EC809302028AE580936000B3
:100180001092B0018881807639F0CE0106D5282FF3
:100190008F3F09F479C07FC09A8110920B02898148
:1001A000882321F410920C0222E067C0853019F4F4
:1001B00090931F0261C0863009F04AC08B81813064
:1001C00019F484E690E01BC0823041F486E790E0A9
:1001D00090931D0280931C0222E236C08330F9F412
:1001E0008A81882341F48AE390E090931D028093F2
:1001F0001C0224E029C0813041F48EE390E090930A
:100200001D0280931C0222E11FC08230E1F480E5D0
:1002100090E090931D0280931C0224E115C081326E
:1002200041F488E890E090931D0280931C0229E03D
:100230000BC0823241F488E990E090931D028093D4
:100240001C0226E101C020E080E48093B00123C0BD
:10025000883021F421E081E292E011C0893019F464
:100260009093210209C08A3011F421E006C08B303E
:1002700019F48BE480930E0220E08BE092E09093DF
:100280001D0280931C0207C0888187FD2E8180E8B3
:100290008093B00106C08F81882319F48E81821764
:1002A00008F0822F8093610010C08091B00187FF19
:1002B0000CC0CE01FDD28F3F21F48EE1809360000F
:1002C00004C0882311F01092610010921E028091E8
:1002D000600084FF54C0809161008F3F09F44FC0DB
:1002E000182F893008F018E0811B809361008091FD
:1002F000020298E8892780930202112371F180910C
:10030000B00187FF08C083E092E0612FABD2182FC5
:10031000893078F522C020911C0230911D0286FFA1
:100320000AC0912FF901A3E0B2E084918D93319638
:100330009150D9F708C0912FD901E3E0F2E08D91F7
:1003400081939150E1F7C90101961150810F911DE0
:100350001F5F90931D0280931C0283E092E0612F47
:1003600031D0612F6C5F6C3041F08FEF8093610072
:1003700004C08FEF809361006EE16093600094E1B0
:1003800080B3847131F49150D9F710921F0210920A
:100390001902DF91CF911F910895A82FB92F80E006
:1003A00090E041E050EA609530E009C02D9182274D
:1003B0009795879510F084279527305EC8F36F5F77
:1003C000A8F30895EADF8D939D930895CF93CFB757
:1003D000CF93C395849BE9F7849B09C0849B07C096
:1003E000849B05C0849B03C0849B01C0A3C0DF9392
:1003F000C0911B02DD27CE5DDD4F849B02C0DF91E3
:10040000EBCF2F930F931F9300B32FEF04FB20F933
:100410004F933F9310B34FEF012704FB21F93BE0CB
:1004200031C04E7F012F10B3216028C0102F4D7FA7
:100430002260000000B329C04B7F2460012F000020
:1004400010B32BC010B3477F28602AC04F7E00B383
:1004500020612CC04F7D10B320622FC04F7B00B3B2
:10046000206432C0422700B349934FEF00001027A9
:1004700014FB20F910B31471C9F1297F91F20127FF
:1004800004FB21F900B3237F89F2315058F1102782
:1004900014FB22F910B3277E79F2012704FB23F91C
:1004A0002F7C81F200B3102714FB24F92F7971F20D
:1004B00000C010B3012704FB25F92F7359F200C0C7
:1004C00000B3102714FB26F9223040F200C010B30D
:1004D000012704FB27F9243028F64F77206810B352
:1004E0000000F9CF10E41ABF002719C03B50319526
:1004F000C31BD04010E41ABF0881033CF9F00B3451
:10050000E9F0209119021981110F1213EDCF4A81E0
:10051000441F093641F10D3211F0013E29F70093D5
:1005200020023F914F911F910F912F91DF91CAB7F8
:10053000C6FD4FCFCF91CFBFCF911895209120020C
:10054000222379F310911E02112369F534306AF1E8
:1005500030931E0220931A0210911B023BE0311BC4
:1005600030931B0222C000911E020130E4F40AE520
:100570004F7049F43091600034FD19C00093600061
:10058000C2E0D2E018C030910D0234FD10C00093DB
:100590000D02CEE0D2E00FC02795A8F45150A9F487
:1005A000220F0000F9CF4AE503C042ED01C0432FFE
:1005B000C4E1D0E032E011B31461949A11BB02B3EC
:1005C00020E414E15F93012756E002BB279520F455
:1005D000515021F4220FF9CF012756E000003B5A79
:1005E00002BBD0F2279528F4515029F4220F0000C5
:1005F000F9CF012756E0279502BB20F4515021F492
:10060000220FF9CF012756E02991332302BB21F6AF
:100610000B7E10911F02110FC651D04002BB11F08A
:100620001093190210E41ABF006111B31B7E402F12
:100630004B7E5F9100C000C002BB11BB42BB71CFBB
:1006400092B39C7F982B660F962B92BB939828EBC6
:100650003BE0C9010197F1F7939AC9010197F1F7BE
:1006600088B3942F9F73807C982B98BB82B3407C77
:100670008F73842B82BBC9010197F1F79398C9014D
:100680000197F1F7939884E08A95F1F7089580E057
:1006900060E041E0D5DF0895942F482F440F440FC8
:1006A0004860660F462B492B80E060E0C9DF089563
:1006B00088EC9FEA0197F1F780E060E040E3C0DF5B
:1006C00088E99AE30197F1F780E060E04CE3B8DF56
:1006D00080E060E048E0B4DFDADF80E060E046E040
:1006E000AFDF81E060E040E0D7DF0895482F440F9E
:1006F000440F440F4061660F660F462B80E060E0B8
:100700009FDF0895482F406880E060E099DF0895FA
:10071000482F406480E060E093DF0895482F81E037
:1007200060E08EDF0895482F81E061E089DF089561
:100730001F93CF93DF93CFE9D1E010E0812FE8DF63
:100740008991ECDF1F5F1031C9F7DF91CF911F91C5
:1007500008951F93162FD6DF812FE0DF1F91089594
:10076000959A95980895AF92BF92CF92DF92EF92AB
:10077000FF920F931F93CF93DF93EBE9F1E020E01B
:1007800030E040E050E061E0A62EB12C92E0C92EAE
:10079000D12C86E0E82EF12C04E010E0C3E0D0E09C
:1007A000A7E0B0E065E070E0808185BB83B387702F
:1007B000873029F1833071F0843028F4813081F062
:1007C000823080F413C0853039F0853068F086308F
:1007D000B1F404C0C5010BC0C60109C0C80107C0FF
:1007E000CE0105C0CB0103C0C70101C0CD01042E5D
:1007F00002C0880F991F0A94E2F7282B392B3196F3
:100800004D5F5F4F81E0EF39F80771F6C901DF9165
:10081000CF911F910F91FF90EF90DF90CF90BF90FD
:10082000AF900895A0DF28E08030920751F02AE0D1
:100830008030920741F022E08030920729F481E075
:10084000089582E0089583E00895CF93DF93EB014C
:1008500059DF02C0219662DF88818823D9F7DF91B2
:10086000CF9108951F93CF93DF93EC0180913902CC
:10087000162F861708F4182F80913802882349F420
:10088000D1DF888319821A821B821C821D821E82FC
:100890001F8280913802810F809338028091390243
:1008A000811B80933902812FDF91CF911F91089591
:1008B000DF92EF92FF920F931F93CF93DF93EC01A0
:1008C000D62EE0903902EE2009F45DC18091380205
:1008D000882309F057C1898190E0FC013497EA3000
:1008E000F10508F03DC1ED5EFF4F09948091B10123
:1008F000823331F0CCDE82E38093B1018093B20188
:1009000080E862E670E0A1DF80EC63E770E09DDFE5
:100910008BEC6AE770E099DF6A81606386EC19DF2F
:100920006B81606387EC15DF6C81606389EC11DF9C
:100930006D8111C080E860E870E087DF86EC62E9D5
:1009400070E083DF8BEC6AE770E07FDF6E816063CD
:1009500089ECFFDE6F8160638AECFBDE8091B6017B
:10096000882349F488EC6AE3F4DE8091B6018F5F56
:100970008093B601F5C088EC60E2EBDE1092B60120
:10098000EFC085DE84E68093B1011092B201E8C029
:100990008A818093B40180E865E970E056DF6FC01A
:1009A00080EC6FEA70E051DF8AEC63E770E04DDFC6
:1009B0006091B401606389ECCCDED2C080E869EB61
:1009C00070E043DFF090B7010F2D10E000591E4F8B
:1009D00080ECF8016081BDDE81ECF8016181B9DE57
:1009E00082ECF8016281B5DE83ECF8016381B1DE4F
:1009F00084ECF8016481ADDE85ECF8016581A9DE47
:100A000086ECF8016681A5DE87ECF8016781A1DE3E
:100A100088ECF80160859DDE89ECF801618599DE3E
:100A20008AECF801628595DE8BECF801638591DE36
:100A30008CECF80164858DDE8DECF801658589DE2E
:100A40008EECF801668585DE8FECF801678581DE26
:100A50000F2D0F5F0093B7010B3109F081C0109289
:100A6000B7017EC08A818093B40181E86AEC70E0AE
:100A7000ECDE80E861E06DDE8FE861E06ADE8091A7
:100A8000B4018A3008F48CCF80EC66EA70E0DDDED9
:100A90008AEC63E770E0D9DE8091B4016AE0F0D3BC
:100AA000682F606388EC55DE8091B4016AE0E8D37A
:100AB000906389EC692F80CF81E86AEC70E0C5DE35
:100AC00080E861E046DE8FE861E043DE80EC68EDBF
:100AD00070E031C081E86AEC70E0B7DE80E861E088
:100AE00038DE8FE861E035DE80EC62E970E0ADDE93
:100AF0006A81606382EC2DDE6B81606383EC29DEAA
:100B000084EC69EE70E0A1DE6C81606387EC21DE2D
:100B10006D81606388EC1DDE89EC69EE70E095DE26
:100B20006E8160638CEC15DE6F8160638DEC11DE8D
:100B30008EEC62E970E089DE13C0A9DD11C082B3DA
:100B40002091B801922F9295990F907E8F7D982BCE
:100B500092BB2F5F2093B801223011F41092B8019C
:100B60006D2DED1408F46E2D80913802860F809360
:100B7000380280913902861B8093390290E08823E5
:100B800019F401C002C091E0892FDF91CF911F912C
:100B90000F91FF90EF90DF900895FC0180818076A7
:100BA000803261F48181813011F0893039F488E03C
:100BB00080933902109238028FEF089580E00895F3
:100BC0001F920F920FB60F9211248F939F93AF93A2
:100BD000BF93EF93FF9386E182BFE2EDF1E0808166
:100BE0009181A281B3810097A105B10539F00197E8
:100BF000A109B10980839183A283B383349682E0F3
:100C0000E230F80761F7FF91EF91BF91AF919F91AB
:100C10008F910F900FBE0F901F9018950F931F93F9
:100C20009C018091B201853109F435C1863130F4DF
:100C3000882371F0843109F019C213C0873109F497
:100C400097C1873108F487C1883109F00FC2CFC13D
:100C500080E860E07EDD81E86DEE70E0F6DD84E145
:100C6000D5C18091BD019091BE01049721F41092ED
:100C7000BE011092BD012031310509F464C021315B
:100C8000310598F422303105B9F12330310528F4CB
:100C90002130310509F0ABC022C024303105C9F143
:100CA0002830310509F0A3C041C02038310509F4CE
:100CB00071C02138310548F42032310509F450C0A3
:100CC0002034310509F093C058C081E02030380746
:100CD00009F46DC02050344009F089C076C00091FD
:100CE000BD011091BE01802F805461E332DDF80117
:100CF000E853FE4F81E067C00091BD011091BE0135
:100D0000802F805462E325DDF801E853FE4F82E036
:100D10005AC00091BD011091BE01802F805463E341
:100D200018DDF801E853FE4F83E04DC00091BD018E
:100D30001091BE01802F805464E30BDDF801E8536D
:100D4000FE4F84E040C00091BD011091BE01802F94
:100D5000805465E3FEDCF801E853FE4F85E033C0C4
:100D60000091BD011091BE01802F805466E3F1DC3B
:100D7000F801E853FE4F86E026C00091BD011091B6
:100D8000BE01802F805467E3E4DCF801E853FE4F96
:100D900087E019C00091BD011091BE01802F8054E1
:100DA00068E3D7DCF801E853FE4F88E00CC00091FF
:100DB000BD011091BE01802F805469E3CADCF801A7
:100DC000E853FE4F89E080830CC00091BD01109173
:100DD000BE01802F805460E3BCDCF801E853FE4F75
:100DE00010820F5F1F4F1093BE010093BD018091D1
:100DF000BD019091BE01049709F038C19091C801DE
:100E00008091C401981731F59091C9018091C50175
:100E1000981701F59091CA018091C6019817D1F4F5
:100E20009091CB018091C7019817A1F480E006C092
:100E3000E82FF0E0E853FE4F10828F5F8430C0F35C
:100E40008093B50180EC6DEF70E0FFDC83E680936A
:100E5000B2011CC080EC6EE071E0F7DC88E893E141
:100E60002CE231E0F9013197F1F70197D9F70FDC66
:100E70001092B20180E006C0E82FF0E0E853FE4F88
:100E800010828F5F8430C0F38093B5011092BE0151
:100E90001092BD01EBC02230310509F447C0233068
:100EA000310509F455C02130310509F0DFC0EFDB11
:100EB00080E86FE171E0C9DC6091B4016436F0F064
:100EC000862F64E6DDD1682F606380EC42DC809180
:100ED000B40190E0845690406AE070E0DDD1606338
:100EE00081EC37DC8091B40190E0845690406AE058
:100EF00070E0D2D1682F606382EC15C06B3078F05F
:100F0000862F6AE0BDD1682F606380EC22DC80917F
:100F1000B4016AE0B5D1906381EC692F04C06A30F6
:100F200019F0606380EC15DC86E170C0B0DB80E80E
:100F300060E00FDC84E690E0A0E0B0E08093FE018A
:100F40009093FF01A0930002B093010287E15EC07D
:100F50001092B2018BC0232B09F088C098DB80E887
:100F60006FE271E072DC80EC61E471E06EDC4DC038
:100F70002115310561F48BDB80E86FE271E065DCFF
:100F800080EC61E471E061DC1092C2013EC020504F
:100F9000304109F06BC08091FE019091FF01A0915A
:100FA0000002B09101020097A105B10509F05EC0F1
:100FB00084E690E0A0E0B0E08093FE019093FF0112
:100FC000A0930002B09301028091C2018F3048F4D7
:100FD00081E061E08BDB8091C2018F5F8093C20171
:100FE00045C088E18093B2011092C2013FC0211533
:100FF000310579F44CDB80E86FE271E026DC80ECAF
:1010000061E471E022DC1092C30185E18093B201BA
:101010002DC02050304151F58091FE019091FF018B
:10102000A0910002B09101020097A105B105F1F471
:1010300084E690E0A0E0B0E08093FE019093FF0191
:10104000A0930002B09301028091C3018F3048F455
:1010500081E060E04BDB8091C3018F5F8093C3012F
:1010600005C087E18093B2011092C3011F910F91D7
:1010700008958091B201823321F56091CC016063C3
:1010800086E867DB6091CD01606387E862DB88E812
:101090006AE35FDB6091CE01606389E85ADB6091AF
:1010A000CF0160638AE855DB8BE86AE352DB60912D
:1010B000D00160638CE84DDB6091D10160638DE805
:1010C00048DB0895AC0128EE33E08CE291E0FC01AE
:1010D0003197F1F721503040D1F78091B201882348
:1010E00019F582E04030580771F088E04030580729
:1010F00099F0452BC9F480E862E670E0A6DB86EC47
:101100006DE471E007C080E863E571E09EDB86EC8A
:1011100064E671E09ADB089580E865E970E095DBAC
:1011200086EC6AE671E091DB0895EF92FF920F93EF
:101130001F93CF93DF932EE088E190E00FB6F894F1
:10114000A89581BD0FBE21BD8FE387BB18BA88E784
:1011500084BB8FE785BB8BEE81BB12BAC4D78C9A58
:1011600020E04CE251E004C0A895CA010197F1F7D4
:101170002150D1F78C98789484EC99E02CE231E0FE
:10118000F9013197F1F70197D9F789B7816089BFE4
:1011900083B7846083BF80E882BF8ADAC9DA86E0D9
:1011A0008093B4011092B3011092B201E2EDF1E02C
:1011B000119211921192119282E0E230F807C1F778
:1011C00081E08093C4018093C5011092C60182E042
:1011D0008093C7011092C8011092C9011092CA01F0
:1011E0001092CB011092B1011092BF011092C00178
:1011F0001092C1011092BE011092BD0176E0E72E5F
:10120000F12C012D112DC0E0D0E1A8959BD7809144
:10121000D2019091D301A091D401B091D501009752
:10122000A105B10591F7E092D201F092D3010093AC
:10123000D4011093D50197DA9C019093BC0180935F
:10124000BB018091B9019091BA012817390729F0A3
:101250003093BA012093B90104C0D093BC01C0936C
:10126000BB018091B101882331F48091BB01909141
:10127000BC01D4DCCACF843641F675DA23DFC5CF92
:10128000991B79E004C0991F961708F0961B881FD8
:101290007A95C9F78095089597FB092E07260AD0FD
:1012A00077FD04D00CD006D000201AF4709561951B
:1012B0007F4F0895F6F7909581959F4F0895AA1B4B
:1012C000BB1B51E107C0AA1FBB1FA617B70710F031
:1012D000A61BB70B881F991F5A95A9F78095909563
:0A12E000BC01CD010895F894FFCF82
:1012EA005AFF2043757272656E742054696D653AAF
:1012FA002020002020202020200020202020200044
:10130A002043757272656E74205365636F6E643A1A
:10131A0020002020002053746174696F6E204E757E
:10132A006D6265723A0020202020202020200020B3
:10133A0020202020202020200020204D6F76696E5A
:10134A0067204C6F67653A202000203130312D31FB
:10135A0031202D2032392000202020202020204634
:10136A00322020202020202000202D2000496E70CD
:10137A0075742050617373776F72643A00506173A9
:10138A0073776F7264204F4B212020202000506118
:10139A007373776F7264204572726F7221200053E3
:1013AA00746174696F6E204E756D6265723A0031B0
:1013BA002D4E756D62657220322D4D6F76696E679E
:1013CA00004C6F676520332D457869740030303AD8
:1013DA003030002043757272656E74205365636FF6
:1013EA006E643A0020203A3030002020203030004D
:1013FA0020202020202020202020202020202020E3
:10140A004D6F76696E67204C6F676F202020202011
:10141A0020202020202020202020205F6F773F11CD
:10142A00110A041F1F1F0011151511040E1F0000B9
:00000001FF
